:100000003B4D454C4641532062696E6172792066D2
:10001000696C650A5B47656E6572616C20496E6646
:100020006F726D6174696F6E5D0A43484950203D7F
:10003000204D4D53313030410A0A5B53656374697A
:100040006F6E20496E666F726D6174696F6E5D0AC6
:1000500053454354494F4E5F4E414D45203D20424C
:100060004F4F540A53454354494F4E5F56455253E0
:10007000494F4E203D20320A53544152545F504163
:1000800047455F41444452203D20300A454E445F7D
:10009000504147455F41444452203D20300A434F80
:1000A0004D50415449424C455F53454354494F4E8E
:1000B0005F4E414D45203D204E4F4E450A434F4D2A
:1000C00050415449424C455F56455253494F4E208A
:1000D0003D20300A0A5B42696E6172795D0AAEF1B9
:1000E0000020002000000002790000023900000218
:1000F0003D000002410000024500000249000000EE
:1001000000000000000000000000000000000002ED
:100110004D000002510000000000000255000002E6
:1001200059000001390000016100000125000002B2
:10013000210000023500000271000002750000027B
:1001400075000002750000027500000275000002D3
:1001500075000002750000027500000275000002C3
:1001600075000002750000027500000275000002B3
:1001700075000002750000027500000275000002A3
:100180007500000275000002750000027500000293
:100190007500000275000002750000027500000283
:1001A000754B11B530881B4A1118D378122BE1B268
:1001B000DB2BE5D002E009D1174A0E490D3B0123A4
:1001C000045CC8B2DB2B005498E00CD1F948094C10
:1001D0000A4A0B490A3B0123045CE5B2DB5CCD54BF
:1001E0001D2B00549DBD30D1F720000028200000B9
:1001F0002A2000002D5000000C20000035200000B7
:10020000315000001023004A032280701370130540
:10021000D246C047702000000022004B06238070A9
:100220005A695905DB400A4A046959615A400A4A29
:10023000034770615A20000000FEFFFFFFEFFFFF41
:10024000FF23A0B5707A1C05DB220F4D24782A40CD
:10025000142A004E234B23D0064798681B702B238B
:1002600000E03A703478327A9BD50207E180134A75
:100270001E2108E007D00A420C781A4B1CB2D21893
:1002800052F7FF701A4B1AFF8D4798681B07A1E0C1
:10029000192A08D50D2A01D0014B16D1014A12E0C6
:1002A000024B1580134798681B4B1022000763E030
:1002B000084B11D5074798681B781A4B0CB2D232FD
:1002C000084B07701A701C220105DB23A0490B7232
:1002D0001A721A2210700A2200BD70721A200000D1
:1002E0002C2000002B2000002420000028200000EB
:1002F0002A2000001C200000202000001820000000
:100300000C23004A0322807093705305D246C047E5
:10031000702000000046C04770E7FEB500E7FEB55C
:1003200000E7FEB500E7FEB500E7FEB500E7FEB565
:1003300000E7FEB500E7FEB500E7FEB500E7FEB555
:1003400000E7FEB500E7FEB500E7FEB500E7FEB545
:1003500000E7FEB500E7FEB5002380B53821FB05B8
:10036000DB6059685A210868992200609960DA6850
:10037000D921806C19641901C9494469194B446138
:1003800019E0004944428BC3044B43D3FC0A9B4A07
:10039000437013B2DB49434B420A9B681B7053B254
:1003A000DB681B4B41B2DB0A9B4B4070930A9B6896
:1003B0001B70D3B2DB700B2300E00823035C151C19
:1003C0005842A55CD45CD4D907B2E434013B015453
:1003D0000C2BFFB2DB4A30D1F24A3578111C117078
:1003E00011D1032BFF78DB4B2DD9042B1E704B232F
:1003F000FF70CB708B4B2AE00B781B681B4B2A706D
:1004000053781B681B4B297093781B681B4B287013
:10041000D32AFF78DA789AD008D0052AFF2BFF7804
:100420005BF000D002BD38F8674A234B22601321ED
:10043000C000494A224A2260136013482260134ACE
:100440002222024B2221C0505A585C409150584001
:10045000202404491F43206908B662610823806094
:100460001A6C1A05DB021222806C1A641A01D2225D
:1004700080689A641A0052228022A0609A689105CE
:10048000D26091491422006C1AE7FE641A00004FF2
:1004900010200000002000003C000003FF200000AE
:1004A0003100000408200000350000040C000004A6
:1004B000102000002D000003F9200000242000007F
:1004C000182000001CFFFF00FF20000020E000E1DA
:1004D00000E000ED0042C80000FFFF477002FFFF90
:0304E000FFFAC45C
:00000001FF
