:10000000041D002069380000293800002D38000048
:100010003138000035380000393800000000000099
:100020000000000000000000000000003D3800005B
:100030004138000000000000453800004938000049
:100040002D2D0000852D0000192D0000152E00001B
:10005000292E000061380000653800006538000076
:10006000653800006538000065380000653800001C
:10007000653800006538000065380000653800000C
:1000800065380000653800006538000065380000FC
:1000900065380000653800006538000065380000EC
:1000A00065380000653800006538000065380000DC
:1000B00065380000653800006538000065380000CC
:1000C000F8B5134B1B68DA0703D5124B12481B68AF
:1000D0009847C826114F7600351C142E00DD1425D4
:1000E00000230F4A02E0F95CD1540133AB42FADB42
:1000F000074B01221B68134205D00A4BE8B21C686B
:1001000007490023A047761B7F19002EE4D1F8BDD4
:10011000180000204C000020084F0000701B002039
:100120002C1B0020EC01002038B5274B2749063353
:10013000DA7F274B002A1FD000221A600023CB56FB
:10014000012B40D0234C2368DA0703D5224B2348E8
:100150001B68984722680123214D1A4205D0214A85
:10016000181C1468291C0422A047286803F0B2F95F
:10017000164B01221A7026E0194A186892689042BC
:1001800001DA01301860097849B200291BD01B68D8
:10019000934218DB0F4C2368DA0703D50E4B124845
:1001A0001B689847226801231A4205D00D4A181C83
:1001B00014680E490422A047094B586803F08AF9D5
:1001C000024B00221A7038BD0801002000000020F8
:1001D0002C000020180000204C0000200E4F0000D2
:1001E000EC020020EC010020154F0000F00200207E
:1001F00008B503F0A9F908BD08B503F097F908BDE3
:10020000F0B585B003F02AF98023DB059A6C01264E
:1002100032439A64FFF7F0FF284B294D9A1CD27F96
:100220009B190292DB7F2A1C03930024AC4620E03A
:10023000991C244879184900095A234D01916946AF
:1002400089885800115229880198884207D81F4D83
:100250002988002588426D4169420E4000E0002651
:10026000013302E001340023A70103988342DFDB5E
:10027000403202998C42F5DB154B65461B68DA0764
:1002800003D5144B14481B68984700270EE0104B09
:100290001B68D80708D5094B291C0133D87F0F4BA1
:1002A00002221C680023A047013740350C49CB7F50
:1002B0009F42ECDB05B0301CF0BDC046F0170020BB
:1002C000EC12002000400040E40200201402002054
:1002D000180000204C0000201A4F0000EC01002004
:1002E000F2170020F0B587B0FFF78AFF364B374989
:1002F0009A1CD47F0133DD7F631E5A0152195200CC
:1003000052181E1C002103950EE0D55AD718043749
:10031000FD8701E00023181C039D01302F1A023BCA
:100320000137F2D10131403A731A0133F2D1264B31
:1003300000220133DB7F254D0293029E63019B194E
:1003400005933CE0029F4B01059EFB18890150017B
:1003500069185B00301A03915B190021049029E0B1
:10036000049F18887F0001977F18BC46184F5E884D
:100370006744861B403F0097F717F6197E40019FA0
:10038000B446EE19765A861BF717F6197E40B44428
:100390001E1C403E3688861BF717F6197E409F1CB0
:1003A000FF8F6644C01BC717C01978403018009EE5
:1003B000023B3080039F0239BB42D1D10132A11AE6
:1003C000C0D107B00120F0BDF0170020EC120020D2
:1003D000C8080020F0B585B0FFF712FF03F0ECF974
:1003E00003F03CF88023DB059A6C012422439A64D5
:1003F000FFF702FF2D4B1B68234203D02C4B2D48E7
:100400001B6898472C4D0127002635E0029A9C1C5A
:1004100014196400A446294C6246145B039A5900DF
:100420005219525A141BA2B2019C6243121292B288
:100430005407E40FA446624492B26A5220490988E4
:100440008A4209D81F4909888C4664460021A24285
:10045000494149420F4000E0002701338342D5DB88
:10046000124B1B68D90705D5174B291C1C680222A3
:100470000023A04701364035144CE37F9E4210DA3A
:10048000134B721C0133D87F114B92016033002152
:100490005C5E029208490F4A0023521A03920194AB
:1004A000DCE703F0A5F905B0381CF0BD180000200A
:1004B0004C000020214F0000C808002000400040F0
:1004C0001C19002062030020EC010020F21700201C
:1004D000F0170020EC120020F0B58BB0FFF790FE73
:1004E000544B55489A1CD67F01330022DD7F534977
:1004F000141C0AE05F00CC54C453013300E0002315
:10050000AB42F7DB013220314030B242F7DB02F080
:10051000A5FF8023DB059A6C01210A439A64FFF74B
:100520006BFE444B00209A1C0133D57FDC7F444A8C
:1005300017E0059E8F1CF719424E7F00BE5BD75A0D
:100540000496BC46371C67447F10D75201310233F2
:1005500004E0013000238601191C0596A142E8DB66
:100560004032A842F5DB642701250597049502F087
:1005700075FF8023DB059A6C01210A439A64FFF71B
:100580003BFE314E2B4BF67F01330796DB7F2B4929
:1005900008932B4C2848002538E0099F9D1C7D19A5
:1005A00028486D002D5AA75A2E1C7D1BEF17ED19F8
:1005B0007D40CF56ADB2AF4200DACD540098A6527E
:1005C000875AED198552214D02322E780196CE566A
:1005D000019F02960198029DF60FFF170397A8420C
:1005E0007741049E7F423E400496013306E0013588
:1005F0000022AF01131C06950997009008988342CA
:10060000CBDB0098069D403040342031079A95425C
:10061000EDDB059D013D0595002DA8D10C4B1B6818
:10062000DE0703D50B4B0C481B68984704980BB0AA
:10063000F0BDC046F0170020C80800206B10002055
:10064000EC12002000400040F2170020EC170020C0
:10065000180000204C0000202A4F000010B50F3871
:100660000024032818D804F04DFB02060A14FFF7F3
:10067000B1FE041C10E0FFF7C3FD041C0CE0074BA7
:100680001B689847FFF728FF054B041C1B68984719
:1006900002E0FFF727FE041C201C10BDC80100204B
:1006A000BC01002010B50D4B012230331978002316
:1006B00000E0231C5C1C101CE4B298408142F8DA74
:1006C000074A072113718022D2050B401902106CD2
:1006D000044B03400B43136410BDC046F0170020C9
:1006E0002C000020FFF8FFFF064B0722313319785A
:1006F0008023DB05186C1140034A090202400A43BB
:100700001A647047F0170020FFF8FFFF00B50028BB
:1007100003D04901014B8918C85600BD98740000E8
:1007200000B5002804D04901034B8918C85601E0E0
:100730000E20404200BDC04698740000F0B58DB058
:1007400003900C1CFFF7AEFFD44BD5499A1C013324
:10075000DD7F0023D67F181C08E05700C853013204
:1007600000E00022AA42F8DB01334031B342F8DB5B
:10077000039D002D00D0042426B208960B9626E196
:10078000C84B1B780193C84B019F1B787E00FB1858
:100790000793C64B00271D78C54B6C1C1B7809942A
:1007A000EB180493013602973BE0731E5B010024B3
:1007B000069313E0BF4A0398AB181B570234DA0FB5
:1007C000D3185B103A1C0593FFF7A0FF009B069916
:1007D000059AC0188B18B849C0B25854049A6119C8
:1007E0009142E7DB7301099C069313E0B14903983A
:1007F0000B57211CDA0FD3185B103A1C0593FFF737
:1008000085FF009A06998018059AC0B28B18AA49EC
:1008100002345854049A9442E8DB029C02360134B4
:100820000294029C01996718079CA742BDDBA34B69
:1008300000241B7802940193A14B019D1B78019F1A
:10084000EB180793994B1D78994B6E1C1B780996F2
:10085000EB187E00049301363BE0731E5B0100241D
:10086000069313E0934A0398AB181B570234DA0F30
:10087000D3185B103A1C0593FFF752FF009B0699B3
:10088000059AC0188B188C49C0B25854049A611943
:100890009142E7DB7301099C069313E085490398B5
:1008A0000B57211CDA0FD3185B103A1C0593FFF786
:1008B00037FF009A06998018059AC0B28B187E49B6
:1008C00002345854049A9442E8DB029C0236013404
:1008D0000294029C01996718079CA742BDDB02F0B5
:1008E000BDFD8023DB059A6C01252A439A64FFF73E
:1008F00083FC744B1B689E0706D5734B281C1C6831
:100900000BA92A1C2B1CA04700250FE06D4B0222CF
:100910001B68134209D0614B6C4F0133D87F6A4B7F
:10092000E9011C68C9190023A0470135684CE07F24
:100930008542EBDB594B421E0133D97F0B9B5201A1
:10094000DBB24D1E01935118624B554E4900624C6B
:10095000C918F31A00951219049333E06746BD01D4
:10096000991C69185D4D49004F5B02993DB20E1903
:10097000023E3188A94207DA2518023D29806D46DA
:100980002D793780D5540CE0039E002E09D0011933
:1009900002390E88AE4202DDD55C0135D554002700
:1009A0000F80013B023C06E0049D009B6D188446CD
:1009B00000240295081C5E1CD0D1011C6046013841
:1009C0004039203A0028EFD10B9B013B0B93089C48
:1009D0000B9F634200979F4200DBD1E6039D2F4BA4
:1009E000002D1DD09A1CD07F0133DC7F01383A4B9B
:1009F00042013B4D1219D2180021ED1A0CE0AE183D
:100A0000F75CD65CBE19D65400E00023013B1E19EA
:100A10000136F4D10131203A431A0133F5D176E0A1
:100A2000304A072510781A1C0533DE7F2E4B2932F9
:100A300002215B5E17782D4AED1A1278264B6D0065
:100A4000D318C7199619EDB20399009394460DE097
:100A5000E25CAA18E254013303E0009A6401002327
:100A6000141962469A18B242F2DB01310C18BC42EA
:100A7000F3DB1F4B184D1878084B00219A1DD77FC8
:100A80001C4A283312781E78C719961955199446AE
:100A90003AE0E25C0E3AE254013330E0F017002015
:100AA000EC12002064080020F8020020BD0E002097
:100AB000170200208474000000100040160200207D
:100AC000BC0E002018000020EC01002084400040F3
:100AD000F2170020C80800206B10002000400040E2
:100AE00098740000190E00200C020020E80200207B
:100AF000180E0020E6020020640100232C19624633
:100B00009A18B242C5DB01310C18BC42F4DB5E4BD3
:100B10001B68DC0703D55D4B5D481B6898475D4D3E
:100B200000265D4F0DE0584B1A6801231A4206D08B
:100B3000FA18D07F594A291C14681A1CA04701369C
:100B40002035574C3B1CE47F0194A642EBDB039815
:100B5000002802D03A1C353210780133DB7F4D4E2D
:100B60000093504B01241A784F4B51011B78551CB0
:100B7000D3188919029308950023079134E05D008A
:100B800000219C4611E0494FD3195B56DF0FFF1837
:100B9000079B7F101E1C66444B01F65C6B01DF193E
:100BA0003618434BF6B2FE540231029E8B18B34204
:100BB000E9DB670108993D4D04970FE06B56354F0F
:100BC000DE0FF6183B1C63444F01DB5D049F76107B
:100BD000BE191B18364FDBB2F3550231029B994206
:100BE000ECDB634601330234009DAB42C7DB039E5E
:100BF000002E44D0284B48331B785BB2012B3ED1EA
:100C0000284B40B21B78002B15D1284A401012788F
:100C1000C0B252B2D10F8A1852101E4C244906E0BD
:100C2000E65C9D018619F6B2AD186E540133009F43
:100C3000BB42F5DB23E0019A1E49013A4010C0B2E5
:100C4000114004D5022301395B4219430131114C93
:100C500056010023154D341994460DE06646AA57F7
:100C60004E01D70FBF18E25C7F10F7198218104EA3
:100C7000D2B2BA5501330231009FBB42EEDBFFF71F
:100C800033FD0DB0F0BDC046180000204C00002020
:100C9000344F00006B100020F0170020EC01002002
:100CA000F2170020BD0E00201702002084740000FF
:100CB0000010004001000080F8B503F0C5FE0020E0
:100CC00004F09EFFD44F6422D448D54904F0DEF8E6
:100CD000D44B1A78002A76D000221A7003F04AFF0B
:100CE000D14B1B689847012004F08AFFCF4C6379F1
:100CF000002B01D102F014FB012565718024E4056D
:100D000002F0A2FC02F0AAFBA36C2B43A364FFF742
:100D100073FAC24BD87BC64B0222995EFFF70EFDD9
:100D200000F03CFB02F09AFBA36C2B43A364FFF79B
:100D300063FA00F033FBBF4B1B682B4203D0BE4B62
:100D4000BE481B68984700F0AFFABD4B1B78002BDC
:100D500001D103F045FA002002F0A8FBB94B1B6853
:100D60009847B44C2368DA0703D5B34BB6481B68E1
:100D70009847226801231A4205D0B44A181C146807
:100D8000AB490222A047AB4D01232A681A4205D085
:100D9000AE4A181C1468AE490222A0472A680123F3
:100DA0001A4205D0A94A181C1468AA490222A04771
:100DB000A04B1A6801231A4205D0A44A181C1468D3
:100DC000A5490222A047954BDB7C012B17D1A34AF2
:100DD000984C1268002A09D022681A4203D0964B18
:100DE0009F481B689847FFF76BF9FEE723689A0056
:100DF00005D5FFF765F922689A4B134023609A4C9A
:100E0000267875B2132D00D91FE2281C03F084FF49
:100E10001E001D02F5001D021D02F5005C011D02F1
:100E20001D021D02920198019B0114007C018201A8
:100E30008201820182011302784B8C4C46331D786B
:100E400000231A1C191C8A48AC4697E1734BDB7CC3
:100E5000012B3AD1774C802523682D052B4234D0C5
:100E600023682B4203D0744B77481B68984723684C
:100E70002B4206D0754B01201C686D490222031CD1
:100E8000A0476C4D2B681A0106D5704B01201C68D9
:100E90006F490222031CA0472B681A0106D56B4B31
:100EA00001201C686B490222031CA047614D2B687E
:100EB0001A0106D5654B01201C6867490222031CF4
:100EC000A0472A686B4B13402B60FFF72DF902F007
:100ED000F3FA584B1B68DA0414D5674A674B0420B1
:100EE0001A60674B19680143196019680220814331
:100EF00019601968012001431960624B00211960D3
:100F0000614B1A60614B1B68984702F0E9FA604B2D
:100F10001B68984702F0A2FA5E4A0023D3775E4B23
:100F20001B68984703F0A8F903F006FC5B4B1B68AD
:100F3000984700F0ABFA5A4B1B68984702F09CFAAE
:100F400002F0A4FA574B1B78002B01D103F04CFCA4
:100F50007B1DDB7F002B47D100F006FB524B802529
:100F60001B68984700F0A8FE504B6D011B6898471E
:100F700001F07FF84E4B1B68984701F0D7FA4D4BB4
:100F80001B68984701F012FB2A4C23682B4223D0A0
:100F90003C4B39481B68C01A474B9A781978013284
:100FA000904003F0C3FE384B186023682B4203D0F7
:100FB000214B42481B6898471E4B1B68DA0406D534
:100FC000224B01201C68304904220023A0472C4BEF
:100FD00001211A688A431A60394B1B689847394BBC
:100FE0001B68984701F070FD8023DB059A6C012196
:100FF0000A439A64FFF7FCF827E10D4B0020022218
:10100000995EFFF79BFB052D00D099E0FFF7E2F911
:1010100002F0BEF894E0C04608010020F01700205E
:10102000FC02002029000020940100202C00002058
:101030000C020020180000204C0000203A4F000055
:1010400043010020CC010020414F0000EC010020B2
:101050000E0200201002002012020020701B00204F
:10106000494F0000FFFFFFDF40010020541800201F
:1010700068080020FFFFFFF7FFFFFF0014E000E01B
:1010800010E000E018E000E0E801002098010020F6
:10109000B00100200D010020A8010020A0010020C7
:1010A000D0010020DC000020C40100209C010020B1
:1010B000B8010020C001002064100020594F00003A
:1010C000900100203C00002002F0C8F9604B1B6832
:1010D000984703F0D1F85F4B1B68984703F02CFB4F
:1010E0005D4B1B78002B01D103F07EFB03F022FC4B
:1010F0008023DB059A6C01210A439A64FFF778F894
:10110000564B13221A70A0E0554B1B6898470F23CB
:1011100023709AE0281CFFF7A1FA524C207002F0CD
:1011200037F8514B01221A70504B13221C604B4B65
:101130001A708AE04E4B1B6898470023237084E0A6
:101140001323237081E04B4B5B785BB20C2B00D1F7
:101150007BE0494A0823D374484AD37403F00AFD5C
:10116000474B1B689847012004F04AFD02F06CF8D9
:101170006BE01D1969871D186987013202336245CA
:10118000F7DB404B01221A703F4B1A78002A04D03B
:1011900000221A70364B1B68984702F023F83B4A2E
:1011A000012013688343136011688023DB059C686A
:1011B000996011680224A143116011689C689960CC
:1011C00011680824A143116011689C689960116836
:1011D0000424A143116011689C6899602C49802403
:1011E0000D6884402C430C600C68A021C9058D68F3
:1011F0008C601C68802149052143196014682549C9
:1012000021401160126899689A601968802252041E
:101210000A431A60C046C046C046C04662B61E4A6F
:1012200019680A401A60BFF36F8F0C4B00221A70C6
:101230001A4B187009E002F011F98023DB059A6C53
:1012400001210A439A64FEF7D7FF0A4B5E703AE524
:10125000A8010020A0010020DC00002040010020A7
:10126000AC010020F4010020F5010020F80100206D
:10127000A401002000000020FC020020F017002044
:10128000940100202800002042010020DC01002001
:10129000E4010020FFFEFFFFFFFFFFFE290000200A
:1012A0004943404340187047F0B53A4B85B05A1C4B
:1012B000D17F1A1C47321278374C52B20092013A51
:1012C000504242418A1A029222609A1CD57F1A1C0F
:1012D0004832127852B2171C013F01927A425741AC
:1012E000009AEF1B6760012A02D10023238106E0E8
:1012F0004C330022985E490003F066FD2081019B7B
:10130000254C012B02D10023638107E0214B4A3396
:101310000021585E690003F057FD60811D4B7F007E
:101320004A3300229D5E391C6B005B19181C039325
:1013300003F04AFD4043184C4000E060A800391C0F
:10134000401903F041FD4043124B400020614C33F3
:1013500000215E5E009970004B424B41029A801959
:101360005843510003F030FD0199039A60614842EF
:1013700048415043391C03F027FD064BA061503310
:101380001B78002B02D1E561266201E0E66125624F
:1013900005B0F0BDF0170020F40D0020F0B5254B8E
:1013A00087B09A1C0133DB7FD67FD91C721C0233B5
:1013B000039305920023204A0491181C059CE51A0A
:1013C000EF010197BC5AB852049CAD0129194F0096
:1013D000BC5A1A4CB85200272F550F550199184F77
:1013E0000133CF1902973988388003996F18790033
:1013F0000191895A0199885212496D18002129706A
:101400003955F71A0C4D0137D8DA00220136039B03
:10141000111CB60158002F5A2A52F0184700EC5BF5
:10142000EA53064FF954013B3954012BF2D107B06E
:10143000F0BDC046F01700200040004000200040F2
:101440000240004001200040F7B50E4B9A1CD17FAE
:101450000133DE7F481C013600230190019C321CC1
:10146000E71ABF01951CAC46BC44074C00256046FA
:10147000013A0555501CF5DA0133CA1A0132EDDA8A
:10148000F7BDC046F01700200020004000B50F4A0D
:101490000F49131C5C331B78896838324B43127830
:1014A0009B1152B2934200DA131C0A4A9BB213807A
:1014B0008022D2051B0590691909074B03400B4395
:1014C0009361024BDA6B054B1A6000BDF0170020E8
:1014D00008010020F00D0020FFFF00F0180200209E
:1014E00070B5013202339201D2181B4BD35C5BB250
:1014F0001F2B30D00F2B00DD0F3B98422BD0002B41
:1015000029DD051C1C1C154A2B352B3464006D008D
:10151000551912190226945F0226AA5FA24200DD25
:10152000221C0F4C3934247862439211914212DD0F
:10153000834202DD021C181C131C0A4A115C00299C
:1015400004D04CB29C4203DDDBB21355135402E0CD
:101550009C4200DAD15470BD002000401C020020E3
:10156000F017002044010020F0B5B44D95B0AB68F1
:10157000DB100D93042B01DA04260D96B04D802369
:101580002A68DB011A4200D061E3AE4F0197AE48F2
:10159000AE4B011C8446496800681C1C1E1C2E347E
:1015A000383038311E3E002200251A802570026036
:1015B0000A60DA83023B013C04380439B342F4D1B7
:1015C000A34B0020191C10391870013B00228B42DC
:1015D000FAD19A4D9F4EC423019F2A612A60F2508E
:1015E0009D4B2122BA5C9D68013A0F95954202DA23
:1015F00001350F959D60DE681396002E02DD013ED9
:101600001396DE60019F2022BA5C1D68013A129594
:10161000954202DA013512951D605E680696002E2D
:1016200002DD013E06965E600F9F139DAF4200DA19
:1016300068E18A48069C00263D1C129FA7420CDBED
:101640006F1C129BBF019A1CBA18115C013B49B276
:101650000F2900DD1654A342F5DA139F013DBD4268
:10166000EBDA7F4B754D0021585E63461B682D6990
:10167000724E784F62460C93C423526809953668BF
:10168000FB580F9D754C0A900B9208960E9305958A
:10169000129D069EB54200DAB1E0059A0599013225
:1016A0000231920189012B1C0392109137E00E9DAB
:1016B0008D4200DA0E910B9D059F860002965743DE
:1016C000AE19151C5D43079704953768079DBC4606
:1016D0002F1C67443760029D0C9F7E191B256D18D7
:1016E0003768AC46049D2B317F19654637606F0023
:1016F000584D4900EE19B7882818D7197830B780A7
:1017000006786918013606700226885F824202DD7B
:101710006F46BF884F80069D013BAB426FDB03984D
:101720009E1C81194F4D4A00095D525B6F460A9815
:10173000BA8092B249B2824205DB099D089F013509
:10174000BF1809950897481E0E28B0D90D9DAA42CA
:10175000E1DD0029DFD105985F1C8001011CBC463A
:1017600002906144095D521B49B2481E0192002259
:101770000E282CD8039D82000492019FAA19059D72
:101780006F4307971F2717550B9D049FEA19019D6B
:1017900017685D431195079D7F191760049D0C9A8A
:1017A00057190D1C1B353A680795119D5219079D55
:1017B0003A60284F6A00274DBA1897882818019D6B
:1017C00078307F19978007780A1C01370770039FCC
:1017D000391C61440F5D79B2481E0E2800D9C0E063
:1017E000002A00D190E08A4200D1BAE003980F3776
:1017F000FFB286193755069D013BAB428FDA059E35
:10180000139F013E0596BE4200DB41E709980B4D50
:10181000089E28610F4F0E98C4232E60F8500F9E2B
:10182000129F069D013E0596AF4266DB0F9E3D1C52
:101830000136B701029603971AE0C046080100205E
:1018400018000020F017002004000020740200207F
:10185000530100201C0200206019002000200040DD
:10186000F00D002000400040351C069EB54244DBD0
:10187000039FAB1CC548FB181F5C6E1E7FB23A1C51
:10188000103A0E2AF0D8C2495B005B5A0F3F191C70
:101890000193381C331C059AFFF722FE6C1C2B1C8D
:1018A000381C0199059AFFF71BFE381C0199059A0F
:1018B000231CFFF715FE331C381C01990F9AFFF704
:1018C0000FFE381C01990F9A231CFFF709FE331CE9
:1018D000381C0199029AFFF703FE2B1C381C019952
:1018E000029AFFF7FDFD381C0199029A231CFFF7AD
:1018F000F7FD351C069EB542BADA059F139D0F977A
:10190000AF428CDA15B0F0BD039D82000492019FB6
:10191000AA19059D6F4307971F2717550B9D049F15
:10192000EA19019D17685D431195079D7F1917609E
:10193000049D0C9F7A190D1C1B3517680795119D86
:101940007F19079D1760934A6F00924DD719BA8887
:101950002818019D78305219BA8007780A1C791C22
:101960000170109F391C61440F5D79B2481E0E282A
:1019700004D8002A4CD08A4200D037E7029FB91918
:101980000F5D79B2481E0E2804D8002A6ED08A4214
:1019900000D02BE7109FB9190F5D79B2481E0E28B1
:1019A00005D8002A00D18FE08A4200D01EE7029FAE
:1019B000D91C7818075D78B2451EAC460E2D05D8A7
:1019C000002A00D1AEE0824200D00FE7039D6818E4
:1019D000075D78B2451EAC460E2D05D8002A00D111
:1019E000DAE0824200D001E7109D6918085D41B23B
:1019F0004F1E0E2F00D98EE6002A00D1FFE08A424A
:101A000000D188E6039F0F30C0B2BE19305582E680
:101A1000039D82009446019FAA19059D6F43049778
:101A20001F2717550B9D2A1C019D62445D431768B3
:101A30000795049D7F1917600C9F1B253A1C624473
:101A40006D181768AC46079D7F1917606546514AA7
:101A50006F00504DD719BA882818019D7830521957
:101A6000BA8007780A1C0137077087E7039D820058
:101A70009446019FAA19059D6F4304971F27175588
:101A80000B9D2A1C019D62445D4317680795049DC8
:101A90007F1917600C9F1B253A1C62446D1817684C
:101AA000AC46079D7F19176065463A4A6F00394D6D
:101AB000D719BA882818019D78305219BA8007784A
:101AC0000A1C791C017065E7039D82009446019F02
:101AD000AA19059D6F4304971F2717550B9D2A1CB4
:101AE000019D62445D4317680795049D7F19176047
:101AF0000C9F1B253A1C62446D181768AC46079D65
:101B00007F1917606546234A6F00224DD719BA889E
:101B10002818019D78305219BA8007780A1C791C60
:101B2000017044E7AA00039D0292019FAA19059D36
:101B30006F4304971F271755029D0B9A5719019D54
:101B40003A685D430795049D52193A60029D0C9ACC
:101B50005719051C1B353A680495079D5219049DB9
:101B60003A600C4F6A00BA18958867440295029D46
:101B70007837AC46019DAC44654695803A789446EA
:101B8000021C60460130387020E7C046002000404B
:101B9000004000401C020020AA00039D0292019F09
:101BA000AA19059D6F4304971F271755029D0B9A8D
:101BB0005719019D3A685D430795049D52193A6093
:101BC000029D0C9A5719051C1B353A680495079D10
:101BD0005219049D3A60324F6A00BA1895886744DA
:101BE0000295029D7837AC46019DAC4465469580D0
:101BF0003A789446021C604601303870F4E6B8002A
:101C00008446019D0598039A454396191F22029523
:101C100032550B9D019E2A1C62441068029D5E4352
:101C2000401910600C981B31021C62441068490076
:101C3000801910601A4A1A4D51188A88019EEF19AE
:101C4000921978378A803A7801323A7063E52A68C7
:101C50001A4220D1134E21230196F35C002B00D1B0
:101C600095E4114E002706E001982123C35C01375B
:101C7000BB4200DC8BE480202B68C0010342F3D020
:101C8000019A2023D05C094BF901C918346802225B
:101C90000123A047E8E7064B06481B689847D9E7A9
:101CA0001C020020F0170020EC01002084400040BE
:101CB0004C000020784F0000F0B5CA4BCA49586864
:101CC0001B6889B004930B1CC4331B680290C7487F
:101CD00001930E220023C356002B41D000E063B2D3
:101CE000C34DEC5C002CFAD10370002B38D05E1E83
:101CF000029CB70005969500E6190397645937686A
:101D00000094BC46271C67443760039C049F2B3318
:101D10003E19049C376865595B007F1955006D18A2
:101D200037602E1C5A36CB1802241F5F3688BC46FB
:101D300037B2BC4500DA5E80059BAD8F1C335B007B
:101D4000CB189E887619059D9E804C198B18783487
:101D5000783325781B78019EEB18013E237001969D
:101D60000138013AB6D2A04BA24A019FC433116890
:101D70001F601023194208D19A4B9B4960CB002366
:101D80001C1C1A1C181C039331E012681A4203D061
:101D9000994B9A481B6898470025994E22E0706835
:101DA0006F1C33688446974ABF01914C08E0991C28
:101DB0007918885C40B2205C002800D08854013B30
:101DC0006345F4DA8B4B1B68D9060AD58E4B8F4AD4
:101DD0000133A901D87F8E4B891801221C68131C7E
:101DE000A04701358B4CE37F9D42D8DBC4E7804F91
:101DF00001303B56002B26D137599300F7502F590D
:101E0000EF50039B5A275B18BC469C4402932C2737
:101E100063461B88BF187F000193BC466B469F88B2
:101E20008C4463465F80171C029B1C379B8F7F008E
:101E3000CF19BB80471877373F78BC468F18783763
:101E400063463B700132039B0434023303930F2833
:101E5000CDD1654C7049231CC4331B686A4A049376
:101E60004D89131C05954A331B888D691EB2019656
:101E70004F68AEB29B1B069702969BB25432127803
:101E80000793584B03925E68002728E001CE019922
:101E9000069B48433C22A15E594302F095FF0599F9
:101EA0005E4A0818137880B22080052B15D000B246
:101EB000A84207DA039B401B584302998011081877
:101EC00020800AE0019A101AA84206DA039B401B00
:101ED000584307998011081A208001370234049A68
:101EE0009742D3DB404C4C49231CC4331B68464A01
:101EF00004930D89131C05954C331B884D691EB244
:101F000001960F68AEB29B1B069702969BB25332A6
:101F100012780793334B03921E681E34002728E083
:101F200001CE0199069B48431E22A15E594302F04F
:101F30004BFF0599394A0818137880B22080052B89
:101F400015D000B2A84207DA039B401B5843029900
:101F50008011081820800AE0019A101AA84206DAB7
:101F6000039B401B584307998011081A20800137B2
:101F70000234049A9742D3DB1B4C231CC4331D68E4
:101F8000214BAC461A1C4E3217781A1C4A320020DC
:101F9000165E1A1C4F32127801921A1C4C32002520
:101FA000515F503302911B780496039300231D1C4C
:101FB0003AE01A193C26915F002933D00021505E87
:101FC0001E26915F002F01D0049E301A019E002E24
:101FD00001D0029E711A039E002E21D0E152D083BF
:101FE00020E0C046040000201C0200205301002015
:101FF00044010020180000204C000020664F000023
:102000006019002000200040F0170020422000400E
:10201000EC010020F2170020F40D00202400002025
:10202000E052D183013502336545C2DB09B0F0BD12
:1020300070B50D4B002246331D78111C131C0B4C40
:102040000AE0601878300370A01843878383861EE7
:1020500058303380013103800232A942F1DBC434AD
:102060000023236070BDC046F017002054180020E4
:102070007047F0B5DA4B8DB01A1C463212785633E1
:1020800006921C8800231A1C1E1CD6491D1C0AE03F
:102090008F18C818783746873D70071C8637A430DC
:1020A0003C8001320480069F02330020BA42EFDBFD
:1020B000C4310860CC4ACD4CCD49031CFF20E0540C
:1020C000013302C20F2BFAD1CA4B00251B69CA4C3F
:1020D0000493CA4B2F1CC4331B680593C14BC433F4
:1020E0001B680293D6E0C64EAB193C201B5E002B4A
:1020F00000D1CCE0266804993601FF22002376182F
:10210000039201931CE00198BC4943005B183C20FA
:102110001A5E002A11D0BB4918886A181188DB8B17
:10212000401AD18B00B2591A09B2FFF7B9F8B04280
:1021300003DA6A461279061C0392019B013301936C
:10214000019805998842DEDB6A460C208356591CAB
:1021500000D19CE0A54AD2560392013260D0A24938
:10216000980042580190B24200DC90E003989D4AEA
:102170004000844661460020885203980C3040009D
:102180008018844661460020C88003981C304000B7
:102190008018844661460020888003995018783062
:1021A00000210170039900202C314900511848800A
:1021B000A918039191495800415A0398BA1801800F
:1021C0000C20C0188D49400084468C446046C0886D
:1021D0000399C8831C21C918884849008C46844447
:1021E000614689880398818784487821C01884468D
:1021F0008C44604600785218107003991A1C7F486E
:102200002C328C4652005A218C4481184A886146EF
:102210000A807548019A266016507449CF5436E0FA
:10222000704A5800AA180392744A815A0398018090
:102230000C20C0184000844694446146C988039825
:10224000C1831C20C018400084469444614689889C
:1022500003988187D018844678218C4460460078A2
:10226000844660483918783160460870181C2C3054
:1022700040000399121852885A310A8002995A4A2A
:102280000131029199008E50584A2660D754013787
:1022900002350434069EB74200DA24E7514D029F0E
:1022A0002B1CC4331F60554B0024C4331B68099397
:1022B0004B4B0433DB8F01940A93534B1B680B93F6
:1022C000DEE04A4B019E9B57013300D0D4E04B4BDC
:1022D0006846E718BE8F14210596085E6E46039087
:1022E0002820825F039E964219DCC5E03D487300BA
:1022F0001B183C215A5E002A0FD0404AD98B105B34
:102300001A88801AFA8B00B2511A09B2FEF7C8FF78
:102310000B9B984201DAF0B20490013602E0FF26EE
:102320000496002606988642E0DB6946102256563F
:10233000731C00D19AE0331C2A481C335B00C3187D
:1023400007930422995E039B04915B182B49059324
:10235000039A70000B5F23490890405E5343049A30
:1023600005995043181802F02FFD089B1D49321C97
:1023700058520C321E203B5E1A48520003998218B4
:1023800003924B430621505E049A05995043181856
:1023900002F01AFD039B1421D880321C6846095AAA
:1023A000104B07982C32520081809A1853885A3764
:1023B00039881FB20397114F08B2BC46039F87426A
:1023C00000DA0B1C0198074F5380031CBE196344AD
:1023D0007836783332781B78D31833704CE0C046A7
:1023E000F017002054180020540100204401002060
:1023F000FFFFFF7FF40D0020E00000201C02002002
:10240000680800201C0E00201802002050183C26EE
:10241000805F002827D150193C26805F002822D1F8
:102420003C4A5900105B14266852191C0C31F88B79
:1024300049006918C880191C6846305A1C31019E31
:10244000490069189219783288801178EA18783230
:102450005A3711702C333A88029F5B00EB18013712
:102460005A80029708E00133023202E000222A4932
:10247000131C069EB342C9DB019F0234013701974A
:10248000019E099FBE4200DA1BE7244E029C331CCA
:102490002348C4331C60031DDF8F069B1E4C1B3377
:1024A0005B009B19069E069A750006301D49013A8D
:1024B0002D193E26845F9200521804330021A44651
:1024C0001FE01888002819D04C193A26A45F00B2E2
:1024D000002C0ADC3CB2A04210DA029C0020013C35
:1024E0001880D8831060029408E0604506DA029EE6
:1024F0000020013E1880D88310600296023B02390A
:10250000043A09488342DCD1044B029CC4330DB029
:102510001C60F0BD1C020020680800205418002038
:10252000F0170020E00000208E18002038B5194B6D
:10253000194C46331D7800231A1C191C08E0E018BA
:1025400078300078411889B2824200DA021C0133E7
:10255000201CAB42F3DB0F4B09B25D331C780F4BF1
:10256000A14201DA3B2A01DD01221A70021CC432A9
:102570001268002A00D11A701B78002B09D0084B72
:102580001B68DA0703D5074B07481B689847FFF716
:102590004FFD38BDF01700205418002034000020F3
:1025A000180000204C0000206E4F0000F0B5344BA6
:1025B000344E1A1C46321278A1B0301C1B92C43023
:1025C000002202603048991D0630C277C98F371C3F
:1025D000480080B20CB2191C1C901D945A31097825
:1025E0001E370F91191C583100200C5E51200E949B
:1025F000641014941856254984B21694CC69523349
:10260000201A179017A80088096A1E901B7819A82D
:102610005BB29CB2CB1A199318940088341C3C34DA
:1026200009941F9005921A4C0D92069210920892EE
:1026300004920392079233E209980388002B06D094
:102640001D991BB25B1A1C9A5B10D3180380099961
:102650000023CB5E002B08D023680F980122109234
:10266000834203DA9B18236000E0236023680F99FC
:102670008B420FD16368012B0EDC013363600BE0EA
:10268000F01700205418002008010020F40D00204D
:1026900074190020002262606368002B00D197E16A
:1026A0000D9BD94808211D186956D84B0A1C0332C6
:1026B0000A91134004D50222013B524213430133D5
:1026C0005BB2AB600C936368012B37D1069B16207D
:1026D000584332880C9912924218131DCA4812A905
:1026E00009885B00C3189980111C3B880831490098
:1026F0004352101C0C304000099A11900B91128823
:10270000C148119942520699C148BF4A0818783009
:10271000007884460B98111862468A80BD49097872
:1027200000290BD012A800886B84AB84EB842B1C8F
:10273000A883E88328842833002018706368012B5D
:1027400000DC45E1B34B1B78002B00D198E028203A
:1027500028560321013002F08DFBC9B203910C22EF
:1027600069465156069A162353435B18A64A0C3302
:102770005B00D318328807919A80AB8BE88B298C49
:10278000119311AB0490089168460021595E102303
:10279000185E01228446814200DB00226B46D2B2E1
:1027A00020330B9200229A5E0120944500DB00202A
:1027B000C0B284460120914200DC00200BAB002215
:1027C0009A56C1B240B2824202D111A8008830802C
:1027D000634658B2824203D16A4610239A5A328025
:1027E000884203D16B462020C35A338006981623B3
:1027F00043430799844A5B1810335B00D3183A8827
:102800005A806A8CAB8CE88C0B92079304906B46D1
:102810002C20C15E68461C23185E0122844681423A
:1028200000DB00226B46D2B21033089200229A5E7F
:102830000120944500DB0020C0B284460120914273
:1028400000DC002008AB00229A56C1B240B282429E
:1028500003D168462C23185A3880634658B2824206
:1028600003D16A461C239A5A3A80884203D16B46A8
:102870001020C35A3B8068460C21085C283528701C
:10288000069B0022B15E162253430A980291191842
:102890005D4D0A1D52001A93AA180420135E029A75
:1028A0000193D21A00203B5E081C083004934000BC
:1028B0009446425F049B08929A1A03926246D31789
:1028C000D2185A400792039A0C31D317D2185A40A3
:1028D0009446079A4900131C099A63440393002302
:1028E000D25E28180A924A5F0A9B0B92991ACB175C
:1028F000CA185A4013924649069A511878310978F5
:1029000011910421435E119A1293D11AC8170B1822
:10291000311C4340883115930022885E039B019A45
:10292000C118424302984343D0184B10C01802F01C
:102930004BFA331C80B2A633039A07900021585EED
:10294000089B81185843131C049A5343C0184B101A
:10295000C01802F039FA80B20E9B039013981A1C2B
:1029600019180B9B5A430A9B58434B101018C01858
:1029700002F02AFA80B2159A089014988118031C64
:1029800012984343101C119A50431B1848101818F2
:1029900002F01AFA80B204900C991A9843181A1D82
:1029A0001C216846085A5200AA18908069460C20DB
:1029B0001A1C415A0832520051531B1820216846F4
:1029C000085A5B0058536946AD181022515AA98025
:1029D0006368022B20D1059A1C206B46C35A013232
:1029E0000C216846085A059269462022525A0999D4
:1029F00033803880064B06980A8069461022C31837
:102A0000515C783319701DE07419002001000080BA
:102A10005418002043010020002B0FD12368002B05
:102A20000CD1099A33803B801380321C5A321380B8
:102A30000698234A82187832137003E0012309991B
:102A40005B420B8016A80022B35E0022825E934296
:102A500003DC16A90988318005E0179A934202DB4E
:102A60001EAB1B88338018A900203B5E00228A5EC3
:102A7000934203DC18AA12883A8005E01998834231
:102A800002DB1FA909883980069A099B0D9801323B
:102A900002332C3006920237023609930D902C3403
:102AA00006991B9A914200DAC6E5064B10AC2478D1
:102AB0000633DC77024B059CC43321B01C60F0BDAB
:102AC0005418002008010020F0B55C4B5C491A1C2A
:102AD000513212788BB052B290B20290C8690C2574
:102AE000821A03926A46AA5A096A07921A1C52323B
:102AF00012786E4652B295B28A1A05921427BE5BBE
:102B00001A1C049508965B321278463306921B789D
:102B10004C485B0009934C4C002383E0C2183C27CF
:102B2000D55F002D4FD0E5183C27EE5F002E4AD030
:102B30002E886F4600960026BF5FED8BBC460026B0
:102B4000975F6646F61B009F7610F619B6B20096A0
:102B50006E4636882FB25918BC460E801E27D65FA7
:102B60006746BF1B7F107D19ADB201956D46AD88DC
:102B70006F46CD830026BE5F6D4608277D5FAE425F
:102B800004DC6D460826755B0D8006E0039FBE429F
:102B900003DB6D461C26755B0D806E46371D0C37BA
:102BA0000425755F0026BE5FB54204DC6D46102625
:102BB000755BCD830DE0059EB5420ADB6F4620258F
:102BC000EF5BCF8305E0E5182E88ED8BC9180E80EA
:102BD000CD831D491D4E59188D8F6F460195BF88B5
:102BE0009E19184DB7870E88ED5E37B2EF1BFD17A3
:102BF0007F196F40069DAF420CDA1E25575FBC4619
:102C00001E254F5F6546EF1BFD177F196F40069D20
:102C1000AF4203DB0B4FC98BFE52D18369468988D3
:102C200002339187099A0949934200D076E7C43468
:102C300023680BB0CB65C365F0BDC046F01700201C
:102C4000F40D002068080020541800201C0E0020FD
:102C5000EFF30880704700BA704740BA7047C0BAB7
:102C600070471F234209184001238340181C024B60
:102C70009200D0507047C04600E100E01F23420997
:102C8000184001238340181C2032024B9200D05080
:102C90007047C04600E100E01F23420918400123AD
:102CA0008340181C6032024B9200D0507047C046DF
:102CB00000E100E070B5002816DAC0B20F2303402F
:102CC000083B134A9B089B009B180322104090402E
:102CD000FF225D68141C84408901A5430A4082409C
:102CE000281C1043586011E003248208094B20403F
:102CF000C032A0409200FF24D558261C864089018E
:102D0000B5430C408440281C2043D05070BDC046C1
:102D100018ED00E000E100E0034B01221A7080236F
:102D20000022DB051A7070470C00002000B5104B24
:102D300001225A708023DB0559690E4A0A405A6104
:102D400059690D4A0A405A610C4A1278002A0DD07E
:102D50000B4A11685A690902120E090A12060A433F
:102D60005A615969802252040A435A6100BDC04623
:102D70000C000020FFFFFFFEFFFFFFEF38000020E8
:102D8000D401002038B5A023DB059D680F242C401A
:102D90002D022D0EE30705D5281C00F017FE184B59
:102DA0001B68984708231C4204D000F001FE144B16
:102DB0001B689847A3070FD5124B9B78082B01D0AF
:102DC000012B01D1104B03E0281C00F0FFFD0F4B3D
:102DD0001B68984700F0E6FD630704D50B4B1B68A2
:102DE000984700F0E5FD074B00229C70084B01213D
:102DF0001A70A023DB051972102119721A7238BDDE
:102E0000440000200C00002048000020400000206A
:102E1000E4010020034B0122DA7080230022DB054D
:102E20005A7070470C0000207047C0468023DB05B5
:102E300016491A6800221A600A6009689868996041
:102E400013490A600968D868D960FC2011498001DB
:102E5000086009681869196159695A6199699A6124
:102E6000D969DA61196C8021C9011964596C5A64F5
:102E7000996C09499A640A60A021C90588688A602A
:102E8000196C064A0A401A647047C046DC010020EB
:102E9000D8010020E0010020E4010020FFFF7FFFB7
:102EA0008023DB05DA690F218A4302210A43DA61B4
:102EB000DA69F0218A4350210A43DA610B4A117919
:102EC0000139C9B25977D86909490140C020C00207
:102ED0000143D961D86907490140902000040143AA
:102EE000D9619279013AD2B2DA7770470C020020A8
:102EF000FFFFF0FFFFFF0FFF30B51A4A1A4B118892
:102F00001A4DC9188023DB0589B2188C1984598C95
:102F10000021598450889A8C411989B2421E9984A3
:102F200092B2DC8CDA841C8D114D19855C8D5A852A
:102F300044199D8D0F4DA4B240199C8580B2DD8D42
:102F4000D8851D8E1C865C8E5886988E9986D88E64
:102F5000DA86188F1987588F5A87988F9987D98F53
:102F6000DA8730BD0C020020FF070000FF030000DD
:102F7000FF050000FF010000F0B5284B284D1C782C
:102F80002D784600651985B07618264F0295750193
:102F9000EF19631803970024944613E0224AD5568C
:102FA0005A1CD2B2EF0F01927F19039A7F10D719E2
:102FB000083700976F463A79009F0233BA700127AD
:102FC000AF40E419029A9342E8DB184B76012933AB
:102FD0001D784B424B41EB18154D5B102D78013B92
:102FE000691801319B060F4D0905124F19430C4317
:102FF0007319F51969686C600F4C811CC9B23619D8
:1030000062463171002A04D00C4A012112569140C7
:103010000A1C05B099699A61F0BDC046BD0E00203A
:10302000170200200010004084740000F0170020F8
:10303000190E0020181000401010004064740000A9
:1030400010B50D493F224B1CDC7F8023DB059869BE
:10305000043414409043204398610231C97F012415
:10306000881C214041180A4011029869034A024015
:103070000A439A6110BDC046F0170020FFC0FFFF51
:1030800008B50020FFF708FE0120FFF705FE02202B
:10309000FFF702FE0320FFF7FFFD0420FFF7FCFD12
:1030A0000520FFF7F9FD0620FFF7F6FD00200321BC
:1030B000FFF700FE01200021FFF7FCFD0220011CAC
:1030C000FFF7F8FD03200121FFF7F4FD04200121A3
:1030D000FFF7F0FD05200221FFF7ECFD062000219F
:1030E000FFF7E8FD034B04211A690A431A6162B62F
:1030F00008BDC04600ED00E030B5224BEE241A6852
:10310000E401144020481A687F21024022431A60DB
:103110001C688022D205156914611C4CE47D002CCA
:1031200016D01C6804256404640E2C431D680C40F2
:1031300024022840204318601868146910611C6834
:103140007B2020401C688C43211C0143196015E042
:103150001C6804256406640E2C431D680C408D43D6
:10316000291C214319601968146911611C68F62132
:10317000C90121401C682040084318601B68116980
:10318000136130BDE0010020FF80FFFFF017002039
:1031900000B572B60F4B01221A700F4BDA7D0F4B40
:1031A000002A07D01A68F621C901114018680C4A94
:1031B000024005E019687B2211401A687F20824393
:1031C0000A431A601A688023DB0519691A6162B61E
:1031D00000BDC04639000020F0170020E0010020AB
:1031E000FF80FFFF00B572B6104B00221A70104B23
:1031F000DA7D104B1968002A08D049040422490ED0
:10320000114318680C4A0902024006E049060422EC
:10321000490E11431A687F2082430A431A601A68D4
:103220008023DB0519691A6162B600BD39000020F0
:10323000F0170020E0010020FF80FFFF014B18780D
:103240007047C0463900002000B58023DB05196CAB
:10325000802212020A431A64196C8022D2010A43A6
:103260001A64196C254A0A401A64254A802110689C
:10327000490001431160126899689A60214B7F22CE
:10328000997C214B11401868204A090402400A43E6
:103290001A601968A022D2059068916018681C49CC
:1032A00001408420C005014319601968906891604D
:1032B0001849097849B2002902D001290CD103E04C
:1032C00018681549014003E018688021090401438A
:1032D00019601968906891601968802252000A4349
:1032E0001A601A68A023DB0599689A608023DB05C1
:1032F000196C0A4A0A401A6400BDC046FF7FFFFFEE
:10330000DC010020F0170020E4010020FFFF80FF17
:10331000FFFFFF80E7020020FFFF7FFFFFBFFFFFEF
:1033200038B5FFF783FDFFF7ABFE0220FFF799FCEE
:103330000020FFF796FC0120FFF793FC0320FFF726
:1033400090FC0420FFF79AFC0520FFF797FC06206D
:10335000FFF794FCFFF778FFFFF772FE374B5B7EB9
:10336000002B10D0364B0122196818684900490E0D
:103370001143344A090602400A431A601A6880233E
:10338000DB0519691A612D4B9B7E002B10D02C4B4D
:103390000222196818684900490E1143294A090692
:1033A00002400A431A601A688023DB0519691A6112
:1033B000224BDB7E002B10D0214B042219681868A9
:1033C0004900490E11431F4A090602400A431A6088
:1033D0001A688023DB0519691A611B4A802351781A
:1033E000DB051971596890784900C0074908014305
:1033F0005960D4785D68032114480C40A403284028
:103400002043586014795D6811480C40240328401B
:103410002043586054795D680E480C402840A4024F
:10342000204358609279586811400A020A490140C5
:1034300011435960FFF760FE38BDC046F017002009
:10344000E0010020FFFFFF8064100020FF3FFFFF2E
:10345000FFCFFFFFFFF3FFFFFFFCFFFF054B002245
:103460001A708023DB05996C0122914399641A70CC
:103470007047C0460C000020034B00221A708023C6
:103480000122DB055A7070470F00002000B5064B83
:1034900072B61A78002A04D1C046C04662B630BF60
:1034A000F6E762B600BDC0460F000020014B187061
:1034B0007047C04638000020054B19688023DB05A3
:1034C0005A690902120E090A12060A435A61704724
:1034D000D4010020014B18607047C046D401002081
:1034E000054B00221A708023DB05596980225204A3
:1034F0000A435A617047C0460D00002000B5094BD1
:1035000072B61A78002A04D1C046C04662B630BFEF
:10351000F6E762B6044A1278002A01D000221A7037
:1035200000BDC0460D0000203800002000B5054B4E
:1035300072B61A78002A03D1C046C04662B6F7E7D1
:1035400062B600BD0C00002000B50B4B0B4A72B6F2
:103550001978002902D01178002904D1C046C0464C
:1035600062B630BFF3E762B6054A1278002A01D08E
:1035700000221A7000BDC0460D0000200C00002083
:103580003800002000B54000054A401800234001E3
:1035900080181A1CC11801338A720A2BFAD100BD97
:1035A00000100040F8B5234B00261F7812E0281CBD
:1035B0000021FFF7E7FF204C281C22780021FFF7AD
:1035C000DBFC281C0121FFF7DDFF2278281C0121EC
:1035D000FFF7D2FC1749F5190A7818490136CB7F55
:1035E000D3189D42E3DB164B00251F7816E0201C04
:1035F0000021FFF7C7FF104E201C327800215342F4
:103600005A41FFF7B9FC201C0121FFF7BBFF3278BC
:10361000201C53425A410121FFF7AEFC084BEC1924
:103620001A78084B013528331B78D3189C42DEDB0F
:10363000F8BDC046E80200201E000020F51700205B
:10364000E6020020F0170020F8B54F4E4F4C331C17
:1036500034331978206803234D4A19400904024085
:103660000A43226022688025ED05A968AA60321C01
:1036700033321278216813409A04464B07270B40D7
:10368000134323602368AA68AB60226880235B032E
:10369000134323602368AA68AB60331C32331A7863
:1036A00021683D4B3A4052050B4013432360236889
:1036B000AA68AB60331C5E331A780F2A63D8331CB8
:1036C0005F331B780F2B5ED82168120709010909A7
:1036D0000A4322600F22134021681A062F4B0B4029
:1036E000134323602368AA68AB60731CDA7F296CDC
:1036F0007F2352009943013A1A400B1C13432B6459
:10370000274A6B6C13436B64FFF7CAFBFFF7F4FBAC
:10371000331C31331B78234A1F403B022F6C174068
:103720001F432F643822B256A9691F4B1205120994
:103730000B401343AB61FFF735FF236808221343A7
:1037400023602368AA68AB60236804210B432360CD
:103750002368AA68AB6023680222134323602368AE
:10376000A868AB6023680120834323602368A868AE
:10377000AB600E480E4B18600E4B18680143196081
:10378000196891431960F8BDF0170020DC01002092
:10379000FFFFFCFFFFFFF3FFFFFF1FFFFFFFFFF037
:1037A000FFFF0F00FFF8FFFFFFFF00F0FFFFFF002C
:1037B00014E000E010E000E0F8B50B4F00253E7883
:1037C00009E000210A1C201CFFF7D6FB201C012168
:1037D0000022FFF7D1FB05493A780B78AC19D318D2
:1037E00001359C42EDDBF8BD64080020F8020020A2
:1037F000F8B50B4F00253E7809E0201C002101227E
:10380000FFF7BAFB0121201C0A1CFFF7B5FB054995
:103810003A780B78AC19D31801359C42EDDBF8BD32
:1038200064080020F802002000B5FEE700B5FEE7BE
:1038300000B5FEE700B5FEE700B5FEE700B5FEE720
:1038400000B5FEE700B5FEE700B5FEE700B5FEE710
:1038500000B5FEE700B5FEE700B5FEE700B5FEE700
:1038600000B5FEE700B5FEE708B58023DB05FF21C4
:103870005A685960002299689A60D968DA601A69B2
:10388000FC2292011A610D490D4A0E4B01E001CA5A
:1038900001C38B42FBD30C4B0C49002200E004C354
:1038A0008B42FCD3FFF7D4F9094B002200E004C39C
:1038B0008342FCD3FDF700FA08BDC0462C0000206F
:1038C000BC4F0000000000202C0000206C1B0020DA
:1038D000701B002070477047704700B50F4BDA7CB3
:1038E0000F4B012A02D0082A12D108E00D4A1A60B3
:1038F0000D4A5A600D4A9A600D4ADA600DE00D4A91
:103900001A600D4A5A600D4A9A600D4ADA6004E066
:103910000C4A1A605A609A60DA6000BDF017002005
:103920003C0000201D3E0000DD3E00000D3F000079
:103930002D400000E13B0000ED3B0000153C000085
:10394000613C0000D538000000B5084B084AD97C1E
:10395000084B012904D108491160084A1A6103E0A3
:1039600007491160074A1A6100BDC046F0170020E0
:10397000EC0100203C000020453D0000E13D00003E
:10398000D7380000D9380000014B58697047C0464D
:103990003C000020024B5A69101A58617047C0461B
:1039A0003C000020014B00225A6170473C0000207F
:1039B000024B5A6908325A617047C0463C000020E9
:1039C000014B188B7047C0463C000020014B80B271
:1039D000188370473C00002000B50023C25C01330F
:1039E000002AFBD1013BD8B200BD70B5041C0D1CF0
:1039F000161CFFF7F7FB201C403810286CD801F08C
:103A000081F9090D3311151B1F4A506B336B6B6B1A
:103A10006B5D6400314B0E221A705DE02F4B0F225C
:103A20001A7059E02D4B10221A7055E02C492D4B7D
:103A30002D4AFF2E27D11CE0284B11221A704BE093
:103A40002749284B294AFF2E07D129486D0101300B
:103A5000C07F521908701A603EE06D01761901208E
:103A6000921908701A6037E01D491E4B214AFF2E3B
:103A700009D11F48AD010130C07F52194000C0B2CA
:103A800008701A6028E06D017619760002209219FC
:103A900008701A6020E0114B12221A70FFF778FBB1
:103AA0001AE00F4B02226D011A707619114B760045
:103AB000F6180C4B1E60FFF76BFB0DE0074B002266
:103AC0001A700D4B01221A7006E00C4B0120D874BD
:103AD000074BD87402F094F870BDC0464001002036
:103AE000F5010020F8010020EC1200206B100020EE
:103AF000F0170020C808002029000020FC02002048
:103B000010B52E4C2E4B21601860501E062853D83D
:103B100001F0F8F8040B112017314200294B0E2256
:103B20001A70294B01221A7046E0274A02201070B1
:103B30001A68236839E0244A022010701A68236842
:103B400022E0FFF74FFB1F4B00221A701F4B012290
:103B50001A7031E01B4A062111701B4A02211170B4
:103B60001A68164B52011B68D218194B5200D21812
:103B7000184B1A6020E0134A06211170124A0221E4
:103B800011701A680D4B1B685201D218124B52006B
:103B9000D218104B1A600FE00A4A062111700A4A27
:103BA000022111701A68054B1B685201D2180B4B89
:103BB0005200D218074B1A6010BDC0463C010020CD
:103BC00038010020400100200402002029000020CC
:103BD00064030020F0010020EC120020C80800203F
:103BE00008B5FFF7D5FAFFF7FDFA08BD08B5FFF7EE
:103BF000E7FE602806D1044B0B221A70034B1A789B
:103C0000034B1A7008BDC046400100200C00005054
:103C10006003002008B5FFF7D3FE6138032813D8EE
:103C20000A4B01F06FF8060A0E02094A12781A7060
:103C30000AE0084A12781A7006E0074A12781A70E9
:103C400002E0064A92791A7008BDC0460C00005086
:103C50001D000020A54F0000A44F000030010020EF
:103C60007047C04610B5041C05284BD00AD802285E
:103C70003DD002D8012854D12AE003283ED00428A0
:103C80004FD145E01D281FD004D81B2807D01C2881
:103C900047D10CE05F283FD0C02842D10EE0214B35
:103CA00001201A688840011C1143196039E01D4B3E
:103CB00001201A68884082431A6032E01A4B0A22B7
:103CC00019701A4B1A702CE0184BC9B2197028E001
:103CD000174BD974174BD97400F04CFF164B1B6867
:103CE0009847201C01F08CFFFFF7AEFA19E0134B48
:103CF00059705A788023DB051A7112E00F4B0122AC
:103D00001A700EE0094B0B221A700D4B197008E067
:103D10000A4BC9B2997004E0002902D0034B0C226F
:103D20001A7010BD1800002043010020400100203F
:103D3000FC020020F0170020940100203001002038
:103D400060030020F7B5061C141C002B07D0042AC2
:103D50000FD8214B9A5C053300921F5D10E0042AB6
:103D60000BD81D4B1A1C0A32125D0F3300921F5DD7
:103D700006E00F230027009302E00F221F1C009291
:103D8000032C21D0002C21D021E03C20211C01F06B
:103D90001BF8864205DD6B461B78C0B22B7068703D
:103DA00002E02F70301C6E70361A6043019A0023B7
:103DB0006A60AB601218F6B20192FFF7E9F9FFF7FB
:103DC0003DFA0028FBD104E0022400E00124034D69
:103DD0000191002ED9D1F7BD7A4F0000A00000203C
:103DE00038B50D4C0B232370051CFFF7F5FD6070F3
:103DF0006378072202331340934203D16378013B77
:103E0000DBB2637000236560A360FFF7C1F9FFF7C1
:103E100015FA0028FBD138BDA0000020F8B5FFF747
:103E20000DFA002850D1294BC4331A68002A03DC4C
:103E3000274BDB6D002B47DD264903230B70264BF8
:103E400046331B781D1C9A4200DAD3B200224B7015
:103E50001E48131C1F4929E0013303E05E00361899
:103E60000024B44666460234A7193A26BF5F002FE5
:103E7000F2D0AB421CDA5C00045B8E18347324B2BF
:103E8000DF002412561CE419E4B28E1934731C1C92
:103E90000C3464000419E488961C8E193473D61C03
:103EA00024B224128E19347304320133AB42D5DBB1
:103EB000084B1A1C0C325A6000229A60FFF768F90E
:103EC000FFF7BCF90028FBD1F8BDC046541800200C
:103ED00068080020A0000020F017002070B5A02383
:103EE000DB059D68FFF76CFD2D012D0F061C0024DE
:103EF00007E0054A3019A31880B21978FFF7B2FE1F
:103F00000134AC42F5DB70BD0C00005070B5FFF71A
:103F100057FD372852D00AD831284AD002D8002875
:103F20000DD05AE0342839D0352856D13BE0392815
:103F30004ED048D386280CD0C0284ED104E0314B57
:103F40009A7C314B1A705BE0304B1A782E4B1A700A
:103F500056E0FFF719FD0024A04210D12C4B2A4A4D
:103F60001978117059782B4A11705B681A182A4C0D
:103F700011780219013011700628F7D140E0244D64
:103F80006E68FFF701FD0019023836181E493278B5
:103F9000631801341A70082CF2D131E01F4B1A68F3
:103FA000194B1A602CE08023DB051A79164B1A7026
:103FB00026E0144B1A78144B1A7021E0184B1A782B
:103FC000114B1A701CE0174B1A780F4B1A7017E040
:103FD0000C4B1A790C4B1A7012E0903883B2132BE9
:103FE0000ED8114B4001C5180024FFF7CDFC001975
:103FF000281805490278631801341A70082CF4D186
:1040000070BDC046F01700200C0000504301002096
:10401000A00000200D0000500E000050EC0D00200C
:104020001D000020B40100206B10002008B5FFF730
:10403000C7FC86280BD1064B9A68012A02DC9A68D5
:1040400001329A609B68022B01D1FFF7CBF808BDC3
:10405000A0000020034B18685B68C01A4342584117
:104060007047C046D400002010B5041C0249062247
:1040700000F00CFF201C10BD0502002000B5044B11
:1040800058681B684230C01A412800DD423800BD24
:10409000D4000020014B18687047C0461000002073
:1040A000014B18687047C046D4000020014B586887
:1040B0007047C046D4000020014B18607047C046CE
:1040C000D4000020014B58607047C046D400002047
:1040D00010B50A4C06222168094B51431B68094858
:1040E000591800F0D3FE2368013323602368412B65
:1040F00002DD2368423B236010BDC046D40000208F
:10410000100000200502002008B5064B06485A683A
:104110001A60196806225143044B1B68591800F0B5
:10412000B5FE08BDD40000200502002010000020CC
:1041300013B50B4C0090606806225043094B019167
:104140001B686946181800F0A1FE636801336360BC
:104150006368412B02DD6368423B636013BDC04668
:10416000D40000201000002007B506235A43019117
:10417000044900900868694680181A1C00F086FE01
:1041800007BDC0461000002070B5041CFFF762FF99
:1041900000281BD10F4B062118685E680E4BC0B279
:1041A000F6B21D680F22013400E0181CB0420DD099
:1041B0000B1C4343EB181B781340A34207D0431C4E
:1041C000DBB24138C0B2412BEFD9EFE7034800B270
:1041D00070BDC046D400002010000020FFFF00008A
:1041E000F7B51F4A1F4C131C403319781E4B480863
:1041F000404218604800411889105960111C37313D
:1042000009781961931CDB7F0132D17F013B580192
:104210004E1E164A4118041915484900801A89187B
:104220000190B44618E0951CBE017619114D760038
:10423000755B019E0D5276182D0135520025A5544F
:104240000096013A02E0624600205F1C0238561CCC
:10425000E9D1013B4039203C5A1CF4D1F7BDC0469E
:10426000F01700206B100020C00E0020EC12002080
:10427000C808002000400040F0B5CE4CCE4AE37C98
:104280001278B3B01192CD4E012B00D124E2012758
:104290001097CB4BCB4C1878CB4BC64D1978CB4BEA
:1042A0001A78002323702D7C346800231F9231AAD2
:1042B0001295139025912793289329932A932B9352
:1042C0002C932D932E932F9330931380A70700D513
:1042D000FDE1B84C2123E35C002B1CD0BC4F002532
:1042E00005E0B44C2123E35C0135AB4213DD3368B8
:1042F00002201842F5D0AF4CB64AE9012023E05C19
:1043000089183C6800230222A047AA4C2123E35CC1
:104310000135AB42EBDCB04BB04D1968B04B01310D
:104320001A68890102328918AE4A0023EA60AE4A4F
:10433000EB612B62AB6049009E4F885A6222B95EE6
:10434000AA4C4143AA4A0912FF2089B21180A360F6
:10435000E060236060600022A64DA74FE818F918BE
:10436000023302800A80402BF6D1924C2022A25CBC
:10437000551E079500D297E12122A25C974D20920D
:10438000209FE25C013F1E973623E35CD2080D9329
:104390003823E1560E923723E35C904C7A08E469A7
:1043A0008E4F0F948D4C2D6ABF6864691D931895CC
:1043B000924B0A971994894D884F8C4CAD69FF68D0
:1043C000DB68A4681A9509970B931494874F874D5F
:1043D0003F68ED6816970E9F844C7F4215950D9DA2
:1043E00064681C971E9F6D4217941B9589B2002428
:1043F00000257F0192002291219403952397249216
:104400001E9F3C1C013400D103E1239D079C7C4B83
:104410002A195100CB1804937A4B0234D31806930F
:10442000794B7800D3180894029327AC774B22ADD0
:10443000241800202D5ECB18059401930C95039C45
:1044400086E0019D9BB22A88019DD21A2B800D9D8A
:1044500012B2AA4200DD97E01B9DAA4200DA93E067
:10446000029D2A781D9D51B2A94202D0029D0132BF
:104470002A70049D2E88059D3609F61AB6B22E8044
:10448000129D002D05D0069D36B22B785E43B611E5
:10449000B6B20E9835B285427ADD0F9949190F915F
:1044A0000A98854203DD079919971A910A95099A86
:1044B000AA4200DD09950B9B9D4207DD281C191CB3
:1044C00000F082FC0134E4B22418E4B2002D66DB73
:1044D000AB101F2B00DD1F2346485B00C25A013280
:1044E000C252109A002A05D033B2DB43DB171E40BC
:1044F000B6B235B20C9B9D4211DB149DBD4200DA71
:104500001497159DBD4200DD1597169D07988542AD
:1045100000DA1690079D1798854200DA1795039DDB
:10452000089831492B18049D5B00403DB6B25A5A99
:1045300004955E52059D023D0595069D203D06951C
:10454000029D203D0295019D403D0195013F5FD3B5
:10455000089D7B1C9B01039323485B195B00195A40
:10456000119D8BB2002D00D16BE7019D0BB22A8803
:10457000019D9B185B109BB29BB2D21A2B800D9DA4
:1045800012B2AA4200DC67E7029D0020287070E7A3
:104590001C9A954284DA189B5B1B189380E76B4248
:1045A0009B101F2B00DD1F2313485A00835A013331
:1045B000835296E7F0170020C80D00201800002055
:1045C00027000020410100202600002025000020B7
:1045D000EC01002084400040380100200801002048
:1045E0003C010020FFFFFF7F0040004060190020D9
:1045F000701900201E1900207C0E0020C00E002023
:10460000C8080020187700006B100020EC12002072
:104610000394209F002F22D0249C28A8001927ABA8
:104620000190002600250227DA5F0020195E139F03
:104630000433D419C8196F1CBC46771CA14201DD94
:104640006146CDB2824200DDFEB2019A9342EAD1C8
:104650001F9CAC4238D2219B0133DBB22193079DD2
:10466000013D079500D3CBE62A4C0F9F189DE761CB
:1046700025620A9F199DA76065611A9F099DA76120
:10468000E560149F244C159DA760E560169F179D5B
:1046900027606560259F219CA74202D21F4D012300
:1046A0002B70039802280AD81D4BDB6D002B06D116
:1046B0001C4D2B78012B16D000232B7002E0194BD8
:1046C00001221A7033B0F0BDB442C4D3C7E7164B11
:1046D00016481B689847FCE53368082213405D4282
:1046E0005D411095D5E5124C2123E05C0138E3D300
:1046F0002023E45C0F4B4201013CD2180021671CCF
:1047000003D0231CD154013BFCD2203A0138F6D20D
:10471000D2E7C046080100206019002041010020B6
:1047200068080020DC0000204C000020944F0000AE
:10473000F01700206B100020F7B5234BDA7C012323
:104740009A4205D1214B1A68082313405A4253411B
:10475000002B37D11D4B1B681A0703D51C4B1D4876
:104760001B689847002529E0184B1B681C070AD5D1
:10477000154B194E0133D87F184BE9011C68891974
:1047800003220123A047104B01350133DA7FAF012B
:104790000132019710E0019B1148991849000B5A0A
:1047A0008027DC0F00263F019F4274416442234072
:1047B0009BB2445A013A4352012AECD1094EF37F8D
:1047C0009D42D1DBF7BDC046F01700201800002045
:1047D0004C0000208E4F000084400040EC0100207F
:1047E00000400040F2170020F0B5474F2123FB5C4A
:1047F00085B0591E039100D282E00399434A444B8D
:104800004F010292FF18404B20215C5C013C32D3E7
:10481000039A404953011B193F4E5B005D189E19D6
:10482000009703E0023D023E013C23D3009A364F3D
:10483000135D37217F5C58B22A883188B842F1D1A4
:10484000364F40083F688446019767461009DB1BD6
:10485000019F401A121AB8423CDA029F3B68DA07FD
:104860003CD4009F0901002329803B55023D023EB4
:10487000013CDBD2009F039A203F013A0392C2D24F
:10488000029F04233A68134222D03A68134232D17D
:104890001D4F2123FB5C002B1AD01E4D0026202724
:1048A000194AD05D002808D01D4944000023EA5A67
:1048B0001209CA520233A342F9D102990B685A076E
:1048C00012D411492123CB5C01364035B342E7DCD9
:1048D00005B0F0BD00992A800B55A3E7114B124893
:1048E0001B6898473188BCE7104B0D491C680222B1
:1048F0000023A047E5E70B4B0D481B689847C7E727
:10490000024F0297BCE7C046F017002018000020B5
:104910006B100020C8080020EC120020C00E002000
:104920002C1B00204C000020984F0000EC010020C0
:10493000A04F0000F7B5164B9A1CD47F0133DA7FE5
:10494000671E79018918134B49000132C918019279
:104950000023A44618E06546EC1A019A0020A40141
:104960000EE0A5186E000C4D765B4518023D022E38
:1049700002D9023E2E8001E000262E800238013A44
:10498000012AEED101334039FA1A0132E3D1F7BDE1
:10499000F0170020640300200040004070B500289C
:1049A00008DA0F4B1B68DA0716D50E4B0E481B684A
:1049B000984711E0831089101F2900DD1F210B4C3F
:1049C00000225D00101C2C1903E0A55E0133401984
:1049D00002328B42F9DB01E00120404270BDC0464B
:1049E000180000204C000020A64F00001E190020D7
:1049F00070B5002908DD104B1B68DA0718D50F4B7E
:104A00000F481B68984713E0434249429B108910A6
:104A10001F2900DD1F210B4C00225D00101C2C19EA
:104A200003E0A55E0133401902328B42F9DB01E05D
:104A30000120404270BDC046180000204C000020FC
:104A4000B14F00007C0E002038B5444C4449201C76
:104A5000642200F01BFA434B1B78AA2B02D1424B75
:104A60005A791A71231C383300229A56013204D124
:104A7000221C40321278D2081A70E36B013315D130
:104A8000231C4A3300201B5E9800C018A31CD97F4A
:104A9000231C48331B785BB2013B5A425341C91A6D
:104AA000490000F091F940434000E0632B4C251D84
:104AB0003E216B5E013308D1231C40331B78052156
:104AC0005800C01800F080F9E887A51D3E22AB5EB3
:104AD000013306D140342078052100F027F9C0B217
:104AE000E8871E4B1C1C56340020225E013214D174
:104AF0001A1C4A320021505E9A1C48331B78D17F21
:104B00005BB2013B5A425341C91A00F05DF9404380
:104B1000C3179B0F18188010208010490B1C5833A6
:104B200000201A5E013203D10A1C403212781A802A
:104B30004A1CD27F4B1DDA778A1CD27F8B1DDA7715
:104B40000A1C0023283213700A1C29321370074AEA
:104B50000748D365642200F099F938BDF0170020AA
:104B600000740000987900001800002068080020F8
:104B7000FC020020F7B5534BD97C1A1C524B082974
:104B800001D1012100E000211970131C2C33187889
:104B9000023803282AD84D4B00F0B4F80E0E021B41
:104BA00014221A70CC225A7000229A700322DA70F2
:104BB0001A7102225A7118E024221A70FB225A70CC
:104BC00000229A700322DA70012102221A715971AF
:104BD0000BE024221A70FB225A7000229A700322E2
:104BE000DA7001221A715A7102229A71374A384BCF
:104BF0001678344C73430093237D00980193977883
:104C0000191C0137B94000F0DFF8324D2860617D92
:104C10000098B94000F0D8F816236860E356019A6E
:104C2000FA205343294AAB60137901259D40F300D4
:104C3000ADB29B1B6B43284FDB108000DBB270438F
:104C40003B80E18D6843090100F0BEF8C0B2788076
:104C500000902D204643009B281C7043590100F012
:104C6000B3F81A4AC0B2B8809379221C3032D80007
:104C70001B1A1078DB004000E03301305843009BE2
:104C80006843990100F0A0F8144A00231370144AF5
:104C9000C0B21370134AF8801370134A1370A21D28
:104CA000D17F124A1170124A1370621DD17F114ACE
:104CB00028341170104A13702178104A1170104A6C
:104CC0001370F7BDF0170020E702002064100020E9
:104CD00040420F00EC0200200C020020E8020020FD
:104CE000180E0020E6020020190E002017020020F6
:104CF000BD0E0020F802002064080020BC0E002039
:104D00001602002002B4714649084900095C4900B6
:104D10008E4402BC7047C04603B471464908400047
:104D20004900095A49008E4403BC7047002934D019
:104D30000123002210B488422CD301242407A1426D
:104D400004D2814202D209011B01F8E7E400A1422A
:104D500004D2814202D249005B00F8E7884201D3C5
:104D6000401A1A434C08A04202D3001B5C0822439D
:104D70008C08A04202D3001B9C082243CC08A0420E
:104D800002D3001BDC082243002803D01B0901D0FA
:104D90000909E3E7101C10BC7047002801D000206F
:104DA000C04307B4024802A14018029003BDC046A8
:104DB000D90000000029F0D003B5FFF7B9FF0EBC01
:104DC0004243891A1847C046002941D010B4041C38
:104DD0004C40A44601230022002900D54942002866
:104DE00000D5404288422CD301242407A14204D29A
:104DF000814202D209011B01F8E7E400A14204D27A
:104E0000814202D249005B00F8E7884201D3401A90
:104E10001A434C08A04202D3001B5C0822438C08B2
:104E2000A04202D3001B9C082243CC08A04202D31C
:104E3000001BDC082243002803D01B0901D009090C
:104E4000E3E7101C6446002C00D5404210BC7047BC
:104E5000002806D003DB0020C043400801E080208A
:104E6000000607B4024802A14018029003BDC046E4
:104E7000190000000029EBD003B5FFF7A7FF0EBC17
:104E80004243891A1847C0467047C046F0B5051C12
:104E90000F2A2FD90B1C0343051C9C072CD10C1C7B
:104EA000031C151C2668103D1E6066685E60A668BF
:104EB0009E60E6681034DE6010330F2DF2D8131CAC
:104EC000103B1B0901331B01C518C9180F231A40D9
:104ED000032A0FD90E1C2C1C131C80CE043B80C44B
:104EE000032BFAD8131F9B0801339B000324224095
:104EF000C918ED18002A05D00023CC5CEC5401330E
:084F00009342FAD1F0BDC04656
:104F0800537461636B004163746976650049646C2E
:104F18006500434D5F41425300436D2044656C7406
:104F28006100434D5F4A49545445520044656C61E1
:104F380079005245534554210052454756414C7318
:104F480000537461636B204F56464C4F57454421BC
:104F5800004C545F50524F46494C494E4700472D2C
:104F68004166746572003D3D2070616C6D00000003
:104F78004900120E070D0A1204060C09120F05113A
:104F88000812000110022D4900000000526177004C
:104F98004E65676564676500526566001D17506F4A
:104FA8007353746174455252004E6567537461744B
:044FB800455252000C
:104FBC00FFFF0000541800201C0200200101FF011B
:104FCC00D40E00200100000001200008FF56010152
:0C4FDC002C1B0020FFFFFFFF0101000064
:105C000008B5002802D0012849D130E0244A254BAC
:105C10001A60254A254B1A60254A264B1A60264AE7
:105C2000264B1A60264A274B1A60274A274B1A60D0
:105C3000274A284B1A60284A284B1A60284A294BC1
:105C40001A60294A294B1A60294A2A4B1A602A4AA3
:105C50002A4B1A602A4A2B4B1A602B4A2B4B1A608C
:105C60002B4A2C4B1A602C4A2C4B1A6017E02C4BF9
:105C7000DB7C092B0FD12B4A2B4B1A602B4A2C4B68
:105C80001A602C4A2C4B1A602C4A2D4B1A602D4A54
:105C90002D4B1A6001E0FDF720FEFDF755FE08BD13
:105CA0004D5D000094010020895D0000CC010020C2
:105CB000DD5D0000A40100204D5E00009801002081
:105CC0004F5E0000B0010020515E0000A8010020DE
:105CD000E1620000D0010020D15E0000A0010020A0
:105CE000E3620000C4010020E56200009C01002086
:105CF000E7620000B80100208D650000C0010020AF
:105D0000B166000090010020796F0000AC01002016
:105D100041670000C801002043670000BC0100206B
:105D2000F0170020A96D000058000020C96D000088
:105D30003C000020716B0000400000206D680000F6
:105D40004400002005680000480000200A4A0123A2
:105D500013700A4A117812798800934041189BB257
:105D60005943074A074BC910118000221A60DA60B4
:105D70001A615A619A617047B401002064100020D2
:105D80000C020020C80D002000B50F4B09221A702C
:105D90000E4A052313700E4A13700E4B1A1C533211
:105DA00011781A1C402904D90B4B00211981332189
:105DB0005961131C54331B78402B04D9064B19220C
:105DC0005A814D229A6100BD270000202600002044
:105DD00025000020F0170020F40D002038B5164BE8
:105DE00001221A70154B164C1A78164B1A701B7834
:105DF000002B11D0231D2B22DA87A31D1C22DA874A
:105E0000231C303323221A70231C313303221A70CF
:105E10005C34202323700DE0E58DD7230A495B0015
:105E2000201C64229D4203D1FFF730F8E58501E094
:105E3000FFF72CF838BDC0462900002042010020A1
:105E4000FC020020430100200074000070477047EE
:105E5000F0B5184B1A68002A2BD1174E0E2317489D
:105E6000D9010C18278890193DB2AC46144D013B5E
:105E7000475B25886744134D7F10BFB227804C19BC
:105E80002788403A3DB2AC46DC25AD00475B25880B
:105E900067447F10BFB227800B4C0C4D09190F8847
:105EA000445B3FB23819401080B20C880880002B48
:105EB000D5D1F0BDC80D0020EC12002032400040CA
:105EC0006E03000034400040364000407203000082
:105ED000F0B5454C85B01B250026291C2A1C2B1C1F
:105EE00040318032C033490052005B00085B175BD1
:105EF000195BA0235B00EB1801936A1C03B20198A5
:105F0000FF329C4640005200C023125B5B000190B0
:105F1000E818019B3FB21B5B674401930BB29C46A0
:105F2000E0235B00E91813B280229200AA186744AC
:105F300040009C466B46005B029204229B5E6744D5
:105F40009C46029B49005A0090239B00EB18095B7A
:105F5000019303B20198674440009C46A023125B62
:105F60009B000190E818019B67441B5B4000019374
:105F70000BB29C46B0239B00E91813B2C0229200DA
:105F8000AA1867449C466B46005B029204229B5E03
:105F900067449C46029B49005A00D0239B00EB18A3
:105FA000095B019303B20198674440009C46E023DB
:105FB000125B9B0001906744E81809B2019BC91964
:105FC00012B252181B5B6946043140000193002352
:105FD000CB5E005B9B1800B2C0180E21FEF7F4FEEA
:105FE000401080B20E2306E000400040013B175BEA
:105FF0001153002B0DD09A0152195200115B091A4E
:1060000089B20FB2002FF1DC013B115B1653002B5C
:10601000F1D1013D012D00D05FE79B4A9B4B9C498C
:10602000D35A525A1BB2072B03DD12B2072A00DDE6
:10603000F3E0954A95499BB2505A5352954B964975
:10604000D35A525A1BB2072B03DD12B2072A00DDC6
:10605000E6E08D488F499BB2425A0E2243528F4D43
:10606000D3015C198E4D8F4E5D19019521889819C9
:106070000EB22B1CB510AC4689B2071C013A8C44F9
:10608000072E01DD6646B1B289B2268821803988A3
:106090000CB2A61089B28E19072C00DDB1B289B2FC
:1060A000048801800198018808B2841089B20C1913
:1060B000072800DDA1B289B218881980002ACED144
:1060C000794E4023F35C794D7949D808C860AA68B5
:1060D000E9681D33019193423DDA6969AA69880133
:1060E000971C744BC019C35C9C4664460023002C6B
:1060F00004D1654B4000C35A58424341881C80017B
:10610000C0196C4FC75D002F06D15F4F4000C05BC8
:10611000002801D101339BB20131501C8901654F28
:106120000818C75D002F06D1574F4000C05B0028FC
:1061300001D101339BB203328A185E49515C0029B8
:1061400006D151495200525A002A01D101339BB263
:106150001BB2022B52DC584B019898424EDB574B36
:1061600000221A80EC6902942C6A0194029CA3100C
:10617000019C9C4205DDEA68AB6852429A4200DD10
:106180007DE04F4C00232361E368002B01DD0133E8
:10619000E360A0690390002845D1019996235B0034
:1061A000994250DCE368042B40DD00230122A26108
:1061B0006361E3602123F55C013D17D32023F65C86
:1061C0004049414F8C46013E721C0DD06A01921924
:1061D00052006346D118D219331C088802390001D5
:1061E0001080023A013BF8D2013DEDD2019D092D0C
:1061F00026DD364B01221A7005B0F0BD2F4B1A88F0
:10620000013292B211B21A800429ABDD304B012267
:106210001A70304B00221A70A4E752109B1808E73E
:1062200052109B1815E76369002BC3D0019D2A48C3
:106230002A4B2A189A42BDD92369032BBADCDBE723
:1062400001236361D5E74023F05C0321FEF76EFD77
:10625000EF68C0B27F428742A4DDAB689F42A1DDF8
:10626000019D0298E36885429DDD69460C25174A29
:10627000695C0133117001226261E36093E7104CA5
:106280002369013323617FE70040004036070000A7
:1062900034070000B6060000B4060000324000409B
:1062A0003640004034400040F01700200801002034
:1062B000C00E002000200040D4FEFFFF360000206A
:1062C000C80D0020EC120020C8080020DC000020CF
:1062D0002900002040010020BFE0FFFFDE2E00006B
:1062E000704770477047F0B59F4A4623D35C8DB026
:1062F0000693013B00D22EE14221515E4420125E02
:106300004E007618069C06995500984FAD181B3420
:106310002B316400F00FEA0F4900029786195519D6
:1063200079183A199800924F84460298E419C427C4
:10633000C75976106D100B960A9500268D4D08975B
:1063400004960027FF20FF260432023165440434FE
:106350000397059007962CE00E1C3C3E0027F65F45
:10636000E127BF00BE421EDC0027E65F029F002E31
:1063700000DCB9E0FE187827F65D0196062E21DCD8
:1063800006B200966E461027BE5FB446009E664574
:1063900001DD049007930C266F46F05F019EB0422A
:1063A00001DA03960593023A0239043D023C013BAF
:1063B0002DD310880028CFD1029E7827F018C05D19
:1063C0000190E8E70A9E07B20097B74210DB019EF2
:1063D000072ED7D000268F5F0997092F08DD019E71
:1063E0000F27BC460E2E00D8B446099EB445C9DD21
:1063F0000898002717800138002600270E80089093
:10640000023A2F600239043D023C013BD1D2089888
:10641000029FC423F850584B1B78002B4DD0534E8D
:10642000C4230296F658012E47DD069F002F44D064
:1064300068460C210A5E10236946585E029B521082
:106440003C337F007824401003924A49DF19002230
:10645000A44600250490069616E0059E96420ED0AE
:10646000079E96420BD0039EB44202DB049CA042DE
:1064700005DA069E1D80013EDD830D60069602331F
:1064800001320431BB4214D0029EB4180026985F3A
:106490000028F4DD6646A45D012CDED806981D8038
:1064A000DD83013802330D60069001320431BB42B6
:1064B000EAD1069E029FC423FE50304B1A78002A70
:1064C00010D02F4A117800290CD000202D491870C7
:1064D0001070CA8DCD235B009A4238D0CB852A4BF1
:1064E00001221A700DB0F0BDFE187827F65D0196F6
:1064F000062E05DC019E062E21D007B2009741E74B
:106500000B9F06B2BE4210DB019EF600B446002689
:106510008F5F019E09976746BF1BBC4666461927D9
:10652000632E11DD099EB742E7DD089E0020108032
:10653000013E0027002008960F80286033E70027DF
:10654000CE5F09962A26B4466646B710EAE7D723F7
:106550005B00CB85C3E700210022FF23FF240491C9
:1065600003920593079456E7F01700205418002073
:1065700068080020E00000204301002041010020C5
:1065800028000020FC02002029000020F0B53D4B2F
:1065900085B01A78002A03D13B4A1169002940DDF1
:1065A0003A4B46229A5C0392002A38D05622985ED3
:1065B000002501900026364A019F54193C20235E95
:1065C000002B27D00020225E1E21635E0292BE2196
:1065D000E12249009200934207DDAA2058432D4B47
:1065E000C018FEF7F1FB019FC719BBB288202352E8
:1065F000A6220298A352AF2314219B00984209DDE2
:10660000029A46205043244BC018FEF7DDFB3F188A
:1066100088202752039901360235B142CBDC05B000
:10662000F0BDD1680029BBDC9169002902D0526914
:10663000002AB5D0194AFA20116A4000814213DCC1
:1066400096204000814213DC9629A9DDD2691449C5
:106650008A42A5DC134AD26D012AA1DC01221A70FC
:10666000114B0A221A709BE70E49C96D0229F5DD0C
:10667000D2690E498A4200DD92E70A49C96D0229B2
:10668000E5DCEBE742010020C80D0020F0170020F8
:106690005418002016ABFDFFA240FFFF08010020A8
:1066A0008F01000068080020400100205702000010
:1066B000F0B5214A4623D35C83B00193002B2FD041
:1066C0001E4C0522261C0C273C36009200250AE0B1
:1066D000FEF77AFB103030700135019BEDB20234C9
:1066E0000136AB421CD90022A35E002BF4D03378D4
:1066F000009ADF1B9A1A052100927800002FE7DC30
:10670000009A05219000002A0CDDFEF75DFB0135A3
:10671000019B0A30EDB2307002340136AB42E2D850
:1067200003B0F0BD581EC0B2C0000521FEF74CFBFF
:1067300004303070D0E7C046F017002090180020D9
:106740007047F0B52C4B85B09A1CD27F0133039271
:10675000D87F2A4B00222A4F1E1C0124151C9C4660
:1067600021E073560F2B03DC0A2B02DD013200E01F
:1067700000244B00FB5AC82502936D00AB4207D89A
:1067800096256D009D429B4102935B42D21800E02A
:106790000024013101E0002101958142E1DB019DEE
:1067A000403701352036039B9D42F4DB63460021D0
:1067B000B62A0EDC8C421AD10BE09C56082C01DC68
:1067C00064109C54013200E000228242F5DB01316A
:1067D0002033039DA942F7DB0CE09C5664109C54C7
:1067E000013200E000228242F7DB01312033039ABC
:1067F0009142F7DB05B0F0BDF01700206B100020D0
:10680000C808002008B5164B8022196852000A43B8
:106810001A601A688023DB0599689A60FDF7D0F842
:10682000102802D0AF281AD117E0FCF7DBFCFDF7E7
:10683000B9F8FDF70FFC002808D1FA239B00C046E9
:10684000013B002BFBD1FCF7A3FC08E0054B002229
:106850001A60054B01221A7001E0FCF7C3FC08BD69
:10686000DC0100200002002014000020F7B5FDF735
:10687000A7F8EF2800D14CE12DD8082800D1B6E0C8
:1068800012D8042800D19DE006D8022800D181E06A
:10689000032800D057E18CE0AB4BAC4A062800D16E
:1068A0009EE000D9A0E097E0AE2800D116E108D81C
:1068B000102858D0A82800D135E10F2800D042E197
:1068C00031E0BF2800D12EE1EE2800D11CE1AF2835
:1068D00000D038E109E1F62800D1BBE010D8F22859
:1068E00000D196E006D8F02800D186E0F12800D04B
:1068F00029E186E0F42800D19BE000D9A1E090E0F6
:10690000FA2800D1C9E005D8F82800D1B5E000D9AF
:10691000BBE0A6E0FC2800D1CFE000D2C5E0FD2816
:1069200000D010E1D1E0FDF7A9FB894F06223860C5
:106930003B68884C5A43844B00251A700FE0864808
:1069400000260670FDF7C4FB6846FDF78DFB69461F
:10695000735CA3550136062EF9D1013506343B6828
:106960009D42ECDBEFE0FDF70FF8794B06211A684A
:1069700000244A4390420BDA764DFDF705F82818BB
:10698000025D7148231801341A70082CF5D1DAE041
:106990001C60D8E06D4A131C4C334A320020195E4B
:1069A00052780F2352B2091199431340664ACB180B
:1069B0001370FDF705F80323181A644B4A331A883D
:1069C000614BC254FCF7FCFF0423181A5F4B4C3395
:1069D0001A885D4BC254B6E00432D28F1A70B2E00E
:1069E0005B3212781A70AEE0127D1A70ABE0574B32
:1069F00056331A88544B1A70A5E0544B9A78524B70
:106A00001A70FCF7DDFF514B5A78F123181A4E4BE0
:106A1000C254FCF7D5FF4D4BDA78F223181A4A4BD3
:106A2000C254FCF7CDFF4D4B1A78F323181A464B8E
:106A3000C254FCF7C5FF4A4B1A78F423181A424B8C
:106A4000C254FCF7BDFF414B1A79F523181A3E4B8F
:106A5000C25478E0FCF798FF3C4B181842793A4B47
:106A60001A70FCF7ADFF041CFCF78EFF374B1818AB
:106A7000F7231C1B8279344BE254FCF7A1FF334B04
:106A8000DA79F823181A304BC254FCF799FF2F4BD0
:106A90001A7AF923181A2C4BC254FCF791FF2B4B8E
:106AA0005A7AFA23181A284BC254FCF789FF274B4D
:106AB0009A7AFB23181A244BC254FCF781FF234B0C
:106AC000DA7AFC23181A204BC254FCF779FF1F4BCB
:106AD0001A7BFD23181A1C4BC25434E0214B1A7840
:106AE000194B1A70FCF77EFB2DE01F4D00242E6819
:106AF000FCF74AFF0019361813493278631801343D
:106B00001A70082CF3D11EE0104B0233DA7F0E4BC3
:106B10001A70FCF755FF0D4B0133DA7FEF23181A7B
:106B2000094BC2540FE0114D00242E68FCF72CFFD6
:106B30000019361804483278231801341A70082CCA
:106B4000F3D1FCF74FFBF7BD0C000050F01700200D
:106B5000000200205C000020140000201C00002027
:106B6000B4010020F5010020F8010020F001002010
:106B7000F7B5A023DB059C68FCF722FF240E0F2647
:106B80003440051C07286ED00CD8022837D003D813
:106B9000012800D0E3E014E005284ED0062800D0FC
:106BA000DDE05AE05F2800D1A6E003D8082800D035
:106BB000D5E084E0A02800D18BE0B02800D0CEE062
:106BC000A4E0FCF70FFBFCF7EDFE654B1A780E23F3
:106BD0001A4000D0C3E0634B0D211970624B63492A
:106BE00018680140196019688023DB05986899606E
:106BF0005F4B1A605F4B1D70FDF786FAAFE0022C09
:106C000018DD574B5C4A1B7812781E405B493602F0
:106C100016430A1C4A321680594A4C31101C4A301D
:106C20000680F020034057481B0100784C32034394
:106C30000B801380FAF738FB91E0504B9A1DD08FF0
:106C4000191C474B00B21B780430984202DBD38FEB
:106C500005339BB20A1DD38781E0414B1A78474B1D
:106C60005B331A707BE03E4B1B78DAB21E2A00D2EF
:106C70001E23424A424D1375167D434B2E751A78DA
:106C80004249514300919F78311C0137B940009827
:106C9000FEF79AF83E4C01902060697D0098B9405B
:106CA000FEF792F816236060EB5601225E43394BE3
:106CB000A6600633DA770198FCF70CFC4FE0284B0E
:106CC0001A7801239A4200D9131C2C4A5632138099
:106CD00045E0234B2B4A1878274B1A2806D1197800
:106CE0002D4B10781A78FCF70BFF38E011781A78E2
:106CF0000123FCF77AFE32E0194B1B78002B2ED0D3
:106D0000184B0C221A70FCF76DFA28E0144B1A7815
:106D10001A2A08D11B4B1878174B19781E4B1A7872
:106D2000FCF7EEFE1BE0102A11D1052C17D1124AF8
:106D30001A4912788A61114A9C78101C54300470E8
:106D400017485332007848611B79137007E0112A05
:106D500005D15A78134B1A70024B0A221A70F7BDEC
:106D60000C00005040010020DC010020FFFEFFFF6E
:106D700000020020140000200D000050FC02002042
:106D8000F01700200E0000506410002040420F0059
:106D9000EC0200200801002010000050F40D00203B
:106DA0000F0000504201002007B56A460F23137000
:106DB000002353709370D370537100980199FDF7BD
:106DC000B7F9FCF7E5F907BDF0B5654C4623E35C80
:106DD00087B0002B00D17FE000260127002539E095
:106DE0006046C08B5F4C02906846A21908301E2195
:106DF000545E0021415E5B200C1B0394584C205CC8
:106E000001900398C4170019604000906046008804
:106E100014880390A4460098019CA04262DA0C20DA
:106E20006C46045F00940098644624B2001BC417AB
:106E30000019604084460198604557DD3C24125F8C
:106E4000002A53DD464C4623E35C01350137023608
:106E5000AB4241DD444CA419A38FA4461AB2002AC8
:106E6000BEDC40488419A38F1AB2002AEADDE28B07
:106E70000121615610B2019100110F218843039046
:106E80002488202038430199029484460F240398D3
:106E90002140084319B204AC03916146217060702F
:106EA00008216846085C0399E2700022A0702271F4
:106EB000FF293ADC6371E8B2FDF766F9021C03CCE6
:106EC000531C34D0FDF750F9254C4623E35C0135C3
:106ED00001370236AB42BDDC244C2378002B29D18C
:106EE00007B0F0BD68460C22105E009000980911B2
:106EF00002121D4844190F20024081437820205C73
:106F0000114384466020404204AC384320706170D5
:106F10000C206946415C6846A1700821085C1AB2E1
:106F20006146E0702171FF2AC4DDFF23C2E7FDF74F
:106F3000FFF887E7FDF78EF80028D1D10C4B1A78BF
:106F40000D2A05D01B780C2B02D0FCF721F9C7E7DE
:106F5000084B00221A6001232370FDF7D5F8BFE724
:106F6000F0170020680800205418002014000020AA
:106F70004001002000020020F7B56449FA235B00BD
:106F8000CB850B1C323304221A70614B8C220B20F0
:106F900098801A8019201422D8805A800B1C022451
:106FA00031331C705B4B00201A700325CC221D71FD
:106FB0005C719C7198705A70DD70574FE123A3404B
:106FC0003B80564F64263E80554E564F3780564F75
:106FD00080263B80554B05271F708023DB051A71E7
:106FE0005A68B600520052085A605F68C022120206
:106FF0003A435A605F68C02292013A435A605F6820
:107000004B4A3A4080273F013A435A605F68494AF9
:107010003A4032435A600A1C34321778464A2F40AD
:107020003F0401971768454E33313E40019F3E4370
:10703000166016689F689E60097817680D40A9045D
:107040003F4D3D400D43156011689D68996015687E
:10705000802149032943116011689D6899600425C6
:1070600016686905374D2E400E4316601268996800
:107070009A60DA690F218A431443DC61DA69F024EB
:10708000A24350242243DA610A225A77DC692E4A4D
:1070900080262240C024E4022243DA61DC692B4AC4
:1070A000B6002240902424042243DA611822DA77C1
:1070B0001C6C274A224032431A641A8C254A264CFB
:1070C0001A845A8C58849A8C9C84DA8C1322DA8421
:1070D0001D8D224E1C855D8D5A859D8D9E85DD8D75
:1070E0001F4DDD851F8E1E865E8E5D869D8E9C8665
:1070F000DD8EDA861D8F1C875D8F5A879D8F9C875A
:10710000DC8FDA87F9F71AFBF7BDC046F0170020CD
:107110000C020020641000201C19002062030020D3
:10712000E4020020B80B000014020020EC1700203D
:10713000FFF3FFFFFFFCFFFFDC010020FFFFFCFF70
:10714000FFFFF3FFFFFF1FFFFFFFF0FFFFFF0FFF3A
:10715000FFF8FFFF8B080000130400001306000077
:047160001302000016
:10740000203241410950524F58494D41000000017E
:10741000000048097D1E0A01010101010000000071
:107420001A0E00001A0E00000000000004009A016D
:107430001102030301000605092000003075000059
:107440003C00240018000A010000D00200050000E2
:10745000000101786E0096001E00020210780F0FE6
:1074600000010001000102030405060A0B0C0D0EC9
:107470000F101112131415191A1B1C1D1E1F0000CA
:1074800000000000020304050607080B0C0D0E0F98
:1074900010110000000000000F0F0E0D0D0D0C0C60
:1074A0000B0B0B0B0B0A0A090A09090A090909093E
:1074B000090A0000000000000F0E0E0D0D0C0C0C50
:1074C0000B0B0B0B0A0A0A090A0A0909090909091F
:1074D000090B0000000000000F0E0D0D0D0C0C0C30
:1074E0000B0B0B0A0A0A0A09090909090A09090901
:1074F000090A0000000000000E0D0E0D0D0C0C0B13
:107500000B0A0A0A0A0A090A0909090909090909E3
:10751000090A0000000000000F0E0D0D0C0C0B0BF3
:107520000B0A0A0A0A090A090909090909090909C4
:10753000090A0000000000000E0E0D0D0C0C0B0BD4
:107540000B0A0A0A0A0909090909090909080908A7
:10755000090A0000000000000E0D0D0C0C0C0B0AB7
:107560000B0A0A0A0A090909080809080908090989
:10757000090A0000000000000E0D0D0C0C0B0B0B97
:107580000A0A0A0A0A0A0909090908080908090968
:10759000080A0000000000000E0D0C0C0B0B0B0A7B
:1075A0000B0A0A090909090909080908080908094B
:1075B000080A0000000000000E0D0C0C0B0B0B0A5B
:1075C0000A0A0A090909090908080908080808082F
:1075D000080A0000000000000E0C0C0C0B0B0A0A3D
:1075E0000A09090A0909090909080808090808090E
:1075F000080A0000000000000D0D0C0C0B0B0A0A1D
:107600000A090909090909080908080808080808F1
:10761000090A0000000000000D0C0C0B0B0A0A0AFE
:107620000A090909090908080808080808080808D3
:10763000080A0000000000000E0C0C0B0B0B0A0ADD
:1076400009090908080808080808080807080808B8
:10765000080A000000000000000000000000000018
:10766000000000000000000000000000000000001A
:10767000000000000000000000000000000000000A
:1076800000000000000000000000000000000000FA
:1076900000000000000000000000000000000000EA
:1076A00000000000000000000000000000000000DA
:1076B00000000000000000000000000000000000CA
:1076C00000000000000000000000000000000000BA
:1076D00000000000000000000000000000000000AA
:1076E000000000000000000000000000000000009A
:1076F000000000000000000000000000000000008A
:107700000000000000000000000000000000000079
:107710000000000000000000232226272829292A33
:107720002B2C2F2C2C302F313333373C3E484B52EF
:107730004F51000000000000222326272A29292B70
:107740002B2D2E2D2F30313333363C3C4045494EC6
:107750005155000000000000232325272929292B4B
:107760002B2C2B2C2F2F30313538363E40454B4EAD
:107770005655000000000000242325272729292B27
:107780002C2D2C2C2F2F30323234363C40434B5290
:107790005155000000000000232325272627292912
:1077A0002B2B2B2C2D2F30313135363A3C42454E88
:1077B0004F510000000000002322242525282829FD
:1077C00029292B2B2D2F2F30313236383C42454E74
:1077D0004C510000000000002222242526272829E1
:1077E0002A2A2A2B2E2E2F30313336363C43454E53
:1077F0004F4F0000000000002322242525272727C3
:1078000028292B2C2C2F2E2F323336393C42495528
:107810005158000000000000222123242627272899
:1078200027282B2B2C2D2E303132383A3E4349510C
:10783000565500000000000022202324252526277D
:1078400028292B2B2D2C2D2F313136393E424751F3
:10785000545500000000000022212324262626285B
:107860002829292A2B2C2E2F2F3338383E424552D7
:107870004F5B000000000000202122242424262742
:10788000272828292B2C2D2F2F3335383E42454EC3
:1078900051510000000000001F202223242526272C
:1078A000292929292A2C2E2E3033353A3C42474E9D
:1078B0004F51000000000000232022232325272809
:1078C000292828292A2C2E2E2F3336383C40484F81
:1078D00054630000000000000000000000000000F1
:1078E0000000000000000000000000000000000098
:1078F0000000000000000000000000000000000088
:107900000000000000000000000000000000000077
:107910000000000000000000000000000000000067
:107920000000000000000000000000000000000057
:107930000000000000000000000000000000000047
:107940000000000000000000000000000000000037
:107950000000000000000000000000000000000027
:107960000000000000000000000000000000000017
:107970000000000000000000000000000000000007
:1079800000000000000000000000000000000000F7
:097990000000000000000000AA44
:00000001FF
