:1000000000200020C1000000D5030000D50300003F
:10001000D5030000D5030000D50300000000000058
:10002000000000000000000000000000D5030000F8
:10003000D503000000000000D5030000D503000038
:10004000750200009D02000061020000C103000073
:10005000D5030000D5030000D5030000D503000040
:10006000D5030000D5030000D5030000D503000030
:10007000D5030000D5030000D5030000D503000020
:10008000D5030000D5030000D5030000D503000010
:10009000D5030000D5030000D5030000D503000000
:1000A000D5030000D5030000D5030000D5030000F0
:1000B000D5030000D5030000D5030000D5030000E0
:1000C00070B5544BF1221B78AA2B0DD15249534BDA
:1000D0000020085652491B7809785BB2C01849B213
:1000E000884201D11A1CF1328023DB0559685A601D
:1000F00098680E2098600021D868D960186C80201C
:10010000C00118641869FE20C0011861454B4648BB
:1001100000E002C38342FCD34449454B890AC9B27B
:1001200019704449444809680024890AC9B25970C1
:1001300042490968890AC9B2997004709E785D784D
:100140000121AE420DD959780131C9B281705E7872
:100150001D78211CAE4204D91B78FF210133DBB28C
:100160004370324B1878364B1870FF2903D1304951
:1001700089781E2902D9FF21597006E02D490968A6
:10018000097859702D490968097899709978FF297B
:1001900005D05B78FF2B02D000F03AF970BD294BF7
:1001A0002949C0200B60294940000B602849294C8F
:1001B0000B60294B02211950C02088401D582C404B
:1001C0001C502648042504692C43046162B619605A
:1001D0008023DB05196C802109021964196C8021C8
:1001E000C90119649968802149009960D100891A70
:1001F00089008A1811018A1A1112C82209061204EC
:100200000A43A021C90588688A601A6C00221A6412
:10021000FEE7C046287C0000297C00002A7C000004
:100220002B7C00000000002038000020FF030000AD
:100230002800002008040000240000200C04000016
:100240002C000020D5030000180000201C00002016
:1002500020000020FF00FFFF00E100E000ED00E0D3
:10026000034A002313708022D20513707047C046E2
:1002700010000020064B00221A708023DB0559690C
:10028000044A0A405A615969034A0A405A61704750
:1002900012000020FFFFFFFEFFFFFFEF10B5A023BD
:1002A000DB051C7A0F2214401E4A9B7A1278012C1F
:1002B00002D11D4A138006E0082C0AD11B4B1A7884
:1002C0000832D2B21A7000F03BF8194B1B689847FD
:1002D0001BE0022C0DD1082A01D0012A01D1154BB7
:1002E00002E0114A1380144B1B68984700220F4B01
:1002F0000AE0042C09D10C4A13800F4B1B68984765
:100300000A4B1A780832D2B21A70064B01221C70BE
:10031000A023DB051A72094910221A7200220A7002
:100320001A7210BD34000020360000203500002075
:100330001C000020200000201800002008000020E1
:1003400000B5184A184913880978CB18DBB2E22B9C
:100350000CD002D8E12B23D104E0E32B0ED0E52B07
:100360001ED115E0114B1978114B197012880F4BE3
:1003700012B25978E2239A1A0D4BD154094B1A88BC
:100380000A4B12B29978E3239A1A094BD15407E029
:10039000084B1A68064B1A60074B1A68074B1A601D
:1003A00000BDC04636000020350000202C00002093
:1003B0000C000050240000202800002010000050F5
:1003C000034A002313708022D20553707047C04641
:1003D000110000207047FFFFFFFFFFFFFFFFFFFF3F
:1003E000FFFFFFFFFFFFFFFFFFFFFFFFFFFFFFFF1D
:1003F000B6CDCA04000000000000000000000404A4
:100400004D314830434F3533FF530000FF7B000030
:10041000F0B58BB003F0B2FCD44BD54E1B68002571
:100420000793D44B03241B680893D34B1B68099391
:10043000013CFC21305D890001F078FCA20007AB93
:10044000D358984203D0CD4BFF221A550125002CDA
:10045000EED1002D4ED0CA4BCA4AC0211360CA4A01
:1004600049001360C94ACA481360CA4B02225A5055
:10047000C02191405C5820405850C7490424086965
:100480002043086162B61A608023DB051A6C802263
:1004900012021A641A6C8022D2011A649A688022AD
:1004A00052009A60BD4B1A78F123AA2A0DD1BC499B
:1004B000BC4A00200856BC491278097852B280180C
:1004C00049B2884201D1131CF133DA00D21A9200EA
:1004D000D3181A01D31A1A12C82312061B04134385
:1004E000A022D205916893608023DB051A6C00225C
:1004F0001A64FEE704F044FC05F080FBAB4B1B687C
:100500009847AB4CE37A002B0ED000F069FBA94B67
:100510009A785A7002F072FEE37A002BFCD1A6485A
:10052000A649702204F018FEFF240394A44B1A7805
:10053000002A2ED19E493731097848424141112085
:10054000401AA049039008709F490A7001221A704E
:1005500000F046FB974B9A785A70944B1B6898476B
:1005600002F04CFE01F048FC8023DB051A6C7F2171
:100570008A431A6400F044FB02F0D6FF01F03CFC11
:1005800001F0E6FB914B02201B689847904803F06E
:1005900097F9904C2378002B03D18F4B1B78002BBD
:1005A00011D000F039FB2278864B002A04D068462F
:1005B0000C21085C187001E012221A70854A002391
:1005C0001370854A1370854C2378002B03D1844B1C
:1005D0001B78002B03D003F09DF80028FBD1804B43
:1005E0001B78237000F02EFD764B69461B78CB7488
:1005F0005BB2112B0CD005DC002B78D0102B00D077
:10060000EFE113E0122B34D0142B00D0E9E139E0F4
:100610006D4B00221A7000F0CFFB6C4B1C201B6846
:100620009847704B1B78002B00D0DAE16B4B1B789E
:10063000002B07D063230093002001216A4A022384
:1006400003F0CFFB5B4B587803F082FB5A4DE87BFD
:1006500003F0FAF8654C2060287C03F0F5F8544B61
:1006600060601B7CEA7B1D205343A360574B1B68D3
:100670009847554B00221A7001F0AEF8534B1E20DC
:100680001B689847504B01241C7000F0B9FA03F026
:100690008BF803F015FC484B271C1B19DB7F8024CB
:1006A00005930026E40509E003F0C4FCA36C0136C1
:1006B0003B43A36403F0F4F803F076F8059A802531
:1006C000ED05B242F0D103F02FFDAB6C01221343D4
:1006D000AB6403F0E5F800F0F1FC002800D125E759
:1006E000384B00221A70394B1F201B68984700F0C6
:1006F00007FE364C0320236898473D4B01271F70A7
:100700008023DB055969802252040A435A61236819
:100710000520984703F048F8364D374E264B321CDB
:10072000DB8A7842291C04F0B7F9344B2A881A80F6
:1007300032885A80294B1B78002B04D00B200221D1
:100740003A1C03F058FB23680620984703F04AFD43
:10075000002855D18022D20551690123090E0906CE
:10076000194351611C4A137034E1C046F003000084
:1007700028000020F0530000F07B00002C00002037
:10078000D5030000180000201C00002020000020DD
:10079000FF00FFFF00E100E000ED00E0287C00002A
:1007A000297C00002A7C00002B7C000090000020A7
:1007B00070100020C01000208C130020480E002074
:1007C000EF000020B80E0020EE00002050020020B4
:1007D00010270000F0000020F1000020EC000020B5
:1007E000ED000020F8000020C110002014040020BB
:1007F00012000020CE1A0020D01A0020DA1A0020A1
:10080000CD4900230A689A4202DD4B68D318DB0FFA
:10081000CA4C04202370CA4B1B689847C64BC94D6D
:100820005A681B682A806B80C74B1B78002B04D04A
:1008300017200221642203F0DEFA2378C34C002B38
:1008400018D023682B80C04B1B78002B04D00020CD
:100850000121102203F0CFFA2368022B02DC0133BE
:1008600023608DE000F094FDB94B14221A70002330
:10087000236085E0236001F061FBB14C0720236811
:10088000984701F015FBB34BDB89002B01D004F036
:100890004DF823680920984702F092FFAE4B1B7871
:1008A000002B13D104F09EF900280FD100F070FD49
:1008B000A74B12221A708023DB055A690121120E00
:1008C00012060A435A6102F0AFFF83E002F0ACFF68
:1008D0009B4C0B202368984701F04EFB23680C20AB
:1008E000984702F0D7F802F01BF902F073FA236878
:1008F0001020984723680F20984702F0C5FA974BBD
:1009000097491A68974B002A0CD097480A780078C4
:10091000904204D901320A7001221A7004E00022C8
:100920001A7001E00A701A70904B1B78002B03D1EB
:100930008F4B1B78002B03D18A4B1B78002B07D0E1
:100940008023DB055A690121120E12060A435A61FF
:1009500000F02AFD00283DD0794B11201B689847F4
:100960007C4DEB7A002B14D000F012FDEC7A002CB9
:10097000FCD180488049702204F0EEFB7F4B1C7054
:100980008023DB055A690121120E12060A435A61BF
:1009900020E07B4B1A687B4B002A04D16F49096821
:1009A000002900DD1A70363519782A78914201D372
:1009B00000221A701B78002B08D1614B12201B6893
:1009C0009847714B1B68984702F09AFA6D4B1A785A
:1009D00001321A7000F07EFE6C4B0020185600F0B9
:1009E00005FE574B14201B686C469847684BE47C07
:1009F0001C70684B1D78002D00D0FEE7664B1B78FD
:100A0000002B00D192E5654E3378002B00D0DBE05F
:100A10008CE53B785BB2013300D1D6E03C7863B221
:100A2000022B63D004DC002B08D0012B74D156E0DC
:100A3000042B6BD062DB052B6ED135E0424C237862
:100A4000002B03D1564B1B78002B03D002F062FE23
:100A50000028FBD1534900220D680A605249012346
:100A60000B705249237048780724A04318434870FC
:100A70004F4916200B604F490B704F4B4F491A706E
:100A8000344B497B5A731A7D8A181A752C4B1B6894
:100A9000984700F0A5F803F085F803F0BDF803F0DF
:100AA0002DF900F099FE37E000233D4A33701178AC
:100AB000254A172011703B4A3D49156001220A6002
:100AC0003C490A703C4A13703C4B5A7B214B197DC0
:100AD0005A738A1A1A751A4B1B6898471CE0184BF0
:100AE00018201B689847334B1C7015E0144B1920D5
:100AF0001B6898472F4B01221A700DE0104B1A20EB
:100B00001B6898472B4B01221A7005E00C4B1B20E9
:100B10001B689847274B1C70294B254A1A6002F026
:100B2000A3FD284C2378052B03D102F0F3FD002808
:100B3000FBD1FF23237048E084010020D81A002055
:100B400050020020DA1A0020EC0000208001002072
:100B5000B80E0020701000207E0100200414002038
:100B6000F2010020F3010020F4010020F701002031
:100B7000AE0200208C130020480E0020EF00002061
:100B8000A801002038020020580200203A0100206D
:100B900049000020F2000020EE000020F3000020B9
:100BA000ED00002038000020FC1300204C1B00202A
:100BB000F4030020151000209800002008540000C5
:100BC000D41A002070130020034F3378002B00D07C
:100BD0001FE7024A1370A9E470130020EF00002001
:100BE00010B504F02FF9054C00202368984704F055
:100BF00051F923680120984710BDC04650020020DB
:100C000008B502F0D1FD8023DB059A6C01210A436F
:100C10009A6402F045FE08BD10B54B4B1B78002BC3
:100C200008D04A4B1B68984701F0E0FE02F068F9D3
:100C300002F044FD464B02211A6880248A431A6060
:100C40001A68E405A168A2601A6808218A431A603C
:100C50001A68A168A2601A6804218A431A601B6896
:100C6000A268A360384B18783A4B1B78002823D031
:100C7000002B03D00020052103F0A6F82268802372
:100C80005B0213432360226880235B0413432360C9
:100C9000C046C046C046C04662B62F4B22681340CD
:100CA0002360BFF36F8FFA20C00002F009FE2268B4
:100CB0002A4B1340236015E0002B02D0062103F0DD
:100CC00083F8274802F0FCFD264B1B78002B09D146
:100CD000254B1B78002B05D1244B1B78002B01D111
:100CE00002F08CFA1A4B02211A680A431A6019683A
:100CF0008022D205906891601D49C87E0821002895
:100D000006D018680143196019689068916005E081
:100D10001868884318601968906891601A680421FF
:100D20000A431A601A688023DB05996811489A60A3
:100D300002F0C6FD044B1B78002B03D00E4B152090
:100D40001B68984710BDC046F000002090000020AE
:100D500000000020EC000020FFFFFFFEFFFFFEFF71
:100D600040420F00F3000020F4000020ED000020BE
:100D700070100020204E00005002002073B50B4C74
:100D80000B4E0FE0351B142D00DD1425094B1B788D
:100D9000002B06D00020E9B2221C0223009003F0B1
:100DA00020F86419B442EDD373BDC046441D002041
:100DB00000200020EC000020F0B589B002F0C4FB58
:100DC00002F0A8FC011EFBD18C4B1B78022B03D038
:100DD0008B483E2204F0FEF98A4C8B4FE0888B4D05
:100DE00005908B4EB8792978F37908414100D800F5
:100DF000181AC0000131E030484372796188904090
:100E0000490104F0F9F882B2E2800420D2B205214F
:100E100002F0DAF9FA792B788025ED05D21A07214C
:100E20002B6C0A407B4912020B4013432B64603742
:100E3000B2783B782E1CD318DBB22B7102F0B4FCD5
:100E40003C78640027E0B36C01221343B36402F0E2
:100E500027FD002C0BDD6E4B6B4A9B7860321278BD
:100E6000013B9B1A1B19DBB2337102F09DFC6A4BEC
:100E70006A4FDD780CE0013DEDB201213A88281C73
:100E8000494204F0A9F86A011219654B9200D0504A
:100E9000002DF0D1013C631CD5D1624B1B78002B97
:100EA00011D0594B012060331978082300935E4B11
:100EB00049005B7D013101935B230293C9B2584A1B
:100EC000802302F0A5FF002004904F4F3CE0504BE0
:100ED00080259A783B1C60331B78ED05D31ADBB272
:100EE0002B7102F061FC0024454E25E0AB6C012221
:100EF0001343AB6402F0D4FC4C490B785A00944283
:100F000008DA434A92780132D31A1B19DBB22B71EB
:100F100002F04AFC414B6A461B8807A91E32201C7E
:100F200003F0BAFD6B469A8B338899B2914200D296
:100F3000131C3380013402363C4803785B009C422A
:100F4000D4DD049901310491394A04981378984208
:100F5000BDDB02F0E9FA374B603739781E78364B43
:100F600001221D78521A264B0020344C8C460CE08E
:100F70001F88998879185F8871436F43CF19BC42E5
:100F800001DBBCB2101C013202339445F0DC204B73
:100F900061469A781018C0B25870224B1B78002B0B
:100FA00008D0490001310020C9B2154A042300903D
:100FB00002F017FF1B4B1B78002B06D000200121ED
:100FC0001F4A0223009002F00CFF694614225218B7
:100FD00011880C4B1278D9800420052102F0F4F816
:100FE000094B0722D9798023DB05114009481A6C87
:100FF000090202400A4309B01A64F0BDF80000205B
:101000003C010020600200208C1300207A010020A7
:10101000C0100020FFF8FFFF3D0E00207C010020E3
:1010200024040020EC00002070100020EC130020AD
:10103000EB1300204C0000204B000020FFFF0000BD
:10104000C110002038B5164B164D1B68002B04D07C
:1010500001232B70FFF792FEFEE7134C23681A0161
:1010600001D5FFF78BFE2B78002B18D023689A014F
:1010700015D50E4A0E4B11881920198051885980B8
:1010800091889980D2880521DA800A4A12781A81DB
:101090000A2202F0B0FE2268074B1340236038BDDD
:1010A000441D0020EC0000203800002060020020D9
:1010B000DA1A0020C0100020FFFFFFFDF0B585B058
:1010C0000023ECE0FFF79CFD7D4E3378002B76D0BB
:1010D0007C4B1C78002C0AD1A022211CD2007A481B
:1010E00004F078F87948211C0A2204F073F8784F4C
:1010F0003B781FE07C781AE0764E013CE4B2728ABD
:10110000291C201C03F068FF6E4E62013178724B7F
:101110005219002902D19200985008E091005B58C2
:101120005200C01A684BD15E814200DAD052002CC6
:10113000E2D12B1C5D1EEDB2002BDBD1674B684D5D
:101140001C78684E17E0634B013CE4B29A8A285D34
:10115000315D03F041FF5B4B634A1978A30000291E
:1011600001D1D05007E0D3586200C01A574BD15E6E
:10117000814200DAD052002CE5D1524B1B78002B73
:101180001DD05A4B1B78002B0CD0514B05221978DF
:1011900000925B7803200193522302934A4A402332
:1011A00002F036FE514B1B78002B08D04B4B03202E
:1011B000197871230093454A052302F012FE4C4B27
:1011C0001B78002B66D0424B80245F78494D023F4C
:1011D000FFB2240616E03E490E78023EF6B20DE05C
:1011E0003C4B381C5A8A311C03F0B6FD844200DAAD
:1011F000041C854200DD051C013EF6B2002EEFD135
:10120000013FFFB2002FE6D13B4F0426013EF6B26C
:10121000331C0C335B00FB189879D9792D4B5A8A13
:1012200003F09AFD844200DA041C854200DD051CAF
:10123000002EEBD1314B1C805D802C4B1B78002B9A
:1012400004D0301C0221542202F0D5FD234B80250E
:101250001C78284E2D06224F0EE0224A013C1D4BE1
:10126000E4B2385D115D9A8A03F076FD854200DABA
:10127000051C864200DD061C002CEED11F4B1D8094
:101280005E801A4B1B78002B04D0201C02216B229D
:1012900002F0B1FD0A4B1A780A4B1A700123084E6E
:1012A0003278002A00D00DE7114A1278002A00D0C7
:1012B00008E73178034A05B0012058401170F0BDAD
:1012C000F5000020F60000204815002082130020C1
:1012D0003D0E00208C13002024040020411000202B
:1012E000410E0020A902002094020020EC00002002
:1012F000F7000020FFFFFF7F70100020DA1A0020A7
:1013000010B51D4B1A781D4B51B2481C03D01C4818
:101310000078002804D000241C60A2420ED11EE0F8
:10132000184A18689268904201DA01301860012961
:1013300015D0124B1B68934211DB0124124B1B7812
:10134000002B05D0211C0E31C9B2002002F03CFD5B
:101350000C4AA300D2580D4B1A60074B1C700B4B64
:1013600019688023DB055A690902120E090A120660
:101370000A435A6110BDC0464A0000208800002080
:10138000F701002014040020EC00002014000020CD
:1013900008B501F02BFB034B1B68984701F0B0FD2B
:1013A00008BDC04658020020F7B57A4B01241A68E0
:1013B000794B002A06D1794A1468621E9441E4B23E
:1013C000002C02D000221A6005E01A6874498A4293
:1013D00001D001321A60734A002313709C423AD143
:1013E000714B197800290BD01978012249B20229D2
:1013F00000D10A1C6B4901250A7000221A70C7E04F
:101400006A4B1978002905D01C70694B01251570AD
:101410001C70BDE0674B1D68002D07DD013D1D60A0
:10142000012D18D11C6003231370B1E0624A634997
:10143000623212888A420ED06149098891420AD3E9
:10144000604A5548111C383109780068884202DB2F
:10145000393212781A605B4B01251A1C3A32107827
:10146000002800D094E0002C21D1574A48331B7843
:1014700012689A4215DB554B1B78002B03D0201CB9
:10148000122102F0A1FC524B4E491A684931013237
:101490001A6009788A4204DB00221A60414B02225A
:1014A0001A704C4A00231370474A136036E0414BD0
:1014B0001860494B1B78002B30D0414D474B2A8890
:1014C0001A80474A12885A80404B1B78002B03D061
:1014D0000221192202F08FFC3A4928880B1C08339C
:1014E000DA8F3C4B904212D23D4A1088324A653224
:1014F000127890420BD21B78002B0FD1324B48311F
:101500001A6809788A4209DA01321A6006E0012273
:101510001A702D4A002313602D4A13602E4B0125AB
:101520001B78002B34D12F4B1B78002B2CD01F4B5A
:101530001B78002B2CD1234E2B4BB71C1868331D66
:10154000D98FFF8FB31DDA8FF38F009703F032FD31
:10155000F28F1A4B9A420CD0194B1B88834208DB3E
:101560001F4B1A88144B65331B789A4201D3104BDA
:101570001D70002C0BD00E4B1B78002B07D00B4B93
:1015800001221A70002503E0094A137000E00125CA
:10159000281CFEBD041400202C010020F8010020AE
:1015A000FFFFFF7F3A0100201B01002038010020CF
:1015B00039010020280100208C130020FFFF0000CB
:1015C000CE1A0020701000201C010020EC0000202A
:1015D00024010020200100201A010020DA1A002036
:1015E000D01A0020AE0200208401002038B5002867
:1015F00053DD022805DD03284FD1284B11221A7034
:101600004BE0274C274D022815D1201C264970227B
:1016100003F0A2FD254B002129701A7D244803F018
:10162000D9FD24490522244803F096FD234B0E20C2
:101630001B68984720E0224B1B78002B03D000202A
:10164000112102F0C1FB1F497022201C03F084FD10
:1016500001232B70154B1C491A7D154803F07CFDA6
:101660001A490B78002B03D01348052203F074FDB0
:10167000124B0D201B689847FFF7B2FA0B4B4A3309
:101680001A78064B1A701B78112B04D1104B9A78DC
:101690005A7002F087FA02F0BFFA38BDB80E002087
:1016A0008C1300201A010020480E0020701000202A
:1016B000FA000020DD5B0000101000205002002026
:1016C000EC000020C8540000BD5B0000E25B00009D
:1016D000C0100020F7B5394B1B785BB2012B62D1EB
:1016E000374A0021537D01914BE0354A147D45E096
:1016F000344B013CE4B25A8A211C301C03F06CFCD0
:101700003049051C4B78002B0FD02F4A1378002B43
:1017100002D0135D5D4304E072012C4B1219D35CBF
:101720005D432B4B1B685D432D13254BDB7C002B4E
:1017300019D0244B671C5A8A391C301C03F04CFC0E
:1017400020494B78002B0CD01F4B1A78002A02D16D
:101750007301DF191D4BFB5C58431D4B1B6858433D
:1017600000132D186D10720112191A4B9200D358E4
:10177000019A1B0CED1AAA4200DA0195002CB7D190
:10178000331C5E1EF6B2002BAFD10E4B0199053310
:10179000DB7F994207DB8023DB055A690121120EAA
:1017A00012060A435A618023DB059A6C01210A4321
:1017B0009A6402F075F802F063F8F7BD4A00002061
:1017C000701000208C130020FA0000203D5900000A
:1017D0003C10002024040020F0B55D4B0722197A4C
:1017E0008023DB0511405B4C1A6C090222400A433E
:1017F0001A640121A02287B049421201564803F021
:10180000E9FC0121A0224942D200544803F0E2FC45
:10181000A02253480021920003F0DCFC514B00252C
:101820009F787F00FFB272E04F49EC170023CB5E38
:10183000DA0F9D425441E4B2201C02F085F8002CDE
:1018400067D1FFF7DDF9494B1B78002B0CD0484BD3
:10185000032299780092DB7805200193702302938C
:101860003F4A202302F0D4FA404B1B78002B0CD0C7
:101870003F4B042299780092DB7801200193732377
:1018800002933C4A802302F0C3FA384B1B78002BAA
:1018900003D00120722102F097FA354A537818E0FC
:1018A000334A73011478059310E0013C0599E4B2C2
:1018B0000B19294A9B009B58023307D0301C211C6E
:1018C00000F060F8002801D00135ADB2002CECD159
:1018D000331C5E1EF6B2002BE2D1274B274E1C783C
:1018E00011E0013CE4B2264B305D195D4201521813
:1018F000194B9200D358023305D000F043F800286A
:1019000001D00135ADB2002CEBD1013FFFB2FE2F6B
:101910008AD1164B1B78002B0CD0154B03229978DB
:101920000092DB78052001931E2302930C4A2023AA
:1019300002F06EFA064B0722DC798023DB05224099
:1019400004491C6C12020C40144307B01C64F0BD27
:101950008C130020FFF8FFFF24040020481500200E
:10196000C81000206002002072130020EC0000204C
:101970003D0E00200641004041100020410E002095
:10198000A9020020F7B5821CCB1C9201D218364B5D
:101990005200D35A354A128B9A4203D980225201FF
:1019A0009B189BB24201324F52189400E559A4464D
:1019B000304C9D4209D36646F351A456002C36D0D4
:1019C0002D4F5200EB1ABB5231E02B4F5600BF5F38
:1019D0000197013720D0A65C77B2BC46013708DA00
:1019E000771CA754019F7D19AB420CD90236A6542F
:1019F00009E06746002F0FDD771EA754019F7D1970
:101A0000AB4200D2A654400141180222184B890073
:101A10005242CA50012025E042015218A656013612
:101A200005D10026A654144C52005B1B13534201EF
:101A3000114B52185400E45E0E4B013402D09A56FA
:101A4000002A05D0420152189C5C65B2002D06DDCB
:101A5000400141185A5C002001325A5402E0013C16
:101A60009C540020FEBDC046004000408C13002066
:101A700024040020C810002048150020F0B585B0CF
:101A8000061C0127002808D1804BA0221F7880481F
:101A9000311C92007FB203F09DFB7E4B0122013F7F
:101AA0001A60FFB2ECE0FFF7ABF87B494C7870E0CE
:101AB0007A4B013CE4B20121DA8A201C494203F04E
:101AC0008BFA754B01901D7861E07449013DEDB2D0
:101AD0004A8A201C291C03F07FFA012E1AD1019A90
:101AE0000023824200DD131A6A4A116800290BD0D4
:101AF0006B49098809B28B4204DC6A49098809B23A
:101B00008B4201DA0021116061014919664A4900DE
:101B10008B523CE0022E10D15E4B1A68002A31D065
:101B20005F4A128812B2904204DC5E4A128812B2F6
:101B3000904227DA00221A6024E0544B1B785BB2F3
:101B4000013B9F421EDA63015B19574A59008A5EC6
:101B50004F49121ACB5C934200DA131C4D4A1168AC
:101B600000290BD04E49098809B28B4204DC4D494B
:101B7000098809B28B4201DA002111606101444AEF
:101B800049198B5463015B19474A5B009852002D39
:101B90009BD1002C8CD1454B1C786DE04449454AC3
:101BA000013CE4B20B5D115D3C4D6A46D17301937B
:101BB0000121EA8A181C494203F00EFA6B46029092
:101BC000D97BAA8A019803F007FA012E18D102994D
:101BD0000023814200DD0B1A2E4A116800290BD028
:101BE0003549098809B28B4204DC3449098809B2B5
:101BF0008B4201DA00211160314A61008B523BE0D7
:101C0000022E10D1234B1A68002A32D02A4A128899
:101C100012B2904204DC294A128812B2904228DAA9
:101C200000221A6025E0194B1B785BB2013B9F42F2
:101C30001FDA244B224A19576500CB43DB179C4619
:101C4000AA5E6346121A0B40934200DA131C114A33
:101C5000116800290BD01849098809B28B4204DCAD
:101C60001649098809B28B4201DA00211160154A30
:101C70001355134B6200D052002C8FD1013FFFB29D
:101C8000FF2F00D00FE705B0F0BDC0464800002090
:101C9000C8100020F40300203D0E00208C1300200B
:101CA0004000002042000020481500204110002084
:101CB000410E0020A9020020440000204600002020
:101CC00082130020511B002030B580230B4D0C4C9B
:101CD0005B00013B1A06092106E05000002A02DAE7
:101CE0002A1C424000E0021C0139C9B20029F4D18B
:101CF00099006250002BECD130BDC046B71DC10425
:101D00002404002070B5031C012040420022064C30
:101D100007E09E5C050E7540AD0065590002684005
:101D200001328A42F5DB70BD2404002070B5074CF7
:101D30000D1C23788602002B03D1FFF7C5FF01237A
:101D40002370A9B2301CFFF7DDFF70BD98000020A2
:101D5000F0B5254B002018600122244B52425A60F6
:101D6000234B85B01A1C0832D67F197D741E5A7B0E
:101D700065426C410C1BA4180294029D1D4C0092FC
:101D800025601D1C28352D785F7D6A1E03975742FC
:101D90005741039AD21B6260012E0BD0588D009BD5
:101DA000002B04D0013103F075F9208103E04900D4
:101DB00003F070F92081012D02D10023638106E038
:101DC0000B4B597D988D490003F064F96081084BF5
:101DD000029D5B8D69005800C01803F05BF9054B4C
:101DE00005B0D8601861F0BD041400202002002066
:101DF0007010002028100020F0B5294B87B0587DC6
:101E00001B7D011D0493274A00241CE0049E8D01C4
:101E10000536002303950596039FFF1802977D0062
:101E2000575B5453059E039FF51A7D1901956F006A
:101E3000D55BD453029F1C4E0025F555019F0133FD
:101E4000F555032BE8D1174D174E0139DED2144B4F
:101E5000C41C1B7D02300022A40180010633111C2A
:101E600003940490013B5C002F5B2A530398C41831
:101E70006700E85BEA53F15431551C1C40346400A0
:101E80002F5B2A530498C4186700E85B0748EA539D
:101E90001F1839703155002BE4D107B0F0BDC04692
:101EA0007010002000400040002000404020004012
:101EB00013B51B4A1B4B111C643109781B784B432B
:101EC00019499B090820095E8B4200DA0B1C111C82
:101ED0004731097805324B43D27F9B11934200DA98
:101EE000131C124A08201360114B1B689847114BB2
:101EF0000E4C1B78002B07D01F23009316200121C6
:101F0000221C052301F06DFF80232168DB05986901
:101F1000094A0905090902400A439A6113BDC046EE
:101F20008C13002010040020840100207413002072
:101F300050020020EC000020FFFF00F000B50B4B2A
:101F40000B4A0733DB7F002107E0013BDBB2181CA3
:101F50001030C000101881804181002BF5D1136032
:101F6000044A136001235B42536000BD70100020DF
:101F700004140020F8010020F0B5A0228FB0002149
:101F80009200C94803F026F9C84EA222002152004F
:101F9000301C03F01FF90F227F20FF21131C403358
:101FA0009B00013AF318D2B298711871D971597126
:101FB000FF2AF3D1BE4DBF4FAC68002200947B7D59
:101FC000BD4C009FA281BB4202DD01370097AF608C
:101FD000EA68002A01DB013AEA60B64C2B68217DF1
:101FE000994201DD01332B606B68002B01DB013B63
:101FF0006B60009F0023974200DAD0E02C686B688A
:102000009C4200DAC2E0009B6846023300789B01E4
:102010000493089069E0A94F013AD2B2CB5B0792D2
:1020200068460799009F838110329BB20192880015
:102030005F4391001A1C624302979F4F0692BF892B
:102040003018013705974268029F7118D219426013
:102050004A68019F9446069AFF009444604648608F
:102060006A461420805A944A02979081F719798918
:10207000079AB8880C3140320291C018910005913E
:10208000B88069460820415A7981059F0421F019DA
:102090004156009FB94200DD07719100711805207B
:1020A0000856009FB84200DA4F719100711806205F
:1020B0000856A04200DD8C719200B21807215156DB
:1020C000A14200DAD4710199CA00B2180627D15F83
:1020D0008B4206DD6846694680890978D080547253
:1020E00011726B68013CA34250DC049FE31C7448EE
:1020F000F9180A5C102A00D9FAE04900002A00D039
:1021000089E76E480F5A002FEBD00D92E1B2002202
:1021100003200291059201909C466A49019B6A48FE
:10212000CA5C0899C35C02988A18C31852B202327A
:102130005BB2920103336249D3185A5C6846531E5E
:1021400002730F2B19D80599002000290FD06A4679
:102150000C23D35699420AD0002201E08B4206D0CC
:102160000132D2B20DA8815C101C0029F6D169465B
:102170000A7B0DA90A540B7805930198002800D119
:10218000BBE0031C013BDBB20193C6E7009CEB689C
:10219000013C0094A34200DC30E78423F35A454C11
:1021A000444F647D002504943F7D002405970094EE
:1021B000002747E0741901948A3420880C21039485
:1021C00002F01AFF039A0099019B7418108084335F
:1021D00060680022995EC001019102F05BFF636CB0
:1021E00060600199D80102F055FFA31D6064FF33C0
:1021F0001A78049851B2884201DD01321A70631DC9
:10220000FF331A7851B2002901DB013A1A702F49C5
:10221000059863181A7851B2884201DD01321A70AC
:102220000734FF3423785AB2002A01DB013B2370C4
:10223000009C0137043408350094102F5BD07319CB
:1022400084331B88391C002BB4D1214831603D21D7
:10225000415C204A0191204B3C21415C1B78156870
:102260000091002B15D0013BDBB21C4E59008C5B5A
:1022700021B2002912DD181D194E4000865F14524C
:10228000002E2FDD019FB94206DA00218152002B7A
:10229000E9D10FB01560F0BD0135E2E7191D490025
:1022A00000275752DDE7C046C8100020B0020020CA
:1022B000701A0020701000208401002000400040AF
:1022C000002000408C5200009052000007010000E6
:1022D0008C130020F8010020411000208213002000
:1022E0000C020020009CA142D6DA00268652B8E7F4
:1022F00000220A54F5E61021A7E705996346002954
:1023000000D1EEE6352068440278002A00D1C1E011
:10231000362169440A78002A00D1B9E037206844A0
:102320000278002A00D1A4E004996148CB18152254
:102330001A5403210422B810029103920099021C3E
:102340004143624383B207910A930399594B09921F
:102350005B5C404206930B90A44602E00DA8C05C73
:102360000590059A0798013A52B2111C9200B218D2
:10237000546810318B00F3182418546009985C6875
:10238000C900241801985C6001307118C0B28A88B5
:102390004B890A9C01900698A218C3184B818A8029
:1023A000019B0B99029C7F18A342D7DB64460DA9C1
:1023B000CA5C009B391C7B436143013A52B2101C3A
:1023C000920001931030B218079005918300019993
:1023D0005068F3188446081C596860448C46059977
:1023E000506007988C446246C1005A6071188B880F
:1023F0004A89FF18069B8F80029F9A184A81002FF6
:1024000000D16EE601370197039F012301370021B8
:1024100006979C46039F58B2B84224DA0DAA515C35
:10242000421C0139C9B24F010297079307E0224FBE
:1024300005983B54069F101C0132BA4212D00DABD6
:10244000185C029F0138C0B243013F1805975F181E
:1024500063468842EBD81848C355069F101C0132CA
:10246000BA42ECD1079B0198191C01338342D1D1A8
:1024700037E6032204980E490392C31811325A54C6
:102480000399381C0A1C013A029202F003FE55E738
:102490000222EFE704980649C31812225A54054B4A
:1024A00000225B78029206930123039300237EE7C8
:1024B000002000404E000020C8100020F0B5431C52
:1024C0008DB0944F041CDBB210300B93C300FB188B
:1024D00003930E1C0790151C0422995E331C1033C5
:1024E0000993DB00FB18059104930421585EA300B7
:1024F000FB180A93B300059AFB185B680A99121837
:10250000434308920690059A486808995043181862
:1025100002F0C0FD0A9B00B2586007980999830039
:10252000FB1807938B00FB185B68069A07995343C7
:102530004868059A08995043181802F0ABFD079BAC
:1025400000B25860201C403080003818291C04223A
:10255000043002F001FE0498039AC3880621515EFC
:102560001AB2914206DA03980499C3804B7A4372F7
:102570000B7A0372221C331C10321033D200DB00A2
:10258000FB18BF189988BA88A4468A18BA80598956
:102590007A898A187A81F2B2101C013040B2059013
:1025A000059F600100213818998003920B1C5A4A3C
:1025B00006900EE0069C059F101974013C19141931
:1025C000C75C0494E45C2743049CC7540020E05497
:1025D00001330131039FC9B2C81940B20F28E9DDA8
:1025E00064466001911900238218AC4611E0A342B1
:1025F00005DA881B055D0F782F43075505E0A342D8
:1026000003DD0D78D05C2843D054002008700133DE
:102610002031B342EBDB65462878A44641B2023153
:102620000C1C61E0AF78A11E7BB2A20103330A91BA
:10263000069207904FE0D81E069909903748CA18AD
:10264000125C6946013AD2B2049210204256112A15
:102650003EDD012252420021079803920591042297
:1026600002932F49013AD2B28B560A99CB18023302
:1026700008932C4B09999B56C91803310791089967
:102680008B0107995B182549CB5C591EC9B20F29EC
:102690000FD849B2614501D0B1420AD1039B013341
:1026A00003D0039B8B4202D103E0039101E001219F
:1026B0000591002AD5D1059A0790029B002A07D0E0
:1026C000069869461022525C1449C01803900A54B7
:1026D0000137FFB20133032169567AB29142AADA77
:1026E000079801340130C0B20122AA5643B29A427F
:1026F00098DA2F7864467BB20233039354E0AB78C8
:10270000002258B2410006900748A44609180891D3
:102710002CE0C046B0020020C8100020002000407D
:102720008C52000090520000DA1A00200699039C97
:102730000331891804910498A4012018494905948B
:102740000790445C013C64B2B44202D10BAC2478E3
:102750000C54049C0598013300190490085C089CF3
:102760005100611840B24880DBB20132E9785CB2B6
:1027700048B28442DADD3C4B64461B78002B0ED015
:10278000AA783A4B891A52B2013200200131520024
:10279000D2180090C9B20720052301F022FB03994B
:1027A00001370131FFB203910122AA567BB29A424E
:1027B000A5DA2E4F631C3B80731C7B802A4B1B7851
:1027C000002B04D0072002210C2201F014FB284B1F
:1027D0004034A4001C190422A2563A800522A256B5
:1027E0007A800622A256BA800722A256FA801E4A92
:1027F0001F1C1278002A04D007200421002201F0B7
:10280000FAFA4036B600BF190423FB56174C238052
:102810000523FB5663800623FB56A3800723FB5644
:10282000E380114B1B78002B04D0072004210022E9
:1028300001F0E1FA0023EB5623800123EB5663807D
:102840000223EB56A3800323EB56E380064B1B7851
:10285000002B04D007200421002201F0CCFA0DB097
:10286000F0BDC04600200040EC000020DA1A002035
:10287000B002002010B50B78002404575AB29442DD
:1028800000DD03704B78012404575AB2944200DAF9
:1028900043708B78022404575AB2944200DD83704F
:1028A000CB78032141565AB2914200DAC37010BD71
:1028B000F0B58BB00024231C10334648DB00C3184E
:1028C00004215A5E002A00D17EE05F7A1B7A0293CF
:1028D000029A013B02329201079271E002337A1CA4
:1028E00003939B017E1E0692049365E0049AF01CFC
:1028F000394B00901118CD5C6DB2013D0F2D5AD8A7
:10290000AC4258D0354B4900C85A6946C882211C90
:102910001031CA002F498C46944462460621525E0B
:1029200001922F4AD18D019A904244DB079851437E
:10293000844600988911844460464200D25A9142EC
:1029400039DA0498FA1C82185200D35A994232DAC2
:10295000A54202DA231C2C1C1D1C2B1C1D494033D4
:102960009B00CB18211C1B4A403189005B688918E9
:10297000043109A80993FFF77DFF08216846221C4E
:10298000184B085A10321349D20018805F808A18F9
:10299000D2889A806A46D28ADA80134B1B78002B41
:1029A00004D007200421232201F025FA201C291C31
:1029B00009AAFFF783FD0236069B9E4296DD039B24
:1029C000029A0132934289DD01340F2C00DC72E758
:1029D0000BB0F0BDB00200200020004000400040DD
:1029E0008C130020DA1A0020EC00002008B500F05B
:1029F00003F800F02BF808BD38B500210A220D4875
:102A000002F0E8FB0C4B00220733DB7F0B49101C64
:102A10000B4C0BE0013BDBB21D1C1035ED004D19DA
:102A2000AA80084DE054EA54074DE854002BF1D138
:102A30000B6038BD9C0100207010002004140020A1
:102A4000E801002078130020C41A002070B50C4C57
:102A5000012300255B426360291C0A2625600522AC
:102A6000084802F0B7FB291C321C074802F0B2FBF1
:102A7000201C291C321C083002F0ACFB70BDC04683
:102A8000F8010020511B00201C1000204943404346
:102A900040187047F7B50121494210221D4802F045
:102AA00099FBFFF705FF1C4B1B6898471B4C002345
:102AB000261C2360843601931F1C1D1C0021725E9E
:102AC000FBB2002A1DDD226801322260114AD55571
:102AD0009D4214D00199AA000B195968A218281C0C
:102AE000516010305A6C8300C000E31820185A60FF
:102AF0000430311C082202F02FFB00233380013503
:102B0000EDB2019A0137043208360192102FD5D167
:102B1000F7BDC046F80300204C020020B0020020A0
:102B2000F0B59C4A9C4B918987B0198012895A80D4
:102B30009A4B1B78002B04D016200221652201F04D
:102B40005AF9974B1A68974B0733DB7F934200DDA6
:102B5000131C954A0121136049421022934802F048
:102B600039FB9348FF21402202F034FB8D4B0024B7
:102B70000733DB7F02938F4B1B6803938E4B5B6B9A
:102B80000493874B1B68059343E08C4D2B5D002B12
:102B90003ED08B4EA300F758039D049E894BAF4057
:102BA0006200BF19D31801267642002501931FE069
:102BB0002B1C10337A48DA0082180421525E002A56
:102BC00014D00199AA00821850688A889B00801A44
:102BD000734A00B2D318019A5968138BC91A09B203
:102BE000FFF754FFB84201DA2E1C071C0135EDB285
:102BF000059B9D42DCDB751C0AD06C4B6C499857D9
:102C0000B200013002D08858B84201D98F509C558B
:102C10000134029EE3B2B342B7D30023604A624953
:102C200034E0624FF85C44B201342DD0C0B284006D
:102C300001940D199E001C1C02961034961976689A
:102C40000394A400A4466E609444061C64461036A7
:102C50006568B700CF197D60039FF600FD008E19EF
:102C600055190436043590CD90C61D1C4035AD0075
:102C7000403055196D68800008184560029C4C482A
:102C8000019D20584E4EA8510133DBB2106883429B
:102C9000C7DB0023444949E04448C056013043D1D2
:102CA000181C1030C00012180427D25F002A3BD035
:102CB00045480022C57F414E33E0B75C002F2FD13D
:102CC000D7007F18843700243F5F002F28D1374C6E
:102CD0009D00E0543248940045196D680C196560F8
:102CE000151C10350195AF001D1C1035AE00B44603
:102CF000844466467468019ECF197C60ED00F40040
:102D000045190C1904340435C0CDC0C41C1C403412
:102D1000A40040320019920040688A18506003E015
:102D20000132D0B2A842C8D30133DBB21C4A1068CA
:102D30008342B1DB1B4B1D480733DA7F234BFF2453
:102D40001D1C10351978914202D2415C197000E0C7
:102D50001C700133AB42F5D11D4900230B601248B2
:102D6000191C10E0013AD2B2141C1034E5004519C8
:102D70006D89A94200DA291CE40004190427E45FE4
:102D8000A34200DA231C002AECD1114A07B051609B
:102D90001360F0BD84010020DA1A0020EC0000204E
:102DA000B002002070100020041400200010002049
:102DB000801A0020540000208C130020E80100201D
:102DC000481300204410002077100020F803002052
:102DD00068020020F0B5274B27490733DB7F274ADD
:102DE000274841E0013BDBB21E1C1036F5004419B8
:102DF0000427E45F002C1CD04D1904242D5F002D06
:102E000017D09F00CD19C7196D687F685C00EF1B54
:102E10007F107D19B6001719BD808D1986196D6850
:102E200076681F1CAE1B0C3776107F007519BD52DB
:102E30000FE0114F9E00BE1976685D005519AE80F7
:102E40001E1C1036B6001D1CBE190C3576686D00B0
:102E500056531D1C084E1035ED00751904242E5FC5
:102E6000751EAE41074DEE54002BBBD10B681360AD
:102E7000F0BDC04670100020041400204410002053
:102E8000BC0E0020E801002008B5104B1A78104B4A
:102E9000002A09D00F4A10494832128849689142E5
:102EA00007DB01221A7004E00C4A1268002A00D1E4
:102EB0001A701B78002B07D0094B1B78002B03D00E
:102EC0000020372100F080FF08BDC046AE02002080
:102ED000F50100208C13002068020020041400205B
:102EE000EC00002038B5041C081C002A07D054430D
:102EF0005843D11820184D10401902F0CBF838BDB6
:102F0000F0B5504B85B00733DC7F4F4E7DE0013C80
:102F1000E4B2251C1035E90051180420095E00298F
:102F200067DD211C1431490059180420095E00296D
:102F30004BDD464B1A5D464B002A02D145331F78C4
:102F400001E046331F78A300F3185B6868460093DE
:102F5000231C10339B00F3185B68019300F08AF880
:102F60003C4D6300EB1804229B5E0293231C0C3340
:102F70005B005B5F02A8039300F07CF8009A029B61
:102F8000291CD31ADA179B185340BB4207DA019A5F
:102F9000039BD31AD8171B184340BB4229DBA2005E
:102FA000B21852686300CB189A80221C103292002B
:102FB000231CB21852680C335B00EA52234B1A5D93
:102FC000002A16D101221A5513E0AD00A1005118B4
:102FD000521948685268204F204D61004A53C85327
:102FE00059188880211C0C3149005A52174B002275
:102FF0001A55221C14491032231CD2008A1814338B
:1030000014495B009288CB189A800F4A114B002C10
:1030100000D07CE7106812491860124B1A78124BE6
:103020001A70124B1A1C70C970C230C930C201220A
:10303000002802D11A68531E9A410D4B05B01A7030
:10304000F0BDC04670100020041400209C01002038
:103050008C130020A80100205A0000206E000020E0
:10306000F8010020F5010020F601002020020020D8
:10307000F7010020F7B5354D354F041CBA8D69684E
:103080000068C9015043009202F004F80A23EE5E82
:103090002968361826600823EA5E606801927B8DF5
:1030A000C901584301F0F6FF019A10182A696060BF
:1030B000964207DA35373B78B61A5E43B611921955
:1030C00022600CE0009B9E1B964208DA35373B7865
:1030D000B61A5E43009BB61192199A1A2260EB68E9
:1030E0001B4A984208DA111C33310978C01A484348
:1030F00080111B1863600CE0518D081A984208DAA1
:10310000151C34352D78C01A684380111B18C91A54
:103110006160131C313321681B78994205DD928D63
:10312000D01A814202DB013AD31A2360084A61684F
:10313000131C32331B78994205DD528DD01A81421F
:1031400002DB013AD31A6360F7BDC04628100020A5
:1031500070100020EFF30880704700BA704740BA43
:103160007047C0BA704770B5002816DAC0B20F2396
:103170000340083B124A9B089B009B180322104007
:103180009040FF225D68141C84408901A5430A40D9
:103190008240281C1043586011E003248208094B28
:1031A0002040C032A0409200FF24D558261C864003
:1031B0008901B5430C408440281C2043D05070BD89
:1031C00018ED00E000E100E070B50F248023DB057E
:1031D0002040DE69050407480C4030402843D86190
:1031E000D869054924050140013A2143D2B2D96189
:1031F000DA7770BDFFFFF0FFFFFF0FFFF7B5802309
:10320000DB0598491A680E2000221A6008600868D9
:103210009C6898609448954E02600068DC68D860AD
:10322000FE249348E401046000681C691861586931
:103230005A6198699A61D869DA61186C8020C00176
:103240001864586C5A64986C8A489A640260A0208A
:10325000C00584688260186C874A042402401A649E
:103260005868864A02408020C00202435A605A6869
:103270008020C004324002435A60186880229205C0
:1032800002431A607E487F4A10607F4A10682043DC
:10329000106010680224A04310607C4AD27E002A8D
:1032A00006D10A68082082430A600A6899689A6011
:1032B00000F0B2FC764B8024E4050533A169DA7F87
:1032C000744B12040B401343A36100F017FD724BC3
:1032D000C022520004260125022008219D501027FB
:1032E00098509E502020995040219F5098509950BE
:1032F000C02292009F58FF208743C02007439F5061
:103300009F58381C654F384098509858071C64489F
:103310000740019780273804019F384398509858F8
:1033200007023F0A27439F50C12292009858071C6A
:10333000FF2087430F439F509F58584838408027AD
:103340003F02384398509858554F38409850554A46
:1033500010693043106162B6082202201E601D60B1
:1033600018601A60504B20201027DF67D867D96794
:1033700000F0D6F9454BA169187D3F220630104078
:1033800091430143A161597D8819294041180A40A0
:103390001102A069454A02400A43A2619B7C002BAE
:1033A00027D0334B31491A680227AA40520E1543E1
:1033B0002A061D682D480D4015431D601A682169B5
:1033C00022611A685200520E17433A061F680740DE
:1033D00017431F601A68216922611A685200520E51
:1033E000164332061E68064016431E601B6822699B
:1033F000236100F0D7FB1E4BEE201A68C0012C4958
:1034000010401A680A4002431A6018688022D205E8
:10341000146910611C681868A404A40E24020840F2
:10342000204318601868146910611868BE24E4010C
:103430000440186808402043186018681469106137
:103440001C68DE20C00120401C6821400143196037
:103450001B681169136100F0C9F8164800F030FAD2
:10346000F7BDC0460000002004000020FFFFFF80E1
:103470000C00002008000020FFFF7FFFFFFF80FFFF
:10348000FFFFFF0014E000E010E000E070100020FB
:103490008C130020FFFF00F000E100E0FF00FFFFC1
:1034A000FFFF00FF00ED00E004E100E0FFC0FFFFD0
:1034B000FF80FFFFB80B0000F8B5164B0F1C1B7800
:1034C000041CAA2B23D1144B00255D57134B00205D
:1034D0001856134B2E181B785BB29E4217D1231C33
:1034E000CC3B401B25215843494201F0D3FD4019F4
:1034F000C3B2EDB2ED18B54209D10A4A1C1992784F
:10350000E4B21018C019FF2801DDFC43E4B2201C0E
:10351000F8BDC046287C0000297C00002A7C000001
:103520002B7C0000C0100020064B7F2219688023EE
:10353000DB05186C013990431140021C0A431A64E0
:103540007047C04618100020074B01211B7F7F22C7
:103550005BB299408023DB05186C01399043114020
:10356000021C0A431A6470477010002030B51A4AD2
:103570001A4B11881A4CC9188023DB0589B2188CA4
:103580001984598C002159845088164D011989B22B
:103590009A8C9984421EDC8C92B24419DA84A4B2CB
:1035A0001D8D1C85104C001980B25C8D5885988D3E
:1035B0009985D88DDA85188E1986588E5A86988EF8
:1035C0009986D88EDA86188F1987588F5A87988FE0
:1035D0009987D98FDA8730BD60020020FF0700008D
:1035E000FF030000FF050000FF01000010B51B4BAA
:1035F0001B495A7C1B4B002A15D01A680420520420
:10360000520E0243186812020140114319601968F2
:103610008022D2051069116118687B210840196861
:103620007F24A14314E0186804224006400E104392
:103630001A687F24A24302431A6018688022D205C8
:10364000146910611C68F620C00120401C682140EC
:10365000014319601B681169136110BD70100020CF
:10366000FF80FFFF0C00002000B572B60F4B012257
:103670001A700F4B5A7C0F4B002A07D01A68F6219C
:10368000C901114018680C4A024005E019687B2204
:1036900011401A687F2082430A431A601A68802307
:1036A000DB0519691A6162B600BDC0468C000020B6
:1036B000701000200C000020FF80FFFF00B572B6E4
:1036C000104B00221A70104B5A7C104B1968002ABC
:1036D00008D049040422490E114318680C4A090213
:1036E000024006E049060422490E11431A687F2071
:1036F00082430A431A601A688023DB0519691A613C
:1037000062B600BD8C000020701000200C0000206C
:10371000FF80FFFF014B18787047C0468C000020E7
:1037200010B58023DB05196C8022D2010A431A648C
:10373000164A802110684900014311601268996897
:103740009A60196C802212020A431A64196C104A9A
:103750000A401A640F4A7F21107B0F4A0840146800
:103760000E4900042140014311601068A021C905E1
:103770008C68886014680A48204010601268886865
:103780008A60196C074A0A401A6410BD00000020C4
:10379000FF7FFFFF7010002008000020FFFF80FF68
:1037A000FFFF7FFFFFBFFFFF044B01221A70802342
:1037B000DB05996C914399641A70704710000020E2
:1037C00070B5144B01221A70134B144D5C7D197D9A
:1037D000023403310B1C0022A401114E981902700F
:1037E000E018013B42550D48012BF6D10A4B00224F
:1037F0005B7D023306E00B4E9B019D195B182A701E
:10380000C254231C5C1EF6D280230122DB055A70B1
:1038100070BDC04611000020701000200020004044
:10382000402000400220004000B5064B72B61A78D6
:10383000002A04D0C046C04662B630BFF6E762B682
:1038400000BDC0461100002038B5094B09495A781F
:10385000DC785143084B051CC918084801F01AFCD4
:10386000064B291C01345843A14001F013FC38BD1C
:10387000C010002044FEFFFFFE24020040420F0063
:1038800000B5064B72B61A78002A04D0C046C0466E
:1038900062B630BFF6E762B600BDC0461200002037
:1038A00000B5064B72B61A78002A04D0C046C0464E
:1038B00062B630BFF6E762B600BDC0461000002019
:1038C00070B51349134B04241960134B134D1A6838
:1038D00022431A601A680224A2431A601A6801245B
:1038E00022430F4C1A60002222600E4A11602E788B
:1038F000ED7870430135E840091A116020681168BD
:103900008842FBD21A6801218A431A6070BDC04602
:10391000FFFFFF0014E000E010E000E0C010002016
:1039200018E000E05402002000B50023054A984248
:1039300001DB537F4343127F013052B2904018188D
:10394000401800BD70100020F0B58DB0444B0B90B6
:103950001D78002D13D09D7B002D10D0414B997800
:103960005A7898785B78C01A6B08914201D9C018D0
:1039700001E0DBB2C01A291C01F08CFB051C3A4B9C
:103980009E78013E002761E0391C301CFFF7CCFF18
:10399000029035483249C078314A0390497C324B15
:1039A00004911278304805925B782D49069300788F
:1039B0002B4A0790097B01340891527B79010992C7
:1039C0002A4A89198A180A9400230192AC4636E0E3
:1039D0000021741C28D0019C5801215C009004989F
:1039E000059C4118C9B2002C09D02520051C7D4337
:1039F00058431F4CAD192C19205C604409180B9CCE
:103A0000C9B2002C10D00698824202DA079CA64266
:103A100001DB099803E01748089C805D20184118D5
:103A2000009C0198C9B201551348029C805C620158
:103A300040B240101018114A81540A981B1803997B
:103A4000DA198A42C4DB01376546FFB20C4A1C24EE
:103A50001457A74298DD013EB31C93D10DB0F0BDC1
:103A60008C130020C01000203D0E0020C810002044
:103A7000805500001D590000240E00200010004059
:103A800070100020F0B5C31C8BB0DBB2061C059192
:103A9000002707936AE03A4C002009902680391CE1
:103AA000301CFFF741FF0C2203906946515A354BF9
:103AB0006180DB78344C410101200693334A0023B6
:103AC000091984460EE0505DAC1C40B24010E4B2CF
:103AD00008188472505D644640B2844004982343C1
:103AE00001302D1806988542EDDB294C0993237887
:103AF000002B04D000200221692200F07CF92378F9
:103B0000002B06D00020012109AA0923009000F013
:103B100068F9039C1F4862011318596809996C469B
:103B200059601C201C49045D52181471059C002C1E
:103B300017D01A4A517B1A4A00290AD0701C915D8D
:103B4000105C0122141C49B240B28C408240A21881
:103B500004E0925D012152B291400A1C19681A607A
:103B600002E0059C1A681C600137FFB20B4B3D1C3C
:103B70001B7F5BB204939F428DDD0BB0F0BDC0464E
:103B8000DA1A00203D0E002000100040240E002014
:103B9000EC000020181000401010004070100020B1
:103BA000481A002038B5174C607800F0D1F880230F
:103BB000DB05E1785A68C907520052080A435A6087
:103BC000207903225D681049104080032940014399
:103BD000596060790D495D68104000032940014338
:103BE0005960A0790A495D6810402940800201436C
:103BF0005960E17958680A401102064A02400A43B6
:103C00005A6038BDC0100020FF3FFFFFFFCFFFFF0D
:103C1000FFF3FFFFFFFCFFFF70B5304B304A196820
:103C200080240A401A601A68E4052E4DA168A2603B
:103C3000A97A0322186811402B4A890402400A43DA
:103C40001A601A68A168A2601968802252030A43A8
:103C50001A601A68A168A260697A18680726234A60
:103C60003140024049050A431A601A68A168A260FF
:103C70001968A02209010909D2050A431A601968C6
:103C8000F02212050A431A601B68A268A360FFF7BE
:103C90004BFC636C164A042013436364E3690F22F0
:103CA000934302221343E361E369F02293433022FA
:103CB0001343E3610F4B05211A79013AD2B26277BF
:103CC0009A79FFF781FAFFF751FCEB790A4A1E4017
:103CD0003302266C16401E43266470BD000000208F
:103CE000FFFFFCFF8C130020FFFFF3FFFFFF1FFF10
:103CF000FFFF0F0060020020FFF8FFFF38B5114BF7
:103D000000211B68013B08E00F4C580109220019F3
:103D10008418A172013AFBD2013B002BF4DA012096
:103D200040420021FFF7AEFE0024084D05E0201CB4
:103D30000121FFF7A7FE0134E4B2AB78A342F6D825
:103D400038BDC04618100020001000403D0E002075
:103D500000B58021C9050B795A1ED2B2984209DDFF
:103D600000E00B710133DBB28342FADD04E00A713B
:103D7000013AD2B28242FADA00BDC04608B50C4A16
:103D80000C4B0D4901E001CA01C38B42FBD30B4B25
:103D90000B49002200E004C38B42FCD3FFF7DAF9A1
:103DA000084B002200E004C38342FCD308BDC04698
:103DB000D452000038000020840000208800002039
:103DC000581B0020441D00201FB501235B420093B7
:103DD000002302911A1C191C019300F019F805B078
:103DE00000BD1FB506AC2478009300230193029414
:103DF00000F00EF81FBD1FB50523009302920023AB
:103E0000024A019300F004F805B000BDDA1A002060
:103E1000F7B5151C0193002208AB9A5609AB1F7821
:103E20000AAB1E78224B0C1C1B68012100930B1C53
:103E300083400098184239D01E4B501C08D11E4AAE
:103E4000032010705A78072082431143597010E004
:103E5000002C26D01849052008705878072188437F
:103E60001101022202430F2002400A435A70DC7003
:103E70001F71104B9E70FFF7F7FBFFF74BFC0028FC
:103E8000FBD1002C0DD00D4E041C3560FFF7ECFB70
:103E9000FFF740FC0028FBD1019B0134ED18BC4228
:103EA000F3DB044B07215A788A435A70F7BDC046AA
:103EB000380000204C1B0020FC130020D41A0020E6
:103EC000F7B54F4B1B78002B03D000204F21FFF795
:103ED0007BFF4C4A012313704B4A4C4E13704C4AE3
:103EE00013704C4B00225C7D019239E0013CE4B23E
:103EF0000121F28A201C494201F06EF8464B620013
:103F0000D052F28A738A071C9A4202D280235B0144
:103F1000C718404B1D7D21E03C4B013DEDB25A8A54
:103F2000201C291C01F058F83A4A0090D37C002B41
:103F300009D0364B691C5A8A201C01F04DF8009AB2
:103F4000101840100090009A0021BB1A019AD21854
:103F5000019262015219314B9200D150002DDBD1F8
:103F6000002CC3D12E4B01980022995E01F092F8EB
:103F7000758B071C2B4C002D02D14023236009E0D8
:103F8000B18B681A8001791A01F084F86E2800DD7F
:103F90006E202060244B1D805F80194B1B78002B06
:103FA00004D0002002215022FFF725FF174B642583
:103FB000D87F5E789A79D97B1C4CDB796843002ED8
:103FC00009D042431748063300689940504301F036
:103FD00061F8206004E05043994001F05BF82060F4
:103FE0000A4B124CDA7B2068197C504301F052F8DE
:103FF0000021606014220E4801F0ECF8F7BDC046C5
:10400000EC00002020040020401000208C13002031
:10401000A8020020701000201E1B00202404002095
:10402000261000203C100020DA1A00204402002054
:1040300094020020F8B5324A537D47E0304A147D9F
:1040400041E0304B013CE4B25A8A301C211C00F0A4
:10405000C3FF2C4A051C5378002B0FD02A4A137833
:10406000002B02D0135D5D4304E07201274B12194F
:10407000D35C5D43264B1B685D432D13204BDB7CDB
:10408000002B19D01F4B671C5A8A301C391C00F0BA
:10409000A3FF1C4A5378002B0CD01B4B1A78002A24
:1040A00002D17301DF19194BFB5C5843184B1B6895
:1040B000584300132D186D107201164B12199200FF
:1040C000D1586D18D550002CBBD1331C5E1EF6B2F2
:1040D000002BB3D1104B114D1C78114E0CE0094B45
:1040E000013CE4B29A8A285D315D00F075FF0D4B0A
:1040F000A200D1584018D050002CF0D1F8BDC046D5
:10410000701000208C130020FA0000203D590000A0
:104110003C1000202404002041100020410E00200B
:10412000A902002094020020F0B5254A85B0537DF5
:10413000127D0192234A0132D27F029213E0039A48
:10414000013CE4B21619204BB500E858029900F082
:1041500053FF1D4A00041D4BA85076000022F25266
:10416000002CECD13B1C5F1EFFB2002B03D07B0167
:10417000019C0393F4E7164B1B78142B04D0124BCD
:104180000833DA6F134B1A60134B144D1C780D4B28
:104190005A1CD67F5F780FE0013CE4B2A300585967
:1041A000311C00F029FF002F03D00D4A135D584346
:1041B0008011A3000004E850002CEDD105B0F0BD43
:1041C000701000208C1300202404002048150020CB
:1041D000B80E002070020020411000209402002040
:1041E00010100020F0B5CD4CCD4D23780022A3B0A7
:1041F0002A70002B00D020E3CA4F3C78002C00D15D
:1042000085E2C94CC94D21941F95C94E0023C94D63
:10421000FF22336173603360738133811F9E2B6093
:10422000AB606A60EA60F37C002B00D067E1727DCE
:10423000C14DC24B1F9E1B78219C5BB21A93367DE9
:104240002D682096648A219E0C9476781F9F0D9687
:104250001095FF7C219C0E971A9DA47F1023219E10
:104260005B1B0F941B932123F356B1490B9324231B
:10427000F35C09681393F77A22231497F356013AF3
:104280001C931291AA4BAA4C1B69AA4D1193248925
:10429000AD68A84E08941895A64FA64BA04CA44D07
:1042A000F6683F6824785B686D681796A04E16978D
:1042B0001D9419931E95D2B276890A920A98002706
:1042C000159607979E4CFF287BD0071C0237BF012D
:1042D000209B4001BC46002B6CD0013BDBB2DD1CB7
:1042E00061464A195200125B0C9EB24202DA8027E4
:1042F0007F01D2190D9900290BD092490E78002E1A
:1043000000D050E29049C618715C4A43109E724337
:1043100012130E9F002F00D048E28C4EC718B90030
:1043200089590F9E090C002E00D057E1884F521A70
:104330000597059EC71891B27F000991F153002A95
:1043400000DA64E10B9FBA4206DBD61B129FBF194D
:10435000119E1297013611966F4620370026BE5FD8
:10436000B24200DC0899139EB24211DB189F0A9EEC
:10437000B74200DA1896179F0A9EB74200DD1796DB
:10438000169F9F4200DA1693199EB34200DA1993E2
:10439000149FBA4201DD01261D96079F65446D00FA
:1043A0002E5BBF1824266A46B25A07972A530891F3
:1043B000002B92D10A9B013BDBB20A930A98FF289B
:1043C00083D1644B6E462027594C0022995EBF5B17
:1043D000129B119D236027812561189A554C179DCA
:1043E000169E199F2660E5606760A2601DAC257867
:1043F0004B4C4F4F257015AC1E9E25887E6007984C
:104400007D8100F047FE454E78613378002B00D067
:10441000ECE1484FBA68FB689A4200DA72E1396809
:104420007868D31A091A01330131994200DA191C4C
:104430003A4D494C494A2B78C9B2099411702180F0
:10444000002B00D0DCE1464F01230A973B70454D1D
:10445000454E2C7800233370002C00D1EEE03E4F07
:10446000013CE4B20997219E21E07378002B03D030
:104470003E4B1B5D5D43AD113D4BA200D258252341
:10448000F35C120CAD1A9D4202DB0A980123037003
:104490003549384A0B78D5539D4200DA1D1C324FFE
:1044A000631E3D70DBB2002C00D1C7E01C1C324DF6
:1044B000324F295D3B5DB28A081C0791191C089395
:1044C00000F08AFD174F051C3B7809986700C5531B
:1044D000002BCAD10899B28A079800F03DFC6A21E6
:1044E000735E984203DC6C22B35E9842BDDA244BC3
:1044F00001201B689847002423B0201CF0BD1F9F9B
:104500007C7D002C00D15EE1134E013C397DE4B28C
:104510000996094D0A4F219E35E0C046EC00002067
:104520007E010020F40000208C1300207010002079
:1045300084010020701A00203C1000204D00002053
:1045400000400040FA0000203D59000024040020F3
:104550004815002026100020DA1A00200804002048
:10456000AE02002041100020100400201010002096
:104570009402002082130020410E0020A902002096
:10458000940000206446728A201C00F025FD1F9ACA
:10459000A31C117D620194469B01CA1C9B185B0001
:1045A000DA5B0022DA5373788C44002B0BD0AE4BCD
:1045B0001A78002A00D016E1AC4B6246D35C58430F
:1045C0002B6858430013621ED2B29446099A6300C6
:1045D000D052002CD6D11F9C627D2AE6A44E7F00CB
:1045E0000596F75F1B9E06971A9F5743069A0997F1
:1045F00057187743099EF2191211521AC718059ECF
:1046000091B27F000991F153002A00DB9AE61C9ECB
:10461000B24203DC1E9F961BBF191E9715AF0026E2
:10462000BE5FB24200DB159965446D002E5B079EAC
:104630000027B61A07962F5315914CE68D4C237818
:10464000002B00D0E2E08C48817807788C46B94294
:104650001CD9C2788949131C013BDBB2079208932D
:104660000025079B002B0DD0FC1C089B00E0031CC1
:104670009A1C920112195200581E565AC0B2555235
:10468000002BF4D10137FFB2BC45EAD87A4C65461D
:1046900001356678E0787949EDB20027002D13D016
:1046A000013DEDB2B042F9D9AC1C331C07959A1C00
:1046B0009201121901335200DBB2555A57529842F7
:1046C000F5D8079D002DEBD16D4B1B78002B05D045
:1046D0006C4B01241B68002B00DC0DE7654E0124A8
:1046E0003378002B00D107E71F9F0523397D009306
:1046F0007B7D03200193562302935D4A4023FFF7FD
:1047000087FBF9E6604C00230A9423709FE65F4E16
:104710005F4D2196219F5F4E287831787A8A00F08C
:104720001BFB6623FB5E984200DDE0E66823FB5E30
:10473000984200DADBE6584B9C461F1C1B78002B86
:1047400016D1564B564C19781F940A1C0C32520045
:10475000A218907901312870D279C9B232701970DB
:10476000052900D051E5012333702B703B704CE5D7
:104770002A78414B01325978D2B250B201392A70AD
:1047800088420DDB32781878531CDBB201215FB20E
:10479000421E29703370974218DA414D1F9534E557
:1047A0003F4C1F9431E5C95C4A43AFE53D490A9E41
:1047B0000691069F71007F5E0997069F7A520999BC
:1047C00052185210A9E5384D002232E5344F6046A8
:1047D0003B1C1F971833DB79BA7F33702F4B047063
:1047E0002A70197011E55B5C5843E9E63A1C7623A0
:1047F00000931432032001210523FFF7F2FA08E6A3
:10480000042001216722FFF7F6FA1CE6274D052355
:1048100029780120234A5A240094FFF7E2FA154E22
:104820003378002B00D10EE76D2329780320009305
:104830001F4A0523FFF7D5FA05E70F4B04245D78DF
:1048400019780120802300941A4A5124019502947A
:10485000FFF7DEFA074E3378002B00D1CCE40120BD
:104860007221FFF7B1FAC7E4FA0000203D590000B9
:1048700048150020EC0000203D0E002000400040C4
:10488000F9000020A8010020AE0200208C130020B7
:10489000A80200204010002020040020461B002019
:1048A00070100020DA1A00203C1000204110002077
:1048B0008213002006410040F7B50B4C0B4D2468D5
:1048C0000194002403E0765B8018A419C918861CA3
:1048D000B601B446CF1C67447E00775BBC46019F9F
:1048E000BC45F0DC201CFEBD7413002000400040DD
:1048F00070B50E1C0499051C0B4C00290AD002321D
:1049000003339201D2185200A35AA05A584300F020
:10491000C1FB011C0235AD010336AE19760089B228
:10492000A35BA15370BDC04600400040F0B5564D9A
:104930008BB06C7D6F4603940C222C7DD35DFF26DB
:104940007B77FB775149042208A83E767E76BC76B9
:10495000FC763E77BE7700F0FFFB09A84C490422A5
:1049600000F0FAFBAB7B002B23D0039C002C20D063
:10497000013C201C002100220123FFF79DFF0121A3
:10498000221C061C4942201C00230096FFF7B0FFA2
:10499000297D01230139201C00225B42FFF78CFF97
:1049A000297D221C00904B1E201CFFF7A1FF013C1B
:1049B000DFD2EB7B002B24D02C7D002C21D0013CBE
:1049C000211C012200230020FFF776FF061C012096
:1049D000211C231C404200220096FFF789FF687DBE
:1049E0000122211C524200230138FFF765FF6B7D35
:1049F000211C00905A1E181C231CFFF779FF013C54
:104A0000DED2AB7B002B3DD0EB7B002B3AD00327D3
:104A100007A909AACE57D35706ACE557F418291CA5
:104A2000201C00220394FFF747FF291C041C039A53
:104A3000301C2B1C0094FFF75BFFB31CEA1C08A979
:104A40009B019B18CA575B00AC181249039304944E
:104A50005C5A301C049900230594FFF72DFF291C94
:104A6000041C321C049B301C0094FFF741FF039A86
:104A7000084B0599D45AD35A6418064B6408D4528B
:104A8000013FC5D20BB0F0BD701000206452000091
:104A90006852000000400040F0B58BB0051C089142
:104AA00009920793411C18D1464EF478013CE4B2B8
:104AB00010E00121201C079A494200F08DFA424B78
:104AC0006200D052414AE3019B181A88013C00223F
:104AD0001A80E4B27378A342EBD93D4B3D4F0026D8
:104AE0005C7D05960496039743E0013CE4B26B1CA1
:104AF00006D063015B19384A9B00D35A069303E042
:104B0000314963005B5A069301214942079A201CF0
:104B100000F062FA6A4618218B5E3049C31A6200BF
:104B20005352D9175B184B40F618691C05D0610128
:104B30004919294A8900885007E0234950522349DE
:104B4000E2015218118800211180E20707D503996C
:104B5000994200DD0393049A9A4207DB09E09F42E1
:104B600000DD1F1C0599994202DB02E0049300E07E
:104B70000593002CB9D101350CD1194B1B78002BB2
:104B800008D0104B0120D9785B2300930E4A0423F0
:104B9000FFF727F9089A04991680039A8B1A05994A
:104BA000CF1B9F4200DA1F1C099A0D4B17801B7800
:104BB000002B05D0064B0A20597D5C22FFF71BF91C
:104BC0000BB0F0BD3D0E00201E1B00200441004034
:104BD00070100020FFFF000024040020DA1A0020DB
:104BE000EC000020F0B54F4B89B05A7D05921B7D3B
:104BF0004D4A06934D4B52695A331B785BB29A402B
:104C0000002A00DC01224A4B00255D57059C4949DA
:104C1000494EAD00944611E0079F013BDBB2FC1802
:104C2000A2006700454C3F5F64466743AC59674349
:104C300054583C195450002BEED1041C601EC0B2D5
:104C4000002C03D04701069B0797F4E73C4B394AF9
:104C50001E68131C0833DD6F3A49701BC317C71851
:104C60005F40324B3F140433DB7F9F420FDB364BF8
:104C700036142D0C000C1E805D8098800B78002B64
:104C80004CD0201C03212422FFF7B5F846E00B7816
:104C9000002B0BD0234B059C197D08230093602328
:104CA0000293022080230194FFF7B2F8274B1E4A9B
:104CB00019781E4B52695A331B785BB29A40002A0E
:104CC00000DC01221A4B00255D5721480B1C1A4EAF
:104CD000AD0006920DE0013BDBB21E4A5F00BA5EFA
:104CE000069F9C005743AA597A4327589446674425
:104CF0002750002BEFD1134C2378002B06D06123D3
:104D000000930220124A0823FFF76BF8237801244E
:104D1000002B03D002207B21FFF756F809B0201C9E
:104D2000F0BDC04670100020840100208C130020CC
:104D30004A000020240400204402002048150020DE
:104D400070020020EC000020DA1A00204110002040
:104D5000940200208213002010B5074B4400E45A4F
:104D6000064BDB8A934202D280235B01E41800F0F9
:104D700033F9201A10BDC0461E1B00208C130020E2
:104D800010B59CB07024221C6846174900F0E4F965
:104D90006946221C154800F0DFF96946221C1448B8
:104DA00000F0DAF913495022134800F0D5F91349FD
:104DB0002522134800F0D0F905241249192212487F
:104DC00000F0CAF9221C1149114800F0C5F9221C53
:104DD0001049114800F0C0F91049221C104800F099
:104DE000BBF91CB010BDC04658540000480E00204E
:104DF0008C1300200854000070100020385500006B
:104E0000481A00205D550000240E00207655000051
:104E1000A90200207B550000410E0020DD5B000050
:104E20001010002008B50449044B41430448C91838
:104E300000F030F9C0B208BD44FEFFFFFE240200BE
:104E400040420F0010B5114C0023E370032323717F
:104E50000F4B9B78022B06D0042B0AD1D723A370CB
:104E60000223637103E0F122A27063710123A37135
:104E7000E371074BA07860331978FEF71DFBA07033
:104E8000A078FFF7CFFF207010BDC046C0100020F3
:104E90008C130020F7B5364B364CDB7E002B00D14F
:104EA000A371227801266379301C984083B2534362
:104EB000314DDB10DBB22B802278FA2360799B0026
:104EC0005343311C2D4F814088B2B98858430901A2
:104ED00000F0E0F8C7B26F8023782D226079534349
:104EE0008640B0B23901584300F0D4F8C0B2A8806F
:104EF000E379224862798179D800181A4900C00004
:104F00000131E03048437901904000F075F8184BCA
:104F1000E8801E7DD87C1A493018C0B208705A7DCE
:104F20004A709C7D5D7E65434519EDB201958D709B
:104F3000DF7D9D7E7D43AC4694446546CD70197EF1
:104F4000104B002900D17C43564342431C701B7810
:104F50000D49D2180D4B0E801A80054B019F5A7FC8
:104F60001B7FBD185BB201359D40094B1D60F7BD2D
:104F700070100020C0100020600200208C13002060
:104F80003D0E00204110002026100020721300204A
:104F90001810002010B5064C0F2322680260081C70
:104FA0009843031C884200D00433D318236010BDFB
:104FB0003C00002010B51C1C029B88420ADB90427A
:104FC00007DA1B1B401A5843511A00F063F82418E3
:104FD00000E01C1C201C10BD00B502308001033114
:104FE0004118044B4900C85A904202DA80235B0101
:104FF000C01800BD00400040002934D00123002229
:1050000010B488422CD301242407A14204D2814247
:1050100002D209011B01F8E7E400A14204D2814257
:1050200002D249005B00F8E7884201D3401A1A43D4
:105030004C08A04202D3001B5C0822438C08A0420B
:1050400002D3001B9C082243CC08A04202D3001BC1
:10505000DC082243002803D01B0901D00909E3E73B
:10506000101C10BC7047002801D00020C04307B4BA
:10507000024802A14018029003BDC046D9000000BA
:105080000029F0D003B5FFF7B9FF0EBC4243891ADF
:105090001847C046002941D010B4041C4C40A44617
:1050A00001230022002900D54942002800D54042B2
:1050B00088422CD301242407A14204D2814202D287
:1050C00009011B01F8E7E400A14204D2814202D2A7
:1050D00049005B00F8E7884201D3401A1A434C08A4
:1050E000A04202D3001B5C0822438C08A04202D3DA
:1050F000001B9C082243CC08A04202D3001BDC0802
:105100002243002803D01B0901D00909E3E7101C42
:105110006446002C00D5404210BC7047002806D0E1
:1051200003DB0020C043400801E08020000607B4F4
:10513000024802A14018029003BDC04619000000B9
:105140000029EBD003B5FFF7A7FF0EBC4243891A35
:105150001847C0467047C046F0B5051C0F2A2FD926
:105160000B1C0343051C9C072CD10C1C031C151C99
:105170002668103D1E6066685E60A6689E60E668F0
:105180001034DE6010330F2DF2D8131C103B1B09B6
:1051900001331B01C518C9180F231A40032A0FD960
:1051A0000E1C2C1C131C80CE043B80C4032BFAD88D
:1051B000131F9B0801339B0003242240C918ED18DC
:1051C000002A05D00023CC5CEC5401339342FAD181
:1051D000F0BDC04670B5830742D0002A3FD0013AE7
:1051E000CEB2031C032503E0541E002A37D0221C34
:1051F0001E7001332B42F7D1032A28D9FF250D4019
:105200002C0225432C0425430F2A13D91C1C161CE1
:10521000103E25606560A560E56010340F2EF7D85C
:10522000141C103C2409013424011B190F242240B2
:10523000032A0CD91E1C141C043C20C6032CFBD8CA
:10524000141FA4080134A40003252A401B19002AB6
:1052500005D0C9B2013A19700133002AFAD170BDE4
:10526000031CC9E70101FFFF01FF01FF70100020CF
:10527000480E0020481A0020240E0020A902002019
:10528000410E0020FA0000201010002000FF010055
:10529000FF00000100010203040405060708090AD3
:1052A0000B0B0C0D0E0F10111112131415151617F0
:1052B0001818191A1B1B1C1D1D1E1F1F202121221F
:1052C000232324242525262727282829292A2A2B71
:1052D0002B2C2C2D01000002581B0020FF7F00808A
:1052E000FF7F008005FFFF02010C000C0604030095
:1052F000040000000101FFFF0000000000000000AA
:1053000000000000000000000000FFFF000000009F
:10531000000000000000000000000000000000008D
:10532000FFFFFFFFFFFFFFFFFFFFFFFFFFFFFFFF8D
:10533000FFFFFFFFFFFFFFFFFFFFFFFFFFFFFFFF7D
:10534000FFFFFFFFFFFFFFFFFFFFFFFFFFFFFFFF6D
:10535000FFFFFFFFFFFFFFFFFFFFFFFFFFFFFFFF5D
:10536000FFFFFFFFFFFFFFFFFFFFFFFFFFFFFFFF4D
:10537000FFFFFFFFFFFFFFFFFFFFFFFFFFFFFFFF3D
:10538000FFFFFFFFFFFFFFFFFFFFFFFFFFFFFFFF2D
:10539000FFFFFFFFFFFFFFFFFFFFFFFFFFFFFFFF1D
:1053A000FFFFFFFFFFFFFFFFFFFFFFFFFFFFFFFF0D
:1053B000FFFFFFFFFFFFFFFFFFFFFFFFFFFFFFFFFD
:1053C000FFFFFFFFFFFFFFFFFFFFFFFFFFFFFFFFED
:1053D000FFFFFFFFFFFFFFFFFFFFFFFFFFFFFFFFDD
:1053E000FFFFFFFFFFFFFFFFFFFFFFFFFFFFFFFFCD
:1053F000FC08555B000000000000000000000453A2
:105400004D31483043463533504F4C4C4F434B00A1
:1054100000000000480101001E0101001D110000F4
:10542000000000010100000102001002011C0A003E
:1054300000000005D00200000001015F5F50010183
:105440003232000000002C0126022C01F4012D0054
:1054500005011100000000000101020022011403F7
:105460000403020F00000064280015060000A508D0
:105470006A0062020000015A020AF1640607B003E2
:105480005203B0035203300000000000004001004E
:105490003700320000003C00AE00000002010114A1
:1054A00032000000000000000000000000000000CA
:1054B0000000030000000007070022010005D604D9
:1054C000DF00FF7F0080010000010200E001140303
:1054D00005020219000000642800D5070000A10998
:1054E0006D0CB5020000015A070AF1640A07F302C5
:1054F000A802B801180130000000000000400100BF
:105500004B00410000003C0082000000020101232A
:105510003200000000000000000000000000000059
:1055200000000300000000070B000E0100053A0612
:105530007800FF7F008023000001020304050607B6
:1055400008090A0B0C0D0E0F101112131415161763
:1055500018191A1B1C1D00000000000000000102A9
:10556000030405060708090A0B0C0D0E0F100000B6
:10557000000000000000000000000000000000002B
:10558000FBFBFAFAFAF9F9F9F9F8F8F8F8F8F8F78C
:10559000F7F7F7F7F7F7F7F7F7F7F7F7F700000080
:1055A0000000000000FBFAFAFAF9F9F9F9F8F8F846
:1055B000F8F8F8F7F7F7F7F7F7F7F7F7F7F7F7F778
:1055C000F7F70000000000000000FAFAFAFAF9F913
:1055D000F9F9F8F8F8F8F8F7F7F7F7F7F7F7F7F752
:1055E000F7F7F7F7F7F7F70000000000000000FA00
:1055F000FAFAF9F9F9F9F8F8F8F8F8F7F7F7F7F728
:10560000F7F7F7F7F7F7F7F7F7F7F7F70000000006
:1056100000000000FAFAF9F9F9F9F8F8F8F8F8F7E3
:10562000F7F7F7F7F7F7F7F7F6F7F6F6F6F7F7F70E
:10563000F70000000000000000FAF9F9F9F9F8F8A5
:10564000F8F8F7F7F7F7F7F7F7F6F6F6F6F6F6F6EF
:10565000F6F6F6F6F7F60000000000000000F9F993
:10566000F9F9F8F8F8F8F7F7F7F7F7F7F6F6F6F6C6
:10567000F6F6F6F6F6F6F6F6F6F6F6000000000098
:10568000000000F9F9F9F8F8F8F8F7F7F7F7F7F686
:10569000F6F6F6F6F6F6F6F6F6F6F6F6F6F6F6F6AA
:1056A0000000000000000000F9F9F8F8F8F8F7F73A
:1056B000F7F7F7F6F6F6F6F6F6F6F6F6F6F6F6F687
:1056C000F6F6F6F6F60000000000000000F9F8F823
:1056D000F8F8F7F7F7F7F7F6F6F6F6F6F6F6F6F661
:1056E000F6F5F5F5F5F5F6F6F6F600000000000023
:1056F0000000F9F8F8F8F7F7F7F7F7F6F6F6F6F628
:10570000F6F6F5F5F5F5F5F5F5F5F5F5F6F6F60039
:1057100000000000000000F8F8F8F8F7F7F7F7F6D7
:10572000F6F6F6F6F6F6F5F5F5F5F5F5F5F5F5F523
:10573000F5F6F6F50000000000000000F8F8F8F7B4
:10574000F7F7F7F6F6F6F6F6F6F6F5F5F5F5F5F5FC
:10575000F5F5F5F5F5F5F5F5F500000000000000AC
:1057600000F8F8F8F7F7F7F6F6F6F6F6F6F5F5F5C9
:10577000F5F5F5F5F5F5F5F5F5F5F5F5F5F50000C3
:10578000000000000000F8F8F7F7F7F7F6F6F6F675
:10579000F6F5F5F5F5F5F5F5F5F5F5F5F5F5F5F5B8
:1057A000F5F5F50000000000000000F8F7F7F7F746
:1057B000F6F6F6F6F6F5F5F5F5F5F5F5F5F5F5F594
:1057C000F5F5F5F5F5F5F5F5000000000000000031
:1057D000F8F7F7F7F7F6F6F6F6F5F5F5F5F5F5F56A
:1057E000F5F5F5F5F4F4F4F5F5F5F5F5F50000004B
:1057F00000000000000000000000000000000000A9
:105800000000000000000000000000000000000098
:105810000000000000000000000000000000000088
:105820000000000000000000000000000000000078
:105830000000000000000000000000000000000068
:105840000000000000000000000000000000000058
:105850000000000000000000000000000000000048
:105860000000000000000000000000000000000038
:105870000000000000000000000000000000000028
:105880000000000000000000000000000000000018
:105890000000000000000000000000000000000008
:1058A00000000000000000000000000000000000F8
:1058B00000000000000000000000000000000000E8
:1058C00000000000000000000000000000000000D8
:1058D00000000000000000000000000000000000C8
:1058E00000000000000000000000000000000000B8
:1058F00000000000000000000000000000000000A8
:105900000000000000000000000000000000000097
:105910000000000000000000000000000000000087
:105920000000000000000000000000000000000077
:10593000000000000000000000000000002E3536CE
:105940003837393B3D3B3E3E403F3F413E41424080
:105950003F403F3F40413E3F3E3000000029313351
:1059600032343435363739383A383A3A3A393B3BBB
:105970003B3C393B3A3C3B3A3B310000002B333552
:10598000333537363737383A383A393A3A3A3A3897
:105990003838393839393A3A3C320000002C34333F
:1059A0003536373538373838383A3A3B3B3D393871
:1059B0003838393838393A3939300000002C343425
:1059C000353636363838363838383A383A3839385D
:1059D000383839383B3A3A3B3B320000002C3435FA
:1059E0003635383836373838383A3A39393B383A34
:1059F0003A3A3A3B3B3B3B3B3A330000002E3635CC
:105A0000373838373638373838393A393A39393912
:105A10003B3A393B3A3C3C3C3D340000002E3636A4
:105A20003738373738383838393A393B3A3A3B39EA
:105A30003938383C3A3A3A3D3E3500000030373785
:105A400038383838383A3839393A393A3A383839CA
:105A500038393B3A3B3B3B3D3C340000002F383764
:105A60003838383838383939393A3C3938383939AA
:105A70003A393A3C3C3C3D3C3C330000003037383E
:105A80003738383838383838393B38383939393A8E
:105A9000383B3C3C3B3B3C3B3D340000002E363623
:105AA000363836383738383A38383939393A3A3B6F
:105AB0003A3A3A3D3C3B3B3C3E340000002F373500
:105AC0003838393838393A38383A393B3B38393B45
:105AD0003A3B3A3B3B3D3B3C3C330000002F3636E3
:105AE0003639383838383A383B3A3B3B393A3C3B20
:105AF0003A393B3C3B3B3B3B3C340000002F3535C7
:105B000038373637383A393A393A3A3B3C3B393903
:105B10003B38383A383B3A3A3B340000002E3537B0
:105B2000373738383738383838393A3A3C393A3AEA
:105B30003A3939383A383A3C3A34000000333B3D80
:105B40003C3B393A3B3C3C40404143454345424263
:105B500045423E4240414241423A000000000000BE
:105B60000000000000000000000000000000000035
:105B70000000000000000000000000000000000025
:105B80000000000000000000000000000000000015
:105B90000000000000000000000000000000000005
:105BA00000000000000000000000000000000000F5
:105BB000000000000000000000000000002E2C2D5E
:105BC0002E2E2F2F303031323233333333343434BE
:105BD00034343536363536363638000000000000AD
:105BE000000000000000004D3148305052353300B5
:105BF0004D495000000000003100000038B5184A3F
:105C0000184B00251A60184A184B19481A60194B8E
:105C100050211D605D609D60DD60FFF7BBF9164C93
:105C20007821201CFFF7B6F9201C08308C21FFF7E3
:105C3000B1F9A368114A1D701D779D73104B1A604E
:105C4000104A114B1A60114A114B1A60114A124B3B
:105C50001A60124A124B1A60124A134B1A6038BD6E
:105C6000BD730000500200205D6700004C02002060
:105C70000014002074020020A0000020AD5C000091
:105C800090000020B95C000094000020015D00003D
:105C900058020020195F000018000020E564000091
:105CA0001C000020FD5E000020000020014B0D22A2
:105CB0001A7070474C1B002010B5041CFDF72AFD1C
:105CC0000028FBD10C4B012C02D0042C09D104E09C
:105CD0001A680F211170507003E01A680E211170BC
:105CE00050701B6800229A70DA70044B01221A70FF
:105CF000FDF7BAFC10BDC04600140020FC130020C4
:105D0000F0B58DB0FDF706FD0028FBD1714F2623BD
:105D1000FB5C002B00D1DBE000276F4D0026012447
:105D200004973DE06D4BA200D3181A681B6C08A8BD
:105D300009930892FDF79EF9694989190423CA5EFF
:105D400018200B5E0AA803910A920B93FDF792F9B3
:105D5000099B0B986349181A4622895CC217801860
:105D60005040059008980A9A0290059894468842F7
:105D700057DA029A6046121AD0171218424091421E
:105D80004FDD039A2C21515E00294ADD514F262315
:105D9000FA5C0835231C023601349A4200DC90E09C
:105DA00000202B5E671E002BBCDC4D4FBB192C2046
:105DB0001A5E002AEADD04215A5E1827DB5F0AA872
:105DC0000A920B93FDF756F9474B484F1A783968FA
:105DD000049F20201201FB000243CB1822431A70BB
:105DE0000B980F220590059F0A983F1101129743C7
:105DF00011403943039104996F468C4601218C442C
:105E00000C21CF5D9870142168465F70085C67466E
:105E10000022FFB2D8701A715A719A71DA71049720
:105E2000B4E7334908783149020102980968001241
:105E300003901811079004980691C0000590602007
:105E4000404210430190039A07980F210A4088436B
:105E5000844603920598069A1118019A03982243E2
:105E6000059262461043844614226846105C6246DE
:105E700008704A7068460822105CCB708870EA8807
:105E8000FF23FF2A00D8D3B20B711A4B7A005B684C
:105E9000D01980000392C25C18184A714068FF282C
:105EA00000DDFF20039A8871D719BA009B189B6800
:105EB000FF2B00DDFF23049ACB710132D2B2049292
:105EC00064E7049F002F03D00B4B1F70FDF7CCFB42
:105ED0000DB0F0BD701000208814002004140020C4
:105EE000A80100208C130020F601002000140020DF
:105EF000F50100209C000020FC13002008B5054B94
:105F00001B88DBB2102B01D0AF2B01D1FDF7D6FBE4
:105F100008BDC04636000020F8B5B64BB6491B8810
:105F20000C780A1C342B6AD00ED8312B6ED005D8D1
:105F3000012B1BD0302B00D096E223E0322B40D037
:105F4000332B00D090E247E0A12B00D157E206D8D6
:105F50005F2B00D180E0A02B00D085E2CCE0A32B0A
:105F600000D159E2A42B00D07EE277E21C4202D09D
:105F7000A24A137078E22407640F00D074E2A04AAA
:105F8000137071E29F4B012C12D11B78002B00D0B3
:105F90006AE29D4B07229A56002A00D064E208224A
:105FA0009A56002A00D05FE201221A705A705BE212
:105FB0001A78012A00D057E2934B002119705A70C9
:105FC00052E2914B012C02D19C72DC720EE0002156
:105FD00099720121D97209E08B4B012C02D1DC713D
:105FE0001C7203E00021D971012119721B785BB288
:105FF000002B00D038E21278844B1A7034E2012C66
:1060000000D031E2824B11221A702DE2814B002C1C
:106010000CD00022191C9A73DA73333140220A70B3
:10602000191C343135330A701A701DE27A4A917B9B
:10603000101C9973D17B3330D9730078191C33311C
:106040000870101C34303532191C00781278343145
:10605000353308701A7007E2704BF1271B78AA2BB2
:106060000DD16F4A6F4B002151566F4A1B78127841
:106070005BB2C91852B2914201D11F1CF137381CD2
:10608000FDF766FEFB00DB1B9B00DB19674D1A0169
:10609000D21A7F212B68664E12120A401206334034
:1060A00013432B602B68A026F605B268381CB3603A
:1060B000FEF7B8FEC3001B1A9B0018180301181A3C
:1060C00003127F2128685A4A0B401B0610401843D0
:1060D00028602B68B268B360564B01221C70564B87
:1060E0001A702A6880231B0413432B602B68B26844
:1060F000B360FDF7E3FAB7E14B788A78C87809799D
:10610000222C4CD00ED8022C2ED005D8002C1ED01C
:10611000012C00D01CE121E0202C2CD0212C00D01F
:1061200016E12EE0402C00D105E106D8302C00D13C
:10613000CEE0362C00D00BE1D3E0722C00D1DEE0B3
:10614000802C00D1F1E0702C00D001E1CDE03B4B80
:1061500008221A703A4A3B4B1A6085E1374B3A4A9B
:106160001C70384B1A607FE1344B04221A70374A96
:10617000344B1A6078E1364A012B00D000231370AB
:1061800072E13449012B04D10868934003430B604A
:106190006AE10B680120904083430B6064E1042BAB
:1061A00060D006D8022B10D01FD8012B00D05BE1A5
:1061B00007E0062B00D180E079D3802B00D053E19B
:1061C00081E01349D2B20A704EE1234B12211A70BA
:1061D0000F4A11701A7800239A4203D11F4B5B7843
:1061E0005A1E93411E4A53703EE1134B01221A700E
:1061F0003AE1C046360000200C000050F1000020BB
:10620000F00000201A010020740200201B01002071
:10621000B80E00207010002008540000287C0000F8
:10622000297C00002A7C00002B7C00000800002054
:10623000FFFFFF80F2000020F40000201510002076
:10624000F05B0000D41A0020F85B0000F47B000033
:10625000ED00002038000020F50000205854000018
:106260008C1300208149D2B20A700A78804B013A1F
:10627000012A0DD87F4AFF209178401A111C0F2265
:106280000E2802DC8A78D243D2B260331A70EBE077
:10629000794A60331278002A04D0784A6032127842
:1062A0001A70E1E0764A603212781A70DCE0714BC5
:1062B0005A70744B10221A70D6E0734B1A70714BDF
:1062C00012221A70D0E0714953425341CB72CBE095
:1062D0001B026F4C1A4322806E4B02020A431A8043
:1062E000C2E06D49D2B20A70BEE06C49FF2B5CD1AE
:1062F000664B1B7D5B00DBB20B70002357E06749E8
:10630000FF2B06D1614B1B7D9B00DBB20B70002382
:1063100001E00420087052019B1861499B005B1842
:1063200060490B60FDF7A0F99EE01F2B00D99BE0B0
:106330005D49CA5498E05D4B0C221A705C4B0022F8
:106340001A705C4B01221A70534B05221A708BE0B5
:1063500058490978002900D186E0442C1BD006D882
:10636000422C18D00FD8412C00D07DE007E0462CFD
:1063700027D00CD34E2C37D04F2C75D138E04C4B56
:1063800001221A7070E04A4B02221A706CE0484BEE
:1063900003221A7068E04149FF2B06D1464B1B7857
:1063A0005B00DBB20B70002301E002200870520199
:1063B0009B1842495B005B183A490B60FDF754F9A2
:1063C00052E03649FF2B04D13B4B9B780B700023E6
:1063D00001E001200870520139499B185B183149CE
:1063E0000B60FDF741F93FE0314B04221A703BE0AE
:1063F0002E4B0D221A702E4B05221A7034E0314BB1
:10640000314AA4001B78A258D218304B1A60304B86
:106410001A78304B1A8027E02E492F4B08881A78BB
:1064200000B2801A0822904203DC0A881B7812B25C
:10643000D21A164BD97A002399420AD114E0056882
:106440000C78264EE4182C199D192D7801332570EF
:1064500001E01E4820499342F1DB05E0194B24027C
:106460001B78E4181E4B1C60F8BDC046F8000020E5
:106470008C130020C01000201A010020C854000016
:1064800058540000B80E0020F700002070100020C3
:10649000400000204200002048000020151000208D
:1064A00024040020D41A0020740200204C1B002079
:1064B00070130020F30000203D0E0020481500203E
:1064C000C81000200D0000506C5200000C04002089
:1064D0000E0000506E1A0020350000200C00005005
:1064E000481B002037B5894A13881BB20F2B00D1F7
:1064F0007CE016DC042B51D006DC022B3AD044DCC5
:10650000012B00D000E12CE00B2B5AD003DC052B33
:1065100000D0F9E04CE00C2B5AD00E2B00D0F3E069
:1065200060E0AF2B00D1B5E00EDCA22B00D191E0F2
:1065300003DC102B00D0E7E06FE0A42B00D198E043
:10654000AE2B00D0E0E0A0E0F22B00D1CEE004DCE6
:10655000C03B042B00D9D7E0ABE0F62B00D0D3E052
:10656000C8E06B4B1A786B4B52001B781A436A4B8E
:106570001A70C9E0694A0F23518D928D0909120AD8
:1065800099431340644ACB181370604B1A88032355
:1065900012B29A1A614B998D5F4BD1545B4B1A889A
:1065A000042312B29A1A5D4B598D5B4BD154ABE068
:1065B0005B4B1B8F1AB2FF2A00DDFF23564A137074
:1065C000A2E0564B5A7B574B1B78D218524B1A708D
:1065D0004E4B1A88534B12B259780C239A1A4E4BD1
:1065E000D15491E04C4B10221A708DE04E4B1B7829
:1065F000002B03D04D4B5B785A0709D14C4C2378C4
:10660000002B01D1FDF75AF82378DB00DBB22370B1
:10661000474B1A78404B1A7076E0434B1B78002B9F
:1066200003D0424843785D0701D1424B1868424984
:106630003F4A0D7814780023A54209D20A78364DD6
:106640008218D45C5A1901331470082BF6D15BE020
:10665000137059E03949384A00230C6810782E4DE0
:10666000C01820180478581901330470082BF4D18D
:106670004AE0294B324A334811680C7801311C70CA
:10668000013311608342F7D13EE02F4B1A78224B41
:106690001A7039E02D49284A00230C6810781E4DE5
:1066A000C01820180478581901330470082BF4D14D
:1066B0002AE0274C1188248801AA00230193148022
:1066C000244C08B2247809B29470234C2478D470F6
:1066D000C424201A521806E0D118C0390E4D0C7887
:1066E00059190C7001338342F6DB0DE00A4B4D2241
:1066F0001A7009E0104B094A1B780749DB009B1808
:106700001A685B680A604B6037BDC04636000020DF
:10671000F0000020F10000200C000050701000205C
:106720008C1300203D0E0020EC0000204C1B0020AC
:10673000FC13002000140020350000200C04002071
:10674000481B00201400005015100020D41A00200F
:10675000FA7B0000F97B0000FF530000F0B5CD4B41
:106760009DB01A68CC4B012A08D1CC4A1268012A84
:1067700004DD588D0B909B8D0C9303E0D98C0B910D
:106780001B8D0C930F24C54E81E16301C44A5B1934
:106790009B56002B00D174E1A700AB00F719F3184A
:1067A0007A6802935B68281CD31A0893231C103361
:1067B00003939B00F3180493103004998300F3189B
:1067C0004A6805935B680190D31A0993089A09985F
:1067D000D317C117D2185A4040182B1C48404033D9
:1067E000211C9B004031F31889005B6889190690D1
:1067F00004311BA807921B93FCF73CF8019A7868B8
:10680000D3001590F3180422995E029B01915B68F6
:1068100003990293CB00F31804229F5E019B019918
:10682000FB180393029B48437B430399C018FEF770
:1068300031FC029A169005990498496843681792AA
:10684000019A18934F4353430291D8190399FEF7C5
:1068500021FC029B199000210C2212A81A93FEF72A
:10686000B9FC6D20684400786F2240B20F906A44F2
:1068700012786E2152B269440023CB561BA81092A5
:10688000002282560333023203921193C0E00A9928
:10689000039AC90192010D91119F0592AFE00598ED
:1068A0008049C3195B5C5BB20293013B0F2B4CDD4B
:1068B000002101225242049104238C467A48013B74
:1068C000DBB2C1560A98411802310E917749C85679
:1068D00001990818033000900E9800998001411822
:1068E00070480E91405C00210E900EA8415601396F
:1068F0000F290FD8A94201D0A14204D1501C05D0C4
:106900008A4205D106E001218C4603E00A1C01E021
:1069100001200490002BD1D1614601326ED0644B2E
:10692000002902D00499002905D00598C219520007
:106930009B5A029315E00599CA1902995200985A78
:106940001139FEF7A7FB02900BE0002B56DBAB42A0
:1069500001D0A34252D1059BDA19554B5200D35AAC
:1069600002930298002849D001990322C9010E918F
:106970000192019B0798013BDBB2069901939B00B2
:10698000049388420FDD18AAD0580E9B0999C01AAB
:1069900048430899FEF77EFB049915AA53580D9AAF
:1069A000C018801A0FE0049915AB58580D9A089B2F
:1069B000801A58430999FEF76DFB049A18A98B5861
:1069C000C0180E9BC01AC117401848407F2812DC1F
:1069D000019A802193000A1A029848214243D21159
:1069E000C91804926A468858049984460A1C62446D
:1069F000483368461A5001990029BAD10137109BD3
:106A0000FA1E01929A4200DC49E703980130039094
:106A100003990F9A02390A91914200DC37E7149BDF
:106A2000129F9F4200DD1F1C079B0698834204DCD7
:106A3000031E191C002B03D10BE0069A079907923D
:106A4000079B9801FEF726FB3F2800DD3F20194BEE
:106A50001B5C2D210B9AC81A50430C9A5343C01843
:106A6000FEF718FB4743139BBF12BB4209DDA5424B
:106A700002DA231C2C1C1D1C201C291C1BAAFBF742
:106A80001DFD0135102D00D07FE6002C14D0251CF3
:106A9000013C7AE6C01A00208C130020B0020020CE
:106AA000C8100020002000408C52000090520000CE
:106AB00000400040945200001DB0F0BDF0B53D4BC9
:106AC0000E250733DA7F3C49541EA3006C4300199E
:106AD000394CD2008BB05B1812190021043301919C
:106AE000039262E00399019C0A197C320021525EF4
:106AF000002A54D0027851B2022901DC013202701E
:106B000082881E1CC28042898281428882800289DA
:106B100042811A6842801A6C028100228256032A3E
:106B20003ED10624025F9C4606920C21425E0992E9
:106B30000424025F05920A21425E08920224025F49
:106B4000002404920821425E04A9079207AA00E0EB
:106B5000009C0134A50004AB009402945D1900244C
:106B600001E0022302930B682F680434BB4201DD6D
:106B70000F602B6013681759BB4201DD176013517A
:106B8000029B0435012BECD0009C04320431022C12
:106B9000DED1059A63461A60089A326400E00270FA
:106BA0000199043B08390E380191034A934299D167
:106BB0000BB0F0BD7010002004140020F0B5CB4BDA
:106BC00085B00733DB7FCA4A63E0013BDBB21D1CA3
:106BD0001035EC0010190421405E002859DDC54E27
:106BE00034190427E45F002C53DD1E1C1436C249FF
:106BF00076008E190427F65F002E4ADDBF495E003D
:106C0000715E9F00D7197F68CF1B4037802F40D817
:106C1000BB4FAD005519F65F6D68751B4035802D73
:106C200037D8201A052834DD181CB24D40308000BA
:106C30002C181018042504264557A657013DAE42CE
:106C400027DB052505264557A6570135AE4220DC32
:106C50008079A47940B264B20138844219DB1D1CEA
:106C6000A4484035AD0044190726A657A04C651925
:106C7000ED796DB20135AE420BDC9D006619451908
:106C80006D6875601D1C1035AD00401940686419B1
:106C90006060002B99D19B489B4C011C6E31097898
:106CA0006668924A4E43B611B446914C3A25465F07
:106CB0000732D27F078F2168019623E0013AD2B2D2
:106CC000101C1030C00020188588002D1AD08F4E5F
:106CD0002DB2B65C002E0BD13EB2B54202DB40892C
:106CE00060450FDA101C1030814DC000281802E0FA
:106CF000019EB54206DAC3804381838084489500B3
:106D00002B500139002AD9D1824B22601960774B70
:106D10000733DC7F0DE1013CE4B2271C10377449D6
:106D2000FD004819019702900422805E714B7A4A57
:106D3000002800D1A3E0115D7F2901D00131115558
:106D40001257012A6DDDA1005A185568221C103215
:106D500092009B185F68664B59184E689A185268E3
:106D6000A81BBB1A0192C217811851408C46D91733
:106D700003935B184B4063440293802B0BDD191C7B
:106D8000C001FEF787F9039F02993518F801FEF755
:106D900081F901990F18721B0198D317D2185A4024
:106DA000C31BD9175B184B40D31801935B4B311CA5
:106DB0003E229A5E281C019BFCF794F8251C4C4E41
:106DC0001035039002955548AD00751969683E224B
:106DD000825E019B381CFCF785F8039FA300F31823
:106DE0005F60029F6860FD00424F7F1975190421A2
:106DF000785E0422A95E4A4E431A3E22B25EDE1736
:106E00009B197340FCF76EF8A88078896989444F14
:106E1000431ADE179B193E22BA5E7340FCF762F8F4
:106E20006881344A324BA100501859184968251C12
:106E300010354160A900501859184968ED004160AB
:106E400051195D1904312F1D41CF41C1211C403121
:106E5000890052185918496851602F4A1157294A18
:106E600044321278914203DC01235B42AB8002E0A2
:106E70001A6801321A602B4B00221A5559E0175735
:106E8000BC46204F44373F78BC454FDD5D19042791
:106E9000EE5F002E4DD0234EB446365D771CFFB218
:106EA00066463755204E7FB2367876B2BE4202DA59
:106EB000A88010553DE0029E04350436221C81CD89
:106EC00081C64032920088189A185268019D42602B
:106ED000A20088189A1852684260AA009B185B6842
:106EE000881843600B6801330B6022E070100020AB
:106EF00004140020BC0E0020A80100205A0000202D
:106F00006E0000208C13002068020020E8010020A1
:106F100048130020C01A0020781300208E13002090
:106F200090130020C41A0020E51300205B199880FC
:106F30001055002C00D0EEE60449054A0B1CC1CACE
:106F4000C1C305B012CA12C3F0BDC0460C02002076
:106F5000F8010020F0B595B011900E930B9101202F
:106F6000085600231290CB5600250233141C0A93B6
:106F700005950795069508952F1C09952E1C96E0FA
:106F80000D992368CA01D31A0B9A0393D2780B98F0
:106F900052B213920223C3560A99039A033389010A
:106FA000524204930F91109277E004990F98BC4AD3
:106FB0004318995C9446102930D90423B94A013BFF
:106FC000DBB2D0560D9A101802300290B648C25665
:106FD0000C98821803320192029A9001019A80184B
:106FE0006246125C02926A46107A029A002A12D015
:106FF000AE4A40B210180122524282560E98824286
:1070000009D10F9A049811391318A94A5B00985AAC
:10701000FEF740F80FE0002BD0D13BE0002939D03B
:10702000A2480122411852428A560E998A4231D111
:107030009F4A5B00985A00282CD00C9BDA016368A9
:10704000D31A002B13DC03995B42002907DD0A1CCD
:1070500042435843B618099A121809921AE0109A36
:1070600042435843089BBF181B18089312E003992A
:107070004343002908DC109A06995043079A0918DF
:10708000D2180691079205E00399059A4843121811
:107090000592ED18049B0133049304981399033867
:1070A0000C90884200DC80E70A9A01320A920A9B1F
:1070B0001298023B0D93834200DC61E70699059824
:1070C0000B1CF21B091A0396D14202D400210A912B
:1070D0000DE0079A0795151C059A08990593099BD9
:1070E00006923E1C0122039F099108930A9206987A
:1070F00005993318DB195B180393181E48D00798BD
:10710000099A089913185B185B1904935A20002BED
:107110003ED0039A2D2093423AD09A420ADC069B35
:10712000F71B0598FF183F1AFD43ED17049E3D40DD
:10713000101C0AE00999089A07988B1A1B185D1B06
:10714000EF43FF17039E04983D40311C8001FDF77B
:10715000A1FF311CC7B2A801FDF79CFF554BC1B27E
:107160001A1C3F2900D93F20C0B2F9B21B5C3F294D
:1071700000D93F27FFB2D15D2D20411AC9185843CD
:10718000FDF788FF0399049A914201DD5A23181AEA
:107190000A9B002B00D0404211995A2308701B1AF9
:1071A00015D0B42B00D100E1434A5A2B07DC410033
:1071B000525A03925A2B07D1404A049213E041429B
:1071C0004900525A52420392592B07DC01E03B48D6
:1071D0000390394A5B009B5A049304E05A30364BC3
:1071E0004000C05A04900B990B9A4978002349B289
:1071F0000F91D356002502330993079506950595FF
:107200002E1CA8E00C9B0499DA0123680B98D31A72
:10721000039A089359435A43C0780B9B40B210908D
:107220001291139202270998DF57800103370D90BE
:1072300088E00D991A4ACB19995C944610293FD9D8
:107240000423184A013BDBB2D0560C9A10180230C6
:1072500002901548C2560A98821803320192029A87
:107260009001019A80186246125C02926A46107A76
:10727000029A002A11D00D4A40B21018012252423F
:1072800082560E98824208D10D9A1139D319084AB4
:107290005B00985AFDF7FEFE1FE0002BD1D150E0B5
:1072A000002000408C52000090520000F8030020A3
:1072B0000040004094520000007B0000FFFF0000EF
:1072C00000293ED03A480122411852428A560E996E
:1072D0008A4236D1374A5B00985A002831D00A9941
:1072E0006268CB01D31A039A12995A43511A021CAD
:1072F0005A438C4608990A92624636184143002A3E
:1073000005DD079A52180A9907926D1804E0079A4A
:10731000521A0A9907926D1A0499139A59438918B7
:10732000089A42435843059B002905DD06999B189E
:1073300009180593069104E006999B1A091A05930A
:1073400006910137109BFA1E0A929A4200DC70E700
:1073500009980130099009990F9A02390C919142CC
:1073600000DC4FE7311C0798FDF794FE311C071C29
:10737000281CFDF78FFE311C051C0598FDF78AFEC1
:10738000311C04B20698FDF785FE01B2201CFBF704
:107390007DFB119B801229B2586038B2FBF776FB57
:1073A0001199801215B08860F0BD034A039215E769
:1073B000F8030020004000400100FFFFF0B58DB051
:1073C000102800D139E114DC062800D17CE006DC6D
:1073D00002285FD0042868D0002824D06CE30D2850
:1073E00000D1F7E00E2800D112E1072800D063E3B6
:1073F0007AE0192800D12FE309DC162800D10FE329
:10740000182800D124E3112800D055E399E21B2865
:1074100000D129E300DA23E31C2800D130E31F2840
:1074200000D049E342E3CA4B1B78002B05D1C94C7D
:10743000EE20A070FDF7F6FC2070C74B60331E787D
:10744000C64B1B78AA2B21D1C54B00255D57C54BD8
:10745000C54A1B7812785BB2E91852B2914215D135
:10746000BC4C5B1BA0782521CC385843FDF712FE9D
:10747000A37845195B199B19FF2B03DDF643F6B280
:10748000A67003E0A3785D19EDB2A570B14B9A78B0
:107490005A7011E3B54B00221A70B54B01221A70D5
:1074A000AD4BDA8AB34B1A8006E3B349B3480A6896
:1074B000002304789A4204D149680123323100DB69
:1074C000131C23430370F7E2AD4B02229A56A24BE2
:1074D000012A02D10822DA72EEE2AA4A0A211278BF
:1074E0004A430F32DA72E7E2A54B00221A73A54A2B
:1074F000082512780395002A08D19F4A06270826F6
:10750000925F0397222A01DC032503959E4A1D25DD
:10751000127808925E7906969B7900260593049668
:1075200049E000201123EF1C013BDBB29A1C9201C1
:107530009649D2195200525A0C1C12B28018002BD4
:10754000F2D12221FDF7A6FDEAB20790112309929C
:107550000195013BDBB29D1CAA01D2195200A05A31
:10756000AC46049D81B200B20A1C854205DACDB258
:1075700009980495DDB206950590089D072D02D95E
:1075800007980A1A92B2604615B28101002D0ADDF1
:10759000C919490092B2605A625203998D4207DBC1
:1075A0000136F6B204E0C9194900625A002262525B
:1075B000002BCED1019D013DEDB2FF2DB1D1182799
:1075C0006D467D5D14206F466D4BC75D5D719F718B
:1075D0001E7371E26A4B08229A56012A06D10921CC
:1075E0005956002900D15A7200221A720B229A565B
:1075F000012A00D060E20E20195E002900D1DA8154
:107600005F4B0022DA72624B01223A331A7053E266
:107610005B4B07229A56012A03D108229A56002A68
:1076200004D00A215A5E012A00D045E20022DA8104
:107630005A72574B3A331A703EE2554B554D073349
:10764000DC7F3BE0013CE4B2231C1033DA00AA18D3
:107650000426925F002A31D09B00EB185B680C2057
:107660000B93A2004C4B6043211CAA184031526876
:107670005B68890069180A9218180AAA231C043149
:10768000FFF768FC454B1A78334B002A03D1444A74
:107690001278002A03D0434ADA845A850EE0394A28
:1076A0001278002A05D0404AD18C528DD9845A854F
:1076B00004E03E4AD18C528DD9845A85002CC1D128
:1076C0002B68002B00DC7DE02D4B59799A792A4BF1
:1076D000951E1E89033233B2D80FC3185B10049372
:1076E0008B1E0331C9B2EDB2D2B20391DBB2201CC2
:1076F000211C06950792B4461FE00D1C1C279742DB
:107700004D41EDB2002D0ED0002E0CD0059FD51CA2
:107710007D191E4F6D00ED5B049FBD4203DB2818F1
:10772000013480B2E4B20132079DD2B2AA42E4D160
:107730000133039EDBB2B3423AD00E1C10279D1CCE
:107740009F424E41AD01F6B2069A0595D5E7C04677
:10775000F3000020C01000208C130020287C0000C3
:10776000297C00002A7C00002B7C00004C000020BB
:107770007A0100207C01002084010020D81A00201A
:10778000740200201A01002008040020004000407C
:1077900070100020041400209C000020F50100203F
:1077A000F601002026020000C854000058540000D2
:1077B0006646F5014519ADB228B2611CFDF76AFCB9
:1077C00080B201E0251C201CBC4BBD4A9E7812896A
:1077D00071B2012922D0171C0C3FBFB20D2F19D84E
:1077E000052C17D8B74C12B26468944212DA002EF6
:1077F00002D103229A702DE003292BD1DA780132CD
:10780000D2B2DA7052B2012A24DD01229A7000222B
:10781000DA701FE0A94B00229A701BE0111C0C3992
:1078200089B20D2908D8052C06D8A64912B2496894
:10783000914201DA00221A71A04B1A7951B25929EA
:1078400006DCA1490968002904D101321A7101E05E
:1078500000229A70994B02229A56012A06D1984A20
:107860000821525E272A01DD00229A709A789749F2
:10787000974B012A0CD10A781101891A143101326F
:10788000198711018A1A5A870233E822DA8728E019
:10789000097814244C4337341C870C01611A3231A7
:1078A00059870233AE21D987002A1AD12DB28949CE
:1078B000EB0FA9425341DBB2002B12D0864B83421F
:1078C0005241D2B2002A0CD07D4B08229B5E182B6D
:1078D00007DC824B843300255B5F002B01D1FBF773
:1078E0008BF87F4B00251B78DA01D31A784A5B00AE
:1078F000023344321370744A0A23013BDBB2191C71
:107900001031C900511849896D18002BF5D16B4B06
:107910000C27DF570A24013CE4B2261C6A481036C3
:10792000F60086197089291C7843FDF7B3FB708136
:10793000002CF0D16B4BD868FFF7C0F8FFF73EF989
:10794000BAE05E4A0223D356002B01D11371D370E3
:107950000123D356012B19D10023537013785AB247
:10796000012A07D1594B1A705F4B3A331A705F4B9B
:107970001A70A1E0002B00D09EE0544A13705A4ABE
:107980003A321370594B02221A7095E00721515672
:107990004A4B012903D108215156002903D00A215D
:1079A000525E012A0CD1484A1268002A08DD5A7A30
:1079B00051B2002904DD1E2902DC01325A727BE03B
:1079C0000A255A5F012A0ED13F4A1268002A0AD1BD
:1079D000DA8911B2002906DDFA208000814202DC3A
:1079E0000132DA8168E009229A561E2A09DD002256
:1079F0005A723D4B01223A331A700420FEF75CF9AB
:107A00005AE00E26995FFA229200914254DD00223C
:107A1000111CDA8101225A72334B3A3319704BE050
:107A20002B4B00221A705A7004229A70B422520012
:107A30009A8040229A710522DA711A7201225A72D2
:107A400002229A729622D2005A82DA821A8333E094
:107A50000120FAF713F82FE00220FAF70FF82BE0D5
:107A60000020FAF70BF827E0214BFC279978BF009C
:107A70008902C9190020FAF759F91E4B18601BE05A
:107A8000134A0B23603213701B4A6032137013E0E9
:107A90001D225C01013AD2B2A01880004558C026D0
:107AA000F602AD194550002AF4D101E01349112323
:107AB000013BDBB2FF2BEBD10DB0F0BD7402002017
:107AC0008401002068020020041400201A01002014
:107AD0008C1300205F0900008F010000BC0E002005
:107AE000F50100209C000020701000203A010020C9
:107AF00028000020F4030020480E00202404002069
:107B000000007804EF08660DDB115016C21A331F0F
:107B1000A1230C28742CD93039359639EE3D4242D8
:107B20009046D94A1B4F58538E57BE5BE65F076499
:107B30001F68306C397038742F781C7CFF7FD983B4
:107B4000A8876D8B278FD5927996109A9B9D1BA144
:107B50008DA4F3A74BAB97AED4B104B526B839BB0F
:107B60003EBE34C11BC4F2C6BAC973CC1BCFB3D15D
:107B70003BD4B2D619D96EDBB3DDE6DF08E218E4F8
:107B800016E603E8DDE9A5EB5BEDFEEE8FF00DF206
:107B900077F3CFF414F646F764F86FF967FA4BFB06
:107BA0001BFCD8FC81FD17FE98FE06FF5FFFA5FFBA
:107BB000D7FFF5FFFFFFFFFFFFFFFFFFFFFFFFFF07
:107BC000FFFFFFFFFFFFFFFFFFFFFFFFFFFFFFFFC5
:107BD000FFFFFFFFFFFFFFFFFFFFFFFFFFFFFFFFB5
:107BE000FFFFFFFFFFFFFFFFFFFFFFFFFFFFFFFFA5
:107BF000B9D3B277F41FE3C500004D45585853255B
:00000001FF
